{
  "address": "0x27Ea0f5F2F1e0Ad9d567A5f1E1113C1318865D63",
  "abi": [
    {
      "anonymous": false,
      "inputs": [
        {
          "indexed": false,
          "internalType": "address",
          "name": "addr",
          "type": "address"
        },
        {
          "indexed": false,
          "internalType": "uint256",
          "name": "commitment",
          "type": "uint256"
        }
      ],
      "name": "AddedCommitment",
      "type": "event"
    },
    {
      "anonymous": false,
      "inputs": [],
      "name": "AuctionCancelled",
      "type": "event"
    },
    {
      "anonymous": false,
      "inputs": [
        {
          "indexed": false,
          "internalType": "address",
          "name": "funder",
          "type": "address"
        },
        {
          "indexed": false,
          "internalType": "address",
          "name": "token",
          "type": "address"
        },
        {
          "indexed": false,
          "internalType": "uint256",
          "name": "totalTokens",
          "type": "uint256"
        },
        {
          "indexed": false,
          "internalType": "address",
          "name": "paymentCurrency",
          "type": "address"
        },
        {
          "indexed": false,
          "internalType": "address",
          "name": "admin",
          "type": "address"
        },
        {
          "indexed": false,
          "internalType": "address",
          "name": "wallet",
          "type": "address"
        }
      ],
      "name": "AuctionDeployed",
      "type": "event"
    },
    {
      "anonymous": false,
      "inputs": [],
      "name": "AuctionFinalized",
      "type": "event"
    },
    {
      "anonymous": false,
      "inputs": [
        {
          "indexed": false,
          "internalType": "address",
          "name": "pointList",
          "type": "address"
        },
        {
          "indexed": false,
          "internalType": "bool",
          "name": "enabled",
          "type": "bool"
        }
      ],
      "name": "AuctionPointListUpdated",
      "type": "event"
    },
    {
      "anonymous": false,
      "inputs": [
        {
          "indexed": false,
          "internalType": "uint256",
          "name": "startPrice",
          "type": "uint256"
        },
        {
          "indexed": false,
          "internalType": "uint256",
          "name": "minimumPrice",
          "type": "uint256"
        }
      ],
      "name": "AuctionPriceUpdated",
      "type": "event"
    },
    {
      "anonymous": false,
      "inputs": [
        {
          "indexed": false,
          "internalType": "uint256",
          "name": "startTime",
          "type": "uint256"
        },
        {
          "indexed": false,
          "internalType": "uint256",
          "name": "endTime",
          "type": "uint256"
        }
      ],
      "name": "AuctionTimeUpdated",
      "type": "event"
    },
    {
      "anonymous": false,
      "inputs": [
        {
          "indexed": false,
          "internalType": "address",
          "name": "wallet",
          "type": "address"
        }
      ],
      "name": "AuctionWalletUpdated",
      "type": "event"
    },
    {
      "anonymous": false,
      "inputs": [
        {
          "indexed": true,
          "internalType": "string",
          "name": "_name",
          "type": "string"
        },
        {
          "indexed": false,
          "internalType": "string",
          "name": "_data",
          "type": "string"
        }
      ],
      "name": "DocumentRemoved",
      "type": "event"
    },
    {
      "anonymous": false,
      "inputs": [
        {
          "indexed": true,
          "internalType": "string",
          "name": "_name",
          "type": "string"
        },
        {
          "indexed": false,
          "internalType": "string",
          "name": "_data",
          "type": "string"
        }
      ],
      "name": "DocumentUpdated",
      "type": "event"
    },
    {
      "anonymous": false,
      "inputs": [
        {
          "indexed": true,
          "internalType": "bytes32",
          "name": "role",
          "type": "bytes32"
        },
        {
          "indexed": true,
          "internalType": "bytes32",
          "name": "previousAdminRole",
          "type": "bytes32"
        },
        {
          "indexed": true,
          "internalType": "bytes32",
          "name": "newAdminRole",
          "type": "bytes32"
        }
      ],
      "name": "RoleAdminChanged",
      "type": "event"
    },
    {
      "anonymous": false,
      "inputs": [
        {
          "indexed": true,
          "internalType": "bytes32",
          "name": "role",
          "type": "bytes32"
        },
        {
          "indexed": true,
          "internalType": "address",
          "name": "account",
          "type": "address"
        },
        {
          "indexed": true,
          "internalType": "address",
          "name": "sender",
          "type": "address"
        }
      ],
      "name": "RoleGranted",
      "type": "event"
    },
    {
      "anonymous": false,
      "inputs": [
        {
          "indexed": true,
          "internalType": "bytes32",
          "name": "role",
          "type": "bytes32"
        },
        {
          "indexed": true,
          "internalType": "address",
          "name": "account",
          "type": "address"
        },
        {
          "indexed": true,
          "internalType": "address",
          "name": "sender",
          "type": "address"
        }
      ],
      "name": "RoleRevoked",
      "type": "event"
    },
    {
      "anonymous": false,
      "inputs": [
        {
          "indexed": false,
          "internalType": "address",
          "name": "token",
          "type": "address"
        },
        {
          "indexed": false,
          "internalType": "address",
          "name": "to",
          "type": "address"
        },
        {
          "indexed": false,
          "internalType": "uint256",
          "name": "amount",
          "type": "uint256"
        }
      ],
      "name": "TokensWithdrawn",
      "type": "event"
    },
    {
      "inputs": [],
      "name": "DEFAULT_ADMIN_ROLE",
      "outputs": [
        {
          "internalType": "bytes32",
          "name": "",
          "type": "bytes32"
        }
      ],
      "stateMutability": "view",
      "type": "function"
    },
    {
      "inputs": [],
      "name": "MINTER_ROLE",
      "outputs": [
        {
          "internalType": "bytes32",
          "name": "",
          "type": "bytes32"
        }
      ],
      "stateMutability": "view",
      "type": "function"
    },
    {
      "inputs": [],
      "name": "OPERATOR_ROLE",
      "outputs": [
        {
          "internalType": "bytes32",
          "name": "",
          "type": "bytes32"
        }
      ],
      "stateMutability": "view",
      "type": "function"
    },
    {
      "inputs": [],
      "name": "SMART_CONTRACT_ROLE",
      "outputs": [
        {
          "internalType": "bytes32",
          "name": "",
          "type": "bytes32"
        }
      ],
      "stateMutability": "view",
      "type": "function"
    },
    {
      "inputs": [],
      "name": "USER_ROLE",
      "outputs": [
        {
          "internalType": "bytes32",
          "name": "",
          "type": "bytes32"
        }
      ],
      "stateMutability": "view",
      "type": "function"
    },
    {
      "inputs": [
        {
          "internalType": "address",
          "name": "_address",
          "type": "address"
        }
      ],
      "name": "addAdminRole",
      "outputs": [],
      "stateMutability": "nonpayable",
      "type": "function"
    },
    {
      "inputs": [
        {
          "internalType": "address",
          "name": "_address",
          "type": "address"
        }
      ],
      "name": "addMinterRole",
      "outputs": [],
      "stateMutability": "nonpayable",
      "type": "function"
    },
    {
      "inputs": [
        {
          "internalType": "address",
          "name": "_address",
          "type": "address"
        }
      ],
      "name": "addOperatorRole",
      "outputs": [],
      "stateMutability": "nonpayable",
      "type": "function"
    },
    {
      "inputs": [
        {
          "internalType": "address",
          "name": "_address",
          "type": "address"
        }
      ],
      "name": "addSmartContractRole",
      "outputs": [],
      "stateMutability": "nonpayable",
      "type": "function"
    },
    {
      "inputs": [
        {
          "internalType": "address",
          "name": "_address",
          "type": "address"
        }
      ],
      "name": "addUserRole",
      "outputs": [],
      "stateMutability": "nonpayable",
      "type": "function"
    },
    {
      "inputs": [],
      "name": "auctionEnded",
      "outputs": [
        {
          "internalType": "bool",
          "name": "",
          "type": "bool"
        }
      ],
      "stateMutability": "view",
      "type": "function"
    },
    {
      "inputs": [],
      "name": "auctionSuccessful",
      "outputs": [
        {
          "internalType": "bool",
          "name": "",
          "type": "bool"
        }
      ],
      "stateMutability": "view",
      "type": "function"
    },
    {
      "inputs": [],
      "name": "auctionToken",
      "outputs": [
        {
          "internalType": "address",
          "name": "",
          "type": "address"
        }
      ],
      "stateMutability": "view",
      "type": "function"
    },
    {
      "inputs": [
        {
          "internalType": "bytes[]",
          "name": "calls",
          "type": "bytes[]"
        },
        {
          "internalType": "bool",
          "name": "revertOnFail",
          "type": "bool"
        }
      ],
      "name": "batch",
      "outputs": [
        {
          "internalType": "bool[]",
          "name": "successes",
          "type": "bool[]"
        },
        {
          "internalType": "bytes[]",
          "name": "results",
          "type": "bytes[]"
        }
      ],
      "stateMutability": "payable",
      "type": "function"
    },
    {
      "inputs": [
        {
          "internalType": "uint256",
          "name": "_commitment",
          "type": "uint256"
        }
      ],
      "name": "calculateCommitment",
      "outputs": [
        {
          "internalType": "uint256",
          "name": "committed",
          "type": "uint256"
        }
      ],
      "stateMutability": "view",
      "type": "function"
    },
    {
      "inputs": [],
      "name": "cancelAuction",
      "outputs": [],
      "stateMutability": "nonpayable",
      "type": "function"
    },
    {
      "inputs": [
        {
          "internalType": "address",
          "name": "",
          "type": "address"
        }
      ],
      "name": "claimed",
      "outputs": [
        {
          "internalType": "uint256",
          "name": "",
          "type": "uint256"
        }
      ],
      "stateMutability": "view",
      "type": "function"
    },
    {
      "inputs": [],
      "name": "clearingPrice",
      "outputs": [
        {
          "internalType": "uint256",
          "name": "",
          "type": "uint256"
        }
      ],
      "stateMutability": "view",
      "type": "function"
    },
    {
      "inputs": [
        {
          "internalType": "address payable",
          "name": "_beneficiary",
          "type": "address"
        },
        {
          "internalType": "bool",
          "name": "readAndAgreedToMarketParticipationAgreement",
          "type": "bool"
        }
      ],
      "name": "commitEth",
      "outputs": [],
      "stateMutability": "payable",
      "type": "function"
    },
    {
      "inputs": [
        {
          "internalType": "uint256",
          "name": "_amount",
          "type": "uint256"
        },
        {
          "internalType": "bool",
          "name": "readAndAgreedToMarketParticipationAgreement",
          "type": "bool"
        }
      ],
      "name": "commitTokens",
      "outputs": [],
      "stateMutability": "nonpayable",
      "type": "function"
    },
    {
      "inputs": [
        {
          "internalType": "address",
          "name": "_from",
          "type": "address"
        },
        {
          "internalType": "uint256",
          "name": "_amount",
          "type": "uint256"
        },
        {
          "internalType": "bool",
          "name": "readAndAgreedToMarketParticipationAgreement",
          "type": "bool"
        }
      ],
      "name": "commitTokensFrom",
      "outputs": [],
      "stateMutability": "nonpayable",
      "type": "function"
    },
    {
      "inputs": [
        {
          "internalType": "address",
          "name": "",
          "type": "address"
        }
      ],
      "name": "commitments",
      "outputs": [
        {
          "internalType": "uint256",
          "name": "",
          "type": "uint256"
        }
      ],
      "stateMutability": "view",
      "type": "function"
    },
    {
      "inputs": [
        {
          "internalType": "bool",
          "name": "_status",
          "type": "bool"
        }
      ],
      "name": "enableList",
      "outputs": [],
      "stateMutability": "nonpayable",
      "type": "function"
    },
    {
      "inputs": [],
      "name": "fee",
      "outputs": [
        {
          "internalType": "uint256",
          "name": "",
          "type": "uint256"
        }
      ],
      "stateMutability": "view",
      "type": "function"
    },
    {
      "inputs": [],
      "name": "feeDenominator",
      "outputs": [
        {
          "internalType": "uint256",
          "name": "",
          "type": "uint256"
        }
      ],
      "stateMutability": "view",
      "type": "function"
    },
    {
      "inputs": [],
      "name": "feeWallet",
      "outputs": [
        {
          "internalType": "address payable",
          "name": "",
          "type": "address"
        }
      ],
      "stateMutability": "view",
      "type": "function"
    },
    {
      "inputs": [],
      "name": "finalize",
      "outputs": [],
      "stateMutability": "nonpayable",
      "type": "function"
    },
    {
      "inputs": [],
      "name": "finalizeTimeExpired",
      "outputs": [
        {
          "internalType": "bool",
          "name": "",
          "type": "bool"
        }
      ],
      "stateMutability": "view",
      "type": "function"
    },
    {
      "inputs": [],
      "name": "finalized",
      "outputs": [
        {
          "internalType": "bool",
          "name": "",
          "type": "bool"
        }
      ],
      "stateMutability": "view",
      "type": "function"
    },
    {
      "inputs": [],
      "name": "gatekeeper",
      "outputs": [
        {
          "internalType": "contract IGatekeeper",
          "name": "",
          "type": "address"
        }
      ],
      "stateMutability": "view",
      "type": "function"
    },
    {
      "inputs": [],
      "name": "getAllDocuments",
      "outputs": [
        {
          "internalType": "string[]",
          "name": "",
          "type": "string[]"
        }
      ],
      "stateMutability": "view",
      "type": "function"
    },
    {
      "inputs": [
        {
          "internalType": "address",
          "name": "_funder",
          "type": "address"
        },
        {
          "internalType": "address",
          "name": "_token",
          "type": "address"
        },
        {
          "internalType": "uint256",
          "name": "_totalTokens",
          "type": "uint256"
        },
        {
          "internalType": "uint256",
          "name": "_startTime",
          "type": "uint256"
        },
        {
          "internalType": "uint256",
          "name": "_endTime",
          "type": "uint256"
        },
        {
          "internalType": "address",
          "name": "_paymentCurrency",
          "type": "address"
        },
        {
          "internalType": "uint256",
          "name": "_startPrice",
          "type": "uint256"
        },
        {
          "internalType": "uint256",
          "name": "_minimumPrice",
          "type": "uint256"
        },
        {
          "internalType": "address",
          "name": "_admin",
          "type": "address"
        },
        {
          "internalType": "address",
          "name": "_pointList",
          "type": "address"
        },
        {
          "internalType": "address payable",
          "name": "_wallet",
          "type": "address"
        }
      ],
      "name": "getAuctionInitData",
      "outputs": [
        {
          "internalType": "bytes",
          "name": "_data",
          "type": "bytes"
        }
      ],
      "stateMutability": "pure",
      "type": "function"
    },
    {
      "inputs": [],
      "name": "getBaseInformation",
      "outputs": [
        {
          "internalType": "address",
          "name": "",
          "type": "address"
        },
        {
          "internalType": "uint64",
          "name": "",
          "type": "uint64"
        },
        {
          "internalType": "uint64",
          "name": "",
          "type": "uint64"
        },
        {
          "internalType": "bool",
          "name": "",
          "type": "bool"
        }
      ],
      "stateMutability": "view",
      "type": "function"
    },
    {
      "inputs": [
        {
          "internalType": "string",
          "name": "_name",
          "type": "string"
        }
      ],
      "name": "getDocument",
      "outputs": [
        {
          "internalType": "string",
          "name": "",
          "type": "string"
        },
        {
          "internalType": "uint256",
          "name": "",
          "type": "uint256"
        }
      ],
      "stateMutability": "view",
      "type": "function"
    },
    {
      "inputs": [],
      "name": "getDocumentCount",
      "outputs": [
        {
          "internalType": "uint256",
          "name": "",
          "type": "uint256"
        }
      ],
      "stateMutability": "view",
      "type": "function"
    },
    {
      "inputs": [
        {
          "internalType": "uint256",
          "name": "_index",
          "type": "uint256"
        }
      ],
      "name": "getDocumentName",
      "outputs": [
        {
          "internalType": "string",
          "name": "",
          "type": "string"
        }
      ],
      "stateMutability": "view",
      "type": "function"
    },
    {
      "inputs": [
        {
          "internalType": "bytes32",
          "name": "role",
          "type": "bytes32"
        }
      ],
      "name": "getRoleAdmin",
      "outputs": [
        {
          "internalType": "bytes32",
          "name": "",
          "type": "bytes32"
        }
      ],
      "stateMutability": "view",
      "type": "function"
    },
    {
      "inputs": [
        {
          "internalType": "bytes32",
          "name": "role",
          "type": "bytes32"
        },
        {
          "internalType": "uint256",
          "name": "index",
          "type": "uint256"
        }
      ],
      "name": "getRoleMember",
      "outputs": [
        {
          "internalType": "address",
          "name": "",
          "type": "address"
        }
      ],
      "stateMutability": "view",
      "type": "function"
    },
    {
      "inputs": [
        {
          "internalType": "bytes32",
          "name": "role",
          "type": "bytes32"
        }
      ],
      "name": "getRoleMemberCount",
      "outputs": [
        {
          "internalType": "uint256",
          "name": "",
          "type": "uint256"
        }
      ],
      "stateMutability": "view",
      "type": "function"
    },
    {
      "inputs": [],
      "name": "getTotalTokens",
      "outputs": [
        {
          "internalType": "uint256",
          "name": "",
          "type": "uint256"
        }
      ],
      "stateMutability": "view",
      "type": "function"
    },
    {
      "inputs": [
        {
          "internalType": "bytes32",
          "name": "role",
          "type": "bytes32"
        },
        {
          "internalType": "address",
          "name": "account",
          "type": "address"
        }
      ],
      "name": "grantRole",
      "outputs": [],
      "stateMutability": "nonpayable",
      "type": "function"
    },
    {
      "inputs": [
        {
          "internalType": "address",
          "name": "_address",
          "type": "address"
        }
      ],
      "name": "hasAdminRole",
      "outputs": [
        {
          "internalType": "bool",
          "name": "",
          "type": "bool"
        }
      ],
      "stateMutability": "view",
      "type": "function"
    },
    {
      "inputs": [
        {
          "internalType": "address",
          "name": "_address",
          "type": "address"
        }
      ],
      "name": "hasMinterRole",
      "outputs": [
        {
          "internalType": "bool",
          "name": "",
          "type": "bool"
        }
      ],
      "stateMutability": "view",
      "type": "function"
    },
    {
      "inputs": [
        {
          "internalType": "address",
          "name": "_address",
          "type": "address"
        }
      ],
      "name": "hasOperatorRole",
      "outputs": [
        {
          "internalType": "bool",
          "name": "",
          "type": "bool"
        }
      ],
      "stateMutability": "view",
      "type": "function"
    },
    {
      "inputs": [
        {
          "internalType": "bytes32",
          "name": "role",
          "type": "bytes32"
        },
        {
          "internalType": "address",
          "name": "account",
          "type": "address"
        }
      ],
      "name": "hasRole",
      "outputs": [
        {
          "internalType": "bool",
          "name": "",
          "type": "bool"
        }
      ],
      "stateMutability": "view",
      "type": "function"
    },
    {
      "inputs": [
        {
          "internalType": "address",
          "name": "_address",
          "type": "address"
        }
      ],
      "name": "hasSmartContractRole",
      "outputs": [
        {
          "internalType": "bool",
          "name": "",
          "type": "bool"
        }
      ],
      "stateMutability": "view",
      "type": "function"
    },
    {
      "inputs": [
        {
          "internalType": "address",
          "name": "_address",
          "type": "address"
        }
      ],
      "name": "hasUserRole",
      "outputs": [
        {
          "internalType": "bool",
          "name": "",
          "type": "bool"
        }
      ],
      "stateMutability": "view",
      "type": "function"
    },
    {
      "inputs": [
        {
          "internalType": "bytes",
          "name": "_data",
          "type": "bytes"
        }
      ],
      "name": "init",
      "outputs": [],
      "stateMutability": "payable",
      "type": "function"
    },
    {
      "inputs": [
        {
          "internalType": "address",
          "name": "_admin",
          "type": "address"
        }
      ],
      "name": "initAccessControls",
      "outputs": [],
      "stateMutability": "nonpayable",
      "type": "function"
    },
    {
      "inputs": [
        {
          "internalType": "address",
          "name": "_funder",
          "type": "address"
        },
        {
          "internalType": "address",
          "name": "_token",
          "type": "address"
        },
        {
          "internalType": "uint256",
          "name": "_totalTokens",
          "type": "uint256"
        },
        {
          "internalType": "uint256",
          "name": "_startTime",
          "type": "uint256"
        },
        {
          "internalType": "uint256",
          "name": "_endTime",
          "type": "uint256"
        },
        {
          "internalType": "address",
          "name": "_paymentCurrency",
          "type": "address"
        },
        {
          "internalType": "uint256",
          "name": "_startPrice",
          "type": "uint256"
        },
        {
          "internalType": "uint256",
          "name": "_minimumPrice",
          "type": "uint256"
        },
        {
          "internalType": "address",
          "name": "_admin",
          "type": "address"
        },
        {
          "internalType": "address",
          "name": "_pointList",
          "type": "address"
        },
        {
          "internalType": "address payable",
          "name": "_wallet",
          "type": "address"
        },
        {
          "internalType": "address",
          "name": "_gatekeeper",
          "type": "address"
        }
      ],
      "name": "initAuction",
      "outputs": [],
      "stateMutability": "nonpayable",
      "type": "function"
    },
    {
      "inputs": [
        {
          "internalType": "bytes",
          "name": "_data",
          "type": "bytes"
        }
      ],
      "name": "initMarket",
      "outputs": [],
      "stateMutability": "nonpayable",
      "type": "function"
    },
    {
      "inputs": [],
      "name": "isOpen",
      "outputs": [
        {
          "internalType": "bool",
          "name": "",
          "type": "bool"
        }
      ],
      "stateMutability": "view",
      "type": "function"
    },
    {
      "inputs": [],
      "name": "marketInfo",
      "outputs": [
        {
          "internalType": "uint64",
          "name": "startTime",
          "type": "uint64"
        },
        {
          "internalType": "uint64",
          "name": "endTime",
          "type": "uint64"
        },
        {
          "internalType": "uint128",
          "name": "totalTokens",
          "type": "uint128"
        }
      ],
      "stateMutability": "view",
      "type": "function"
    },
    {
      "inputs": [],
      "name": "marketParticipationAgreement",
      "outputs": [
        {
          "internalType": "string",
          "name": "",
          "type": "string"
        }
      ],
      "stateMutability": "pure",
      "type": "function"
    },
    {
      "inputs": [],
      "name": "marketPrice",
      "outputs": [
        {
          "internalType": "uint128",
          "name": "startPrice",
          "type": "uint128"
        },
        {
          "internalType": "uint128",
          "name": "minimumPrice",
          "type": "uint128"
        }
      ],
      "stateMutability": "view",
      "type": "function"
    },
    {
      "inputs": [],
      "name": "marketStatus",
      "outputs": [
        {
          "internalType": "uint128",
          "name": "commitmentsTotal",
          "type": "uint128"
        },
        {
          "internalType": "bool",
          "name": "finalized",
          "type": "bool"
        },
        {
          "internalType": "bool",
          "name": "usePointList",
          "type": "bool"
        }
      ],
      "stateMutability": "view",
      "type": "function"
    },
    {
      "inputs": [],
      "name": "marketTemplate",
      "outputs": [
        {
          "internalType": "uint256",
          "name": "",
          "type": "uint256"
        }
      ],
      "stateMutability": "view",
      "type": "function"
    },
    {
      "inputs": [],
      "name": "paymentCurrency",
      "outputs": [
        {
          "internalType": "address",
          "name": "",
          "type": "address"
        }
      ],
      "stateMutability": "view",
      "type": "function"
    },
    {
      "inputs": [
        {
          "internalType": "contract IERC20",
          "name": "token",
          "type": "address"
        },
        {
          "internalType": "address",
          "name": "from",
          "type": "address"
        },
        {
          "internalType": "address",
          "name": "to",
          "type": "address"
        },
        {
          "internalType": "uint256",
          "name": "amount",
          "type": "uint256"
        },
        {
          "internalType": "uint256",
          "name": "deadline",
          "type": "uint256"
        },
        {
          "internalType": "uint8",
          "name": "v",
          "type": "uint8"
        },
        {
          "internalType": "bytes32",
          "name": "r",
          "type": "bytes32"
        },
        {
          "internalType": "bytes32",
          "name": "s",
          "type": "bytes32"
        }
      ],
      "name": "permitToken",
      "outputs": [],
      "stateMutability": "nonpayable",
      "type": "function"
    },
    {
      "inputs": [],
      "name": "pointList",
      "outputs": [
        {
          "internalType": "address",
          "name": "",
          "type": "address"
        }
      ],
      "stateMutability": "view",
      "type": "function"
    },
    {
      "inputs": [],
      "name": "priceDrop",
      "outputs": [
        {
          "internalType": "uint256",
          "name": "",
          "type": "uint256"
        }
      ],
      "stateMutability": "view",
      "type": "function"
    },
    {
      "inputs": [],
      "name": "priceFunction",
      "outputs": [
        {
          "internalType": "uint256",
          "name": "",
          "type": "uint256"
        }
      ],
      "stateMutability": "view",
      "type": "function"
    },
    {
      "inputs": [
        {
          "internalType": "address",
          "name": "_address",
          "type": "address"
        }
      ],
      "name": "removeAdminRole",
      "outputs": [],
      "stateMutability": "nonpayable",
      "type": "function"
    },
    {
      "inputs": [
        {
          "internalType": "string",
          "name": "_name",
          "type": "string"
        }
      ],
      "name": "removeDocument",
      "outputs": [],
      "stateMutability": "nonpayable",
      "type": "function"
    },
    {
      "inputs": [
        {
          "internalType": "address",
          "name": "_address",
          "type": "address"
        }
      ],
      "name": "removeMinterRole",
      "outputs": [],
      "stateMutability": "nonpayable",
      "type": "function"
    },
    {
      "inputs": [
        {
          "internalType": "address",
          "name": "_address",
          "type": "address"
        }
      ],
      "name": "removeOperatorRole",
      "outputs": [],
      "stateMutability": "nonpayable",
      "type": "function"
    },
    {
      "inputs": [
        {
          "internalType": "address",
          "name": "_address",
          "type": "address"
        }
      ],
      "name": "removeSmartContractRole",
      "outputs": [],
      "stateMutability": "nonpayable",
      "type": "function"
    },
    {
      "inputs": [
        {
          "internalType": "bytes32",
          "name": "role",
          "type": "bytes32"
        },
        {
          "internalType": "address",
          "name": "account",
          "type": "address"
        }
      ],
      "name": "renounceRole",
      "outputs": [],
      "stateMutability": "nonpayable",
      "type": "function"
    },
    {
      "inputs": [
        {
          "internalType": "bytes32",
          "name": "role",
          "type": "bytes32"
        },
        {
          "internalType": "address",
          "name": "account",
          "type": "address"
        }
      ],
      "name": "revokeRole",
      "outputs": [],
      "stateMutability": "nonpayable",
      "type": "function"
    },
    {
      "inputs": [
        {
          "internalType": "uint256",
          "name": "_startPrice",
          "type": "uint256"
        },
        {
          "internalType": "uint256",
          "name": "_minimumPrice",
          "type": "uint256"
        }
      ],
      "name": "setAuctionPrice",
      "outputs": [],
      "stateMutability": "nonpayable",
      "type": "function"
    },
    {
      "inputs": [
        {
          "internalType": "uint256",
          "name": "_startTime",
          "type": "uint256"
        },
        {
          "internalType": "uint256",
          "name": "_endTime",
          "type": "uint256"
        }
      ],
      "name": "setAuctionTime",
      "outputs": [],
      "stateMutability": "nonpayable",
      "type": "function"
    },
    {
      "inputs": [
        {
          "internalType": "address payable",
          "name": "_wallet",
          "type": "address"
        }
      ],
      "name": "setAuctionWallet",
      "outputs": [],
      "stateMutability": "nonpayable",
      "type": "function"
    },
    {
      "inputs": [
        {
          "internalType": "string",
          "name": "_name",
          "type": "string"
        },
        {
          "internalType": "string",
          "name": "_data",
          "type": "string"
        }
      ],
      "name": "setDocument",
      "outputs": [],
      "stateMutability": "nonpayable",
      "type": "function"
    },
    {
      "inputs": [
        {
          "internalType": "string[]",
          "name": "_name",
          "type": "string[]"
        },
        {
          "internalType": "string[]",
          "name": "_data",
          "type": "string[]"
        }
      ],
      "name": "setDocuments",
      "outputs": [],
      "stateMutability": "nonpayable",
      "type": "function"
    },
    {
      "inputs": [
        {
          "internalType": "uint256",
          "name": "_fee",
          "type": "uint256"
        },
        {
          "internalType": "address payable",
          "name": "_feeWallet",
          "type": "address"
        }
      ],
      "name": "setFeeInfo",
      "outputs": [],
      "stateMutability": "nonpayable",
      "type": "function"
    },
    {
      "inputs": [
        {
          "internalType": "address",
          "name": "_gatekeeper",
          "type": "address"
        }
      ],
      "name": "setGatekeeper",
      "outputs": [],
      "stateMutability": "nonpayable",
      "type": "function"
    },
    {
      "inputs": [
        {
          "internalType": "address",
          "name": "_list",
          "type": "address"
        }
      ],
      "name": "setList",
      "outputs": [],
      "stateMutability": "nonpayable",
      "type": "function"
    },
    {
      "inputs": [],
      "name": "tokenPrice",
      "outputs": [
        {
          "internalType": "uint256",
          "name": "",
          "type": "uint256"
        }
      ],
      "stateMutability": "view",
      "type": "function"
    },
    {
      "inputs": [
        {
          "internalType": "address",
          "name": "_user",
          "type": "address"
        }
      ],
      "name": "tokensClaimable",
      "outputs": [
        {
          "internalType": "uint256",
          "name": "claimerCommitment",
          "type": "uint256"
        }
      ],
      "stateMutability": "view",
      "type": "function"
    },
    {
      "inputs": [],
      "name": "totalTokensCommitted",
      "outputs": [
        {
          "internalType": "uint256",
          "name": "",
          "type": "uint256"
        }
      ],
      "stateMutability": "view",
      "type": "function"
    },
    {
      "inputs": [],
      "name": "wallet",
      "outputs": [
        {
          "internalType": "address payable",
          "name": "",
          "type": "address"
        }
      ],
      "stateMutability": "view",
      "type": "function"
    },
    {
      "inputs": [
        {
          "internalType": "address payable",
          "name": "beneficiary",
          "type": "address"
        }
      ],
      "name": "withdrawTokens",
      "outputs": [],
      "stateMutability": "nonpayable",
      "type": "function"
    },
    {
      "inputs": [],
      "name": "withdrawTokens",
      "outputs": [],
      "stateMutability": "nonpayable",
      "type": "function"
    },
    {
      "stateMutability": "payable",
      "type": "receive"
    }
  ],
  "transactionHash": "0xd92fefdfa8f3c1cd16ca4e6eb14bab7bf31e7073c1a1923e5f04df5679e5d45c",
  "args": [],
  "numDeployments": 1,
  "solcInputHash": "c374b82a7239baaa546a1eb10269819a",
  "bytecode": "0x6080604052600060065534801561001557600080fd5b5060016005556155688061002a6000396000f3fe6080604052600436106104985760003560e01c80638a845fc011610260578063c884ef8311610144578063ddca3f43116100c1578063f04899d311610085578063f04899d314610d72578063f08b82e614610d87578063f25f4b5614610d9c578063f5b541a614610db1578063fbb9795614610dc6578063fc4e3e0a14610de6576104a7565b8063ddca3f4314610cd9578063dde51f6d14610cee578063e0e081d714610d0e578063e6594abd14610d32578063e8fcf72314610d52576104a7565b8063d547741f11610108578063d547741f14610c44578063d69d3e6214610c64578063d7568b6e14610c84578063dc97e08214610c99578063dccfe31014610cb9576104a7565b8063c884ef8314610bae578063c92bce8714610bce578063ca15c87314610bee578063d2423b5114610c0e578063d539139314610c2f576104a7565b80639c64d0ae116101dd578063adbf3776116101a1578063adbf377614610af9578063b3f05b9714610b19578063b7928b1d14610b2e578063b88374c514610b4e578063c395fcb314610b6e578063c6b547e614610b8e576104a7565b80639c64d0ae14610a785780639fa5f50b14610a98578063a217fddf14610aba578063a59c9c2714610acf578063a9d87ee614610ae4576104a7565b806391d148541161022457806391d14854146109e35780639478941c14610a03578063963c78dd14610a2357806399fdb32014610a435780639a87222c14610a58576104a7565b80638a845fc0146109645780638d8f2adb146109845780638fa8b790146109995780639010d07c146109ae578063919e93b5146109ce576104a7565b806347535d7b116103875780636ae260c1116103045780637ccb6a64116102c85780637ccb6a64146108b75780637ff9b596146108e557806381353c8e146108fa57806384720f161461091a578063857d26081461093a578063864333741461094f576104a7565b80636ae260c11461081557806373973fcb14610835578063747c0b4a1461085557806374cf9fc5146108755780637c516e9414610897576104a7565b80634ddf47d41161034b5780634ddf47d41461078d578063521eb273146107a057806354f1e126146107b557806356cf15ad146107d55780636595171c146107f5576104a7565b806347535d7b1461070357806349df728c146107185780634b3e6abb146107385780634bb278f3146107585780634dc80e151461076d576104a7565b8063297629601161041557806336d0054b116103d957806336d0054b146106745780633d15cc6d146106895780633d1c2273146106ab5780633f16431a146106c057806345a15388146106e0576104a7565b806329762960146105e75780632f2ff15d146105fa578063314148e21461061a57806332a0f2d71461063f57806336568abe14610654576104a7565b8063180b0d7e1161045c578063180b0d7e1461055d5780631b3e460e14610572578063212f8a8114610587578063248a9ca3146105a757806324e4025b146105c7576104a7565b8063031bee00146104ac578063099db017146104d9578063113b0ab21461050657806313119161146105265780631702645514610548576104a7565b366104a7576104a5610e06565b005b600080fd5b3480156104b857600080fd5b506104c1610e27565b6040516104d0939291906152a7565b60405180910390f35b3480156104e557600080fd5b506104f96104f4366004613ce0565b610e54565b6040516104d091906145a8565b34801561051257600080fd5b506104f9610521366004613ce0565b610e76565b34801561053257600080fd5b5061053b610e90565b6040516104d091906145b3565b34801561055457600080fd5b506104f9610eb4565b34801561056957600080fd5b5061053b610ed3565b34801561057e57600080fd5b5061053b610ed9565b34801561059357600080fd5b506104a56105a2366004613ed8565b610ede565b3480156105b357600080fd5b5061053b6105c2366004614002565b611031565b3480156105d357600080fd5b506104a56105e236600461403e565b611046565b6104a56105f5366004613dc8565b61114d565b34801561060657600080fd5b506104a561061536600461401a565b611234565b34801561062657600080fd5b5061062f61127c565b6040516104d0949392919061447c565b34801561064b57600080fd5b5061053b6112b4565b34801561066057600080fd5b506104a561066f36600461401a565b6112e3565b34801561068057600080fd5b506104f9611325565b34801561069557600080fd5b5061069e61133e565b6040516104d09190614336565b3480156106b757600080fd5b5061053b61134d565b3480156106cc57600080fd5b506104a56106db366004613ce0565b611353565b3480156106ec57600080fd5b506106f561136e565b6040516104d092919061527f565b34801561070f57600080fd5b506104f9611388565b34801561072457600080fd5b506104a5610733366004613ce0565b6113bd565b34801561074457600080fd5b506104a5610753366004613fca565b611507565b34801561076457600080fd5b506104a5611584565b34801561077957600080fd5b5061053b610788366004613ce0565b611795565b6104a561079b36600461405f565b611278565b3480156107ac57600080fd5b5061069e6118e2565b3480156107c157600080fd5b506104a56107d0366004613ce0565b6118f1565b3480156107e157600080fd5b506104a56107f0366004613ce0565b611909565b34801561080157600080fd5b506104a5610810366004613ce0565b611933565b34801561082157600080fd5b506104a561083036600461403e565b61193e565b34801561084157600080fd5b5061053b610850366004614002565b611a91565b34801561086157600080fd5b506104a5610870366004613eb6565b611b0b565b34801561088157600080fd5b5061088a611f5f565b6040516104d091906145bc565b3480156108a357600080fd5b506104a56108b236600461409e565b611f82565b3480156108c357600080fd5b506108d76108d236600461405f565b611ff6565b6040516104d09291906145fe565b3480156108f157600080fd5b5061053b6120e3565b34801561090657600080fd5b506104a561091536600461405f565b612116565b34801561092657600080fd5b5061088a610935366004613e00565b61216b565b34801561094657600080fd5b5061053b6121b2565b34801561095b57600080fd5b506104f96121c4565b34801561097057600080fd5b506104a561097f366004613ce0565b6121ed565b34801561099057600080fd5b506104a5612205565b3480156109a557600080fd5b506104a5612210565b3480156109ba57600080fd5b5061069e6109c936600461403e565b61230f565b3480156109da57600080fd5b5061053b612330565b3480156109ef57600080fd5b506104f96109fe36600461401a565b61235b565b348015610a0f57600080fd5b506104a5610a1e366004613ce0565b612373565b348015610a2f57600080fd5b506104a5610a3e36600461401a565b61238b565b348015610a4f57600080fd5b5061069e612401565b348015610a6457600080fd5b506104a5610a73366004613ce0565b612410565b348015610a8457600080fd5b506104a5610a93366004614120565b612493565b348015610aa457600080fd5b50610aad6124b1565b6040516104d09190614548565b348015610ac657600080fd5b5061053b612589565b348015610adb57600080fd5b5061069e61258e565b348015610af057600080fd5b5061053b61259d565b348015610b0557600080fd5b506104a5610b14366004613ce0565b6125fe565b348015610b2557600080fd5b506104f9612616565b348015610b3a57600080fd5b506104a5610b49366004613ce0565b612626565b348015610b5a57600080fd5b506104f9610b69366004613ce0565b61263e565b348015610b7a57600080fd5b506104f9610b89366004613ce0565b61266a565b348015610b9a57600080fd5b5061088a610ba9366004614002565b612676565b348015610bba57600080fd5b5061053b610bc9366004613ce0565b612741565b348015610bda57600080fd5b506104a5610be9366004613f62565b612753565b348015610bfa57600080fd5b5061053b610c09366004614002565b6127c5565b610c21610c1c366004613f19565b6127dc565b6040516104d09291906144ae565b348015610c3b57600080fd5b5061053b61296c565b348015610c5057600080fd5b506104a5610c5f36600461401a565b61297e565b348015610c7057600080fd5b506104a5610c7f366004613ce0565b6129b8565b348015610c9057600080fd5b5061053b6129d3565b348015610ca557600080fd5b506104a5610cb436600461422e565b612aab565b348015610cc557600080fd5b506104a5610cd4366004613ce0565b612ab6565b348015610ce557600080fd5b5061053b612ac1565b348015610cfa57600080fd5b506104a5610d0936600461405f565b612ac7565b348015610d1a57600080fd5b50610d23612ae3565b6040516104d09392919061525c565b348015610d3e57600080fd5b506104a5610d4d366004613ce0565b612b08565b348015610d5e57600080fd5b5061053b610d6d366004613ce0565b612b6b565b348015610d7e57600080fd5b5061069e612b7d565b348015610d9357600080fd5b5061053b612b8c565b348015610da857600080fd5b5061069e612ba2565b348015610dbd57600080fd5b5061053b612bb1565b348015610dd257600080fd5b506104a5610de1366004613ce0565b612bc3565b348015610df257600080fd5b506104f9610e01366004613ce0565b612c0a565b60405162461bcd60e51b8152600401610e1e90614ac0565b60405180910390fd5b6009546001600160401b0380821691600160401b810490911690600160801b90046001600160801b031683565b6000610e6e6000805160206153c28339815191528361235b565b90505b919050565b6000610e6e6000805160206153828339815191528361235b565b7f14823911f2da1b49f045a0929a60b8c1f2a7fc8c06c7284ca3e8ab4e193a08c881565b60095442600160401b9091046001600160401b031662093a8001105b90565b61271081565b600181565b60026005541415610f015760405162461bcd60e51b8152600401610e1e9061507c565b6002600555600d546001600160a01b031673eeeeeeeeeeeeeeeeeeeeeeeeeeeeeeeeeeeeeeee1415610f455760405162461bcd60e51b8152600401610e1e906146aa565b600854604051635ee388f760e01b81526001600160a01b0390911690635ee388f790610f779086908690600401614463565b602060405180830381600087803b158015610f9157600080fd5b505af1158015610fa5573d6000803e3d6000fd5b505050506040513d601f19601f82011682018060405250810190610fc99190613fe6565b610fe55760405162461bcd60e51b8152600401610e1e90614bb2565b80610ff257610ff2610e06565b6000610ffd83611a91565b9050801561102657600d5461101c906001600160a01b03163383612c24565b6110268482612d01565b505060016005555050565b60009081526020819052604090206002015490565b61104f3361266a565b61105857600080fd5b8082116110775760405162461bcd60e51b8152600401610e1e9061513b565b600081116110975760405162461bcd60e51b8152600401610e1e90614926565b600b546001600160801b0316156110c05760405162461bcd60e51b8152600401610e1e906150b3565b6110c982612ea4565b600a80546001600160801b0319166001600160801b03929092169190911790556110f281612ea4565b600a80546001600160801b03928316600160801b0292169190911790556040517f622a57040c34e45abc5fadeb22e4c3c687cf48a096c86694cd21a7be9e7851ee906111419084908490615299565b60405180910390a15050565b600d546001600160a01b031673eeeeeeeeeeeeeeeeeeeeeeeeeeeeeeeeeeeeeeee1461118b5760405162461bcd60e51b8152600401610e1e90614e1c565b8061119857611198610e06565b60006111a334611a91565b905060006111b13483612ed1565b905081156111c3576111c38483612d01565b8015611201576040516001600160a01b0385169082156108fc029083906000818181858888f193505050501580156111ff573d6000803e3d6000fd5b505b600b54476001600160801b03909116111561122e5760405162461bcd60e51b8152600401610e1e90614978565b50505050565b600082815260208190526040902060020154611252906109fe612ef4565b61126e5760405162461bcd60e51b8152600401610e1e90614866565b6112788282612ef8565b5050565b600c54600954600b546001600160a01b03909216926001600160401b0380831693600160401b9093041691600160801b900460ff1690565b6000806112bf6120e3565b905060006112cb61259d565b90508082116112da57806112dc565b815b9250505090565b6112eb612ef4565b6001600160a01b0316816001600160a01b03161461131b5760405162461bcd60e51b8152600401610e1e906151df565b6112788282612f61565b600061132f6112b4565b6113376120e3565b1015905090565b600d546001600160a01b031681565b60045490565b61136b60008051602061538283398151915282611234565b50565b600a546001600160801b0380821691600160801b90041682565b6009546000906001600160401b031642108015906113b85750600954600160401b90046001600160401b03164211155b905090565b600260055414156113e05760405162461bcd60e51b8152600401610e1e9061507c565b60026005556113ed611325565b1561149d57600b54600160801b900460ff1661141b5760405162461bcd60e51b8152600401610e1e90614f07565b600061142682611795565b9050600081116114485760405162461bcd60e51b8152600401610e1e9061477a565b6001600160a01b03821660009081526011602052604090205461146b9082612fca565b6001600160a01b03808416600090815260116020526040902091909155600c5461149791168383612fed565b506114ff565b600954600160401b90046001600160401b031642116114ce5760405162461bcd60e51b8152600401610e1e90614fe5565b6001600160a01b0380821660009081526010602052604081208054919055600d5490916114fd91168383612fed565b505b506001600555565b6115103361266a565b61151957600080fd5b600b805460ff60881b1916600160881b83151581029190911791829055600f546040517f2df0f5b650a168c74b406dcccc513b8e68da86ce7bcb0654ee83b2ac47be5b3f93611579936001600160a01b039093169260ff91041690614448565b60405180910390a150565b600260055414156115a75760405162461bcd60e51b8152600401610e1e9061507c565b60026005556115b53361266a565b806115c457506115c433610e76565b806115d95750600e546001600160a01b031633145b806115e757506115e7610eb4565b6116035760405162461bcd60e51b8152600401610e1e90614e6d565b600954600160801b90046001600160801b03166116325760405162461bcd60e51b8152600401610e1e90614ce2565b600b8054600160801b900460ff161561165d5760405162461bcd60e51b8152600401610e1e906149cb565b611665611325565b156116f257600d54600e548254611692926001600160a01b039081169216906001600160801b0316612fed565b600654156116ed576009546006546000916116cb91612710916116c59190600160801b90046001600160801b031661306c565b906130a3565b600c546007549192506116eb916001600160a01b03918216911683612fed565b505b611753565b600954600160401b90046001600160401b031642116117235760405162461bcd60e51b8152600401610e1e90614fe5565b600c54600e54600954611753926001600160a01b03908116921690600160801b90046001600160801b0316612fed565b805460ff60801b1916600160801b1781556040517f32bebcfd2d04dbae321298091d96d2cb1d07279f59718cd83bd98245b8b82b5a90600090a1506001600555565b6001600160a01b0381166000908152601060205260408120546117ba57506000610e71565b600c546040516370a0823160e01b81526000916001600160a01b0316906370a08231906117eb903090600401614336565b60206040518083038186803b15801561180357600080fd5b505afa158015611817573d6000803e3d6000fd5b505050506040513d601f19601f8201168201806040525081019061183b9190614216565b600b546009546001600160a01b03861660009081526010602052604090205492935061187e926001600160801b03928316926116c592600160801b90041661306c565b9150600061189d6127106116c56006548661306c90919063ffffffff16565b6001600160a01b0385166000908152601160205260409020549091506118cd906118c78584612ed1565b90612ed1565b9250818311156118db578192505b5050919050565b600e546001600160a01b031681565b61136b6000805160206153c28339815191528261297e565b61136b7f14823911f2da1b49f045a0929a60b8c1f2a7fc8c06c7284ca3e8ab4e193a08c882611234565b61136b600082611234565b6119473361266a565b61195057600080fd5b6402540be40082106119745760405162461bcd60e51b8152600401610e1e90614a12565b6402540be40081106119985760405162461bcd60e51b8152600401610e1e90614a12565b428210156119b85760405162461bcd60e51b8152600401610e1e90614b63565b8181116119d75760405162461bcd60e51b8152600401610e1e906146f7565b600b546001600160801b031615611a005760405162461bcd60e51b8152600401610e1e906150b3565b611a09826130d5565b6009805467ffffffffffffffff19166001600160401b0392909216919091179055611a33816130d5565b600980546001600160401b0392909216600160401b0267ffffffffffffffff60401b199092169190911790556040517f5725d1e4352d6944889e54837ffaefde55cdc0b55796b831365d61cd4c87fdb8906111419084908490615299565b600080611ac4670de0b6b3a76400006116c5611aab6112b4565b600954600160801b90046001600160801b03169061306c565b600b549091508190611adf906001600160801b031685612fca565b1115611b0457600b54611afc9082906001600160801b0316612ed1565b915050610e71565b5090919050565b6402540be4008810611b2f5760405162461bcd60e51b8152600401610e1e90614a12565b42891015611b4f5760405162461bcd60e51b8152600401610e1e90614b63565b888811611b6e5760405162461bcd60e51b8152600401610e1e90614eb2565b60008a11611b8e5760405162461bcd60e51b8152600401610e1e90614c07565b848611611bad5760405162461bcd60e51b8152600401610e1e9061513b565b60008511611bcd5760405162461bcd60e51b8152600401610e1e90614926565b6001600160a01b038416611bf35760405162461bcd60e51b8152600401610e1e90615198565b6001600160a01b038216611c195760405162461bcd60e51b8152600401610e1e906147af565b8a6001600160a01b031663313ce5676040518163ffffffff1660e01b815260040160206040518083038186803b158015611c5257600080fd5b505afa158015611c66573d6000803e3d6000fd5b505050506040513d601f19601f82011682018060405250810190611c8a9190614252565b60ff16601214611cac5760405162461bcd60e51b8152600401610e1e9061502f565b6001600160a01b03871673eeeeeeeeeeeeeeeeeeeeeeeeeeeeeeeeeeeeeeee14611d63576000876001600160a01b031663313ce5676040518163ffffffff1660e01b815260040160206040518083038186803b158015611d0b57600080fd5b505afa158015611d1f573d6000803e3d6000fd5b505050506040513d601f19601f82011682018060405250810190611d439190614252565b60ff1611611d635760405162461bcd60e51b8152600401610e1e906148b5565b611d6c896130d5565b6009805467ffffffffffffffff19166001600160401b0392909216919091179055611d96886130d5565b600980546001600160401b0392909216600160401b0267ffffffffffffffff60401b19909216919091179055611dcb8a612ea4565b600980546001600160801b03928316600160801b029216919091179055611df186612ea4565b600a80546001600160801b0319166001600160801b0392909216919091179055611e1a85612ea4565b600a80546001600160801b03928316600160801b029216919091179055600c80546001600160a01b03808e166001600160a01b031992831617909255600d80548a8416908316179055600e80548584169083161790556008805492841692909116919091179055611e8a84612b08565b611e93836130fe565b611e9e8b8d8c612c24565b7f7824ca06acdd8331a93fac9d8f97849b46c2d30748d7320b0d3a8173320b1f3a8c8c8c8a8887604051611ed79695949392919061436e565b60405180910390a17f5725d1e4352d6944889e54837ffaefde55cdc0b55796b831365d61cd4c87fdb88989604051611f10929190615299565b60405180910390a17f622a57040c34e45abc5fadeb22e4c3c687cf48a096c86694cd21a7be9e7851ee8686604051611f49929190615299565b60405180910390a1505050505050505050505050565b606060405180610180016040528061015181526020016153e26101519139905090565b60405163d505accf60e01b81526001600160a01b0389169063d505accf90611fba908a908a908a908a908a908a908a90600401614407565b600060405180830381600087803b158015611fd457600080fd5b505af1158015611fe8573d6000803e3d6000fd5b505050505050505050505050565b606060006002848460405161200c92919061429a565b90815260200160405180910390206001016002858560405161202f92919061429a565b908152604080516020928190038301812054845460026101006001831615026000190190911604601f810185900485028301850190935282825264010000000090046001600160401b031692909184918301828280156120d05780601f106120a5576101008083540402835291602001916120d0565b820191906000526020600020905b8154815290600101906020018083116120b357829003601f168201915b50505050509150915091505b9250929050565b600954600b546000916113b8916001600160801b03600160801b9092048216916116c59116670de0b6b3a764000061306c565b6000808080808080808080808061212f8d8f018f613d03565b9b509b509b509b509b509b509b509b509b509b509b509b5061215b8c8c8c8c8c8c8c8c8c8c8c8c611b0b565b5050505050505050505050505050565b60608b8b8b8b8b8b8b8b8b8b8b6040516020016121929b9a999897969594939291906143a8565b60405160208183030381529060405290509b9a5050505050505050505050565b60008051602061538283398151915281565b60006121ce611325565b806113b8575050600954600160401b90046001600160401b0316421190565b61136b6000805160206153828339815191528261297e565b61220e336113bd565b565b600260055414156122335760405162461bcd60e51b8152600401610e1e9061507c565b60026005556122413361266a565b61224a57600080fd5b600b8054600160801b900460ff16156122755760405162461bcd60e51b8152600401610e1e906149cb565b80546001600160801b03161561229d5760405162461bcd60e51b8152600401610e1e90614a79565b600c54600e546009546122cd926001600160a01b03908116921690600160801b90046001600160801b0316612fed565b805460ff60801b1916600160801b1781556040517fa5fb31e47bd1eca58bf14a3312d5e6aeafdc4ee787c8ed348c15c2b092324d9390600090a1506001600555565b6000828152602081905260408120612327908361318a565b90505b92915050565b60006113b861233d6112b4565b600b546116c5906001600160801b0316670de0b6b3a764000061306c565b60008281526020819052604081206123279083613196565b61136b6000805160206153a28339815191528261297e565b6123943361266a565b6123b05760405162461bcd60e51b8152600401610e1e90614900565b600b54600160801b900460ff16156123da5760405162461bcd60e51b8152600401610e1e90614b38565b600691909155600780546001600160a01b0319166001600160a01b03909216919091179055565b600c546001600160a01b031681565b6124193361266a565b61242257600080fd5b6001600160a01b0381166124485760405162461bcd60e51b8152600401610e1e906147af565b600e80546001600160a01b0319166001600160a01b0383161790556040517f34ae2bad9265f0212d4cf341708b8250949164bb54f9d0e4f442024f83bb2f9090611579908390614336565b61249c3361266a565b6124a557600080fd5b61122e848484846131ab565b60606004805480602002602001604051908101604052809291908181526020016000905b828210156125805760008481526020908190208301805460408051601f600260001961010060018716150201909416939093049283018590048502810185019091528181529283018282801561256c5780601f106125415761010080835404028352916020019161256c565b820191906000526020600020905b81548152906001019060200180831161254f57829003601f168201915b5050505050815260200190600101906124d5565b50505050905090565b600081565b6008546001600160a01b031681565b6009546000906001600160401b031642116125c45750600a546001600160801b0316610ed0565b600954600160401b90046001600160401b031642106125f65750600a54600160801b90046001600160801b0316610ed0565b6113b86133fd565b61136b6000805160206153c283398151915282611234565b600b54600160801b900460ff1690565b61136b6000805160206153a283398151915282611234565b6000610e6e7f14823911f2da1b49f045a0929a60b8c1f2a7fc8c06c7284ca3e8ab4e193a08c88361235b565b6000610e6e818361235b565b600454606090821061269a5760405162461bcd60e51b8152600401610e1e90614f81565b600482815481106126a757fe5b600091825260209182902001805460408051601f60026000196101006001871615020190941693909304928301859004850281018501909152818152928301828280156127355780601f1061270a57610100808354040283529160200191612735565b820191906000526020600020905b81548152906001019060200180831161271857829003601f168201915b50505050509050919050565b60116020526000908152604090205481565b61275c3361266a565b61276557600080fd5b8260005b818110156127bd576127b586868381811061278057fe5b905060200281019061279291906152d3565b86868581811061279e57fe5b90506020028101906127b091906152d3565b6131ab565b600101612769565b505050505050565b6000818152602081905260408120610e6e9061351f565b606080836001600160401b03811180156127f557600080fd5b5060405190808252806020026020018201604052801561281f578160200160208202803683370190505b509150836001600160401b038111801561283857600080fd5b5060405190808252806020026020018201604052801561286c57816020015b60608152602001906001900390816128575790505b50905060005b8481101561296357600060603088888581811061288b57fe5b905060200281019061289d91906152d3565b6040516128ab92919061429a565b600060405180830381855af49150503d80600081146128e6576040519150601f19603f3d011682016040523d82523d6000602084013e6128eb565b606091505b509150915081806128fa575085155b6129038261352a565b906129215760405162461bcd60e51b8152600401610e1e91906145bc565b508185848151811061292f57fe5b6020026020010190151590811515815250508084848151811061294e57fe5b60209081029190910101525050600101612872565b50935093915050565b6000805160206153c283398151915281565b60008281526020819052604090206002015461299c906109fe612ef4565b61131b5760405162461bcd60e51b8152600401610e1e90614c92565b6129c13361266a565b6129ca57600080fd5b61136b816130fe565b60006129dd613a6c565b50604080516060810182526009546001600160401b038082168352600160401b8204166020830152600160801b90046001600160801b031691810191909152612a24613a8c565b5060408051808201909152600a546001600160801b03808216808452600160801b9092041660208301819052600091612a5c9161358a565b6001600160801b031690506000612a8d846000015185602001516001600160401b03166135b990919063ffffffff16565b6001600160401b03169050808281612aa157fe5b0494505050505090565b611278338383610ede565b61136b60008261297e565b60065481565b612ad03361266a565b612ad957600080fd5b61127882826135e8565b600b546001600160801b0381169060ff600160801b8204811691600160881b90041683565b60015460ff1615612b2b5760405162461bcd60e51b8152600401610e1e906147f7565b6001600160a01b038116612b515760405162461bcd60e51b8152600401610e1e90614d79565b612b5c60008261126e565b506001805460ff191681179055565b60106020526000908152604090205481565b600f546001600160a01b031681565b600954600160801b90046001600160801b031690565b6007546001600160a01b031681565b6000805160206153a283398151915281565b612bcc3361266a565b612be85760405162461bcd60e51b8152600401610e1e90614900565b600880546001600160a01b0319166001600160a01b0392909216919091179055565b6000610e6e6000805160206153a28339815191528361235b565b60006060846001600160a01b03166323b872dd853086604051602401612c4c9392919061434a565b6040516020818303038152906040529060e01b6020820180516001600160e01b038381831617835250505050604051612c8591906142aa565b6000604051808303816000865af19150503d8060008114612cc2576040519150601f19603f3d011682016040523d82523d6000602084013e612cc7565b606091505b5091509150818015612cf1575080511580612cf1575080806020019051810190612cf19190613fe6565b612cfa57600080fd5b5050505050565b6009546001600160401b03164210801590612d2e5750600954600160401b90046001600160401b03164211155b612d4a5760405162461bcd60e51b8152600401610e1e90614da2565b6001600160a01b038216600090815260106020526040812054600b9190612d719084612fca565b8254909150600160881b900460ff1615612e1057600f54604051631cd53d5560e01b81526001600160a01b0390911690631cd53d5590612db79087908590600401614463565b60206040518083038186803b158015612dcf57600080fd5b505afa158015612de3573d6000803e3d6000fd5b505050506040513d601f19601f82011682018060405250810190612e079190613fe6565b612e1057600080fd5b6001600160a01b03841660009081526010602052604090208190558154612e4990612e44906001600160801b031685612fca565b612ea4565b82546001600160801b0319166001600160801b03919091161782556040517f077511a636ba1f10551cc7b89c13ff66a6ac9344e8a917527817a9690b15af7a90612e969086908690614463565b60405180910390a150505050565b60006001600160801b03821115612ecd5760405162461bcd60e51b8152600401610e1e90614c5b565b5090565b8082038281111561232a5760405162461bcd60e51b8152600401610e1e9061474b565b3390565b6000828152602081905260409020612f109082613819565b1561127857612f1d612ef4565b6001600160a01b0316816001600160a01b0316837f2f8788117e7eff1d82e926ec794901d17c78024a50270940304540a733656f0d60405160405180910390a45050565b6000828152602081905260409020612f79908261382e565b1561127857612f86612ef4565b6001600160a01b0316816001600160a01b0316837ff6391f5c32d9c69d2a47ea670b442974b53935d1edc7fd64eb21e047a839171b60405160405180910390a45050565b8181018181101561232a5760405162461bcd60e51b8152600401610e1e90614d0b565b6001600160a01b03831673eeeeeeeeeeeeeeeeeeeeeeeeeeeeeeeeeeeeeeee14156130215761301c8282613843565b61302c565b61302c8383836138d5565b7f6337ed398c0e8467698c581374fdce4db14922df487b5a39483079f5f59b60a483838360405161305f9392919061434a565b60405180910390a1505050565b60008115806130875750508082028282828161308457fe5b04145b61232a5760405162461bcd60e51b8152600401610e1e90615104565b60008082116130c45760405162461bcd60e51b8152600401610e1e9061522e565b8183816130cd57fe5b049392505050565b60006001600160401b03821115612ecd5760405162461bcd60e51b8152600401610e1e90614de5565b6001600160a01b0381161561313e57600f80546001600160a01b0383166001600160a01b0319909116179055600b805460ff60881b1916600160881b1790555b600f54600b546040517f2df0f5b650a168c74b406dcccc513b8e68da86ce7bcb0654ee83b2ac47be5b3f92611579926001600160a01b0390911691600160881b90910460ff1690614448565b600061232783836138fb565b6000612327836001600160a01b038416613940565b826131c85760405162461bcd60e51b8152600401610e1e90614d42565b806131e55760405162461bcd60e51b8152600401610e1e90614fae565b60006001600160401b03166002858560405161320292919061429a565b908152604051908190036020019020546001600160401b036401000000009091041614156132a85760048054600181018255600091909152613267907f8a35acfbc15ff81a39ae7d344fd709f28e8600b4aa8c65c6b64bfe7fe36bd19b018585613aa3565b5060045460405160029061327e908790879061429a565b908152604051908190036020019020805463ffffffff9290921663ffffffff199092169190911790555b6040518060600160405280600286866040516132c592919061429a565b90815260408051602092819003830190205463ffffffff168352426001600160401b0316838301528051601f860183900483028101830182528581529201919085908590819084018382808284376000920191909152505050915250604051600290613334908790879061429a565b9081526040805191829003602090810190922083518154858501516001600160401b0316640100000000026bffffffffffffffff000000001963ffffffff90931663ffffffff19909216919091179190911617815590830151805191926133a392600185019290910190613b1d565b50506040516133b691508590859061429a565b60405180910390207fbaa206e5ea800eb88bce099f453fee53295b793b9d5d1cfc4ce4b6db06a34f5383836040516133ef9291906145cf565b60405180910390a250505050565b6000613407613a6c565b50604080516060810182526009546001600160401b038082168352600160401b8204166020830152600160801b90046001600160801b03169181019190915261344e613a8c565b5060408051808201909152600a546001600160801b038082168352600160801b90910416602080830191909152825190830151600091613497916001600160401b0316906135b9565b6001600160401b03166134f66134c7846020015185600001516001600160801b031661358a90919063ffffffff16565b6001600160801b03166134f086600001516001600160401b031642612ed190919063ffffffff16565b9061306c565b816134fd57fe5b83519190049150613517906001600160801b031682612ed1565b935050505090565b6000610e6e82613958565b6060604482511015613570575060408051808201909152601d81527f5472616e73616374696f6e2072657665727465642073696c656e746c790000006020820152610e71565b60048201915081806020019051810190610e6e919061417c565b8082036001600160801b03808416908216111561232a5760405162461bcd60e51b8152600401610e1e9061474b565b8082036001600160401b03808416908216111561232a5760405162461bcd60e51b8152600401610e1e9061474b565b60006001600160401b03166002838360405161360592919061429a565b908152604051908190036020019020546001600160401b036401000000009091041614156136455760405162461bcd60e51b8152600401610e1e90614bd8565b600060016002848460405161365b92919061429a565b9081526040519081900360200190205460045463ffffffff91821692909203925082166000199091011461373c5760048054600019810190811061369b57fe5b9060005260206000200160048263ffffffff16815481106136b857fe5b9060005260206000200190805460018160011615610100020316600290046136e1929190613b8b565b5080600101600260048363ffffffff16815481106136fb57fe5b9060005260206000200160405161371291906142c6565b908152604051908190036020019020805463ffffffff9290921663ffffffff199092169190911790555b600480548061374757fe5b6001900381819060005260206000200160006137639190613c00565b9055828260405161377592919061429a565b60405180910390207f4b5338540b4d1c0f6dd0308a25f633b7ff60472f894d711cff9dd64e35c613b2600285856040516137b092919061429a565b90815260200160405180910390206001016040516137ce9190614620565b60405180910390a2600283836040516137e892919061429a565b90815260405190819003602001902080546bffffffffffffffffffffffff191681556000612cfa6001830182613c00565b6000612327836001600160a01b03841661395c565b6000612327836001600160a01b0384166139a6565b604080516000808252602082019092526001600160a01b03841690839060405161386d91906142aa565b60006040518083038185875af1925050503d80600081146138aa576040519150601f19603f3d011682016040523d82523d6000602084013e6138af565b606091505b50509050806138d05760405162461bcd60e51b8152600401610e1e90614f3e565b505050565b60006060846001600160a01b031663a9059cbb8585604051602401612c4c929190614463565b8154600090821061391e5760405162461bcd60e51b8152600401610e1e90614824565b82600001828154811061392d57fe5b9060005260206000200154905092915050565b60009081526001919091016020526040902054151590565b5490565b60006139688383613940565b61399e5750815460018181018455600084815260208082209093018490558454848252828601909352604090209190915561232a565b50600061232a565b60008181526001830160205260408120548015613a6257835460001980830191908101906000908790839081106139d957fe5b90600052602060002001549050808760000184815481106139f657fe5b600091825260208083209091019290925582815260018981019092526040902090840190558654879080613a2657fe5b6001900381819060005260206000200160009055905586600101600087815260200190815260200160002060009055600194505050505061232a565b600091505061232a565b604080516060810182526000808252602082018190529181019190915290565b604080518082019091526000808252602082015290565b828054600181600116156101000203166002900490600052602060002090601f016020900481019282601f10613ae45782800160ff19823516178555613b11565b82800160010185558215613b11579182015b82811115613b11578235825591602001919060010190613af6565b50612ecd929150613c40565b828054600181600116156101000203166002900490600052602060002090601f016020900481019282601f10613b5e57805160ff1916838001178555613b11565b82800160010185558215613b11579182015b82811115613b11578251825591602001919060010190613b70565b828054600181600116156101000203166002900490600052602060002090601f016020900481019282601f10613bc45780548555613b11565b82800160010185558215613b1157600052602060002091601f016020900482015b82811115613b11578254825591600101919060010190613be5565b50805460018160011615610100020316600290046000825580601f10613c26575061136b565b601f01602090049060005260206000209081019061136b91905b5b80821115612ecd5760008155600101613c41565b803561232a8161534f565b60008083601f840112613c71578182fd5b5081356001600160401b03811115613c87578182fd5b60208301915083602080830285010111156120dc57600080fd5b60008083601f840112613cb2578182fd5b5081356001600160401b03811115613cc8578182fd5b6020830191508360208285010111156120dc57600080fd5b600060208284031215613cf1578081fd5b8135613cfc8161534f565b9392505050565b6000806000806000806000806000806000806101808d8f031215613d25578788fd5b8c35613d308161534f565b9b5060208d0135613d408161534f565b9a5060408d0135995060608d0135985060808d0135975060a08d0135613d658161534f565b965060c08d0135955060e08d013594506101008d0135613d848161534f565b93506101208d0135613d958161534f565b92506101408d0135613da68161534f565b9150613db68e6101608f01613c55565b90509295989b509295989b509295989b565b60008060408385031215613dda578182fd5b8235613de58161534f565b91506020830135613df581615364565b809150509250929050565b60008060008060008060008060008060006101608c8e031215613e21578081fd5b8b35613e2c8161534f565b9a5060208c0135613e3c8161534f565b995060408c0135985060608c0135975060808c0135965060a08c0135613e618161534f565b955060c08c0135945060e08c013593506101008c0135613e808161534f565b92506101208c0135613e918161534f565b91506101408c0135613ea28161534f565b809150509295989b509295989b9093969950565b6000806000806000806000806000806000806101808d8f031215613d25578586fd5b600080600060608486031215613eec578081fd5b8335613ef78161534f565b9250602084013591506040840135613f0e81615364565b809150509250925092565b600080600060408486031215613f2d578081fd5b83356001600160401b03811115613f42578182fd5b613f4e86828701613c60565b9094509250506020840135613f0e81615364565b60008060008060408587031215613f77578182fd5b84356001600160401b0380821115613f8d578384fd5b613f9988838901613c60565b90965094506020870135915080821115613fb1578384fd5b50613fbe87828801613c60565b95989497509550505050565b600060208284031215613fdb578081fd5b8135613cfc81615364565b600060208284031215613ff7578081fd5b8151613cfc81615364565b600060208284031215614013578081fd5b5035919050565b6000806040838503121561402c578182fd5b823591506020830135613df58161534f565b60008060408385031215614050578182fd5b50508035926020909101359150565b60008060208385031215614071578182fd5b82356001600160401b03811115614086578283fd5b61409285828601613ca1565b90969095509350505050565b600080600080600080600080610100898b0312156140ba578182fd5b88356140c58161534f565b975060208901356140d58161534f565b965060408901356140e58161534f565b9550606089013594506080890135935060a089013561410381615372565b979a969950949793969295929450505060c08201359160e0013590565b60008060008060408587031215614135578182fd5b84356001600160401b038082111561414b578384fd5b61415788838901613ca1565b9096509450602087013591508082111561416f578384fd5b50613fbe87828801613ca1565b60006020828403121561418d578081fd5b81516001600160401b03808211156141a3578283fd5b818401915084601f8301126141b6578283fd5b8151818111156141c4578384fd5b604051601f8201601f1916810160200183811182821017156141e4578586fd5b6040528181528382016020018710156141fb578485fd5b61420c826020830160208701615323565b9695505050505050565b600060208284031215614227578081fd5b5051919050565b60008060408385031215614240578182fd5b823591506020830135613df581615364565b600060208284031215614263578081fd5b8151613cfc81615372565b60008151808452614286816020860160208601615323565b601f01601f19169290920160200192915050565b6000828483379101908152919050565b600082516142bc818460208701615323565b9190910192915050565b60008083546001808216600081146142e557600181146142fc5761432b565b60ff198316865260028304607f168601935061432b565b600283048786526020808720875b838110156143235781548a82015290850190820161430a565b505050860193505b509195945050505050565b6001600160a01b0391909116815260200190565b6001600160a01b039384168152919092166020820152604081019190915260600190565b6001600160a01b0396871681529486166020860152604085019390935290841660608401528316608083015290911660a082015260c00190565b6001600160a01b039b8c168152998b1660208b015260408a01989098526060890196909652608088019490945291871660a087015260c086015260e0850152841661010084015283166101208301529091166101408201526101600190565b6001600160a01b0397881681529590961660208601526040850193909352606084019190915260ff16608083015260a082015260c081019190915260e00190565b6001600160a01b039290921682521515602082015260400190565b6001600160a01b03929092168252602082015260400190565b6001600160a01b039490941684526001600160401b039283166020850152911660408301521515606082015260800190565b604080825283519082018190526000906020906060840190828701845b828110156144e95781511515845292840192908401906001016144cb565b5050508381038285015280855161450081846145b3565b91508192508381028201848801865b8381101561453957858303855261452783835161426e565b9487019492509086019060010161450f565b50909998505050505050505050565b6000602080830181845280855180835260408601915060408482028701019250838701855b8281101561459b57603f1988860301845261458985835161426e565b9450928501929085019060010161456d565b5092979650505050505050565b901515815260200190565b90815260200190565b600060208252612327602083018461426e565b60006020825282602083015282846040840137818301604090810191909152601f909201601f19160101919050565b600060408252614611604083018561426e565b90508260208301529392505050565b6000602080830181845282855460018082166000811461464757600181146146655761469d565b60028304607f16855260ff198316604089015260608801935061469d565b600283048086526146758a615317565b885b828110156146935781548b820160400152908401908801614677565b8a01604001955050505b5091979650505050505050565b6020808252602d908201527f447574636841756374696f6e3a205061796d656e742063757272656e6379206960408201526c39903737ba1030903a37b5b2b760991b606082015260800190565b60208082526034908201527f447574636841756374696f6e3a20656e642074696d65206d757374206265206f6040820152736c646572207468616e2073746172742074696d6560601b606082015260800190565b602080825260159082015274426f72696e674d6174683a20556e646572666c6f7760581b604082015260600190565b6020808252818101527f447574636841756374696f6e3a204e6f20746f6b656e7320746f20636c61696d604082015260600190565b60208082526028908201527f447574636841756374696f6e3a2077616c6c657420697320746865207a65726f604082015267206164647265737360c01b606082015260800190565b602080825260139082015272105b1c9958591e481a5b9a5d1a585b1a5cd959606a1b604082015260600190565b60208082526022908201527f456e756d657261626c655365743a20696e646578206f7574206f6620626f756e604082015261647360f01b606082015260800190565b6020808252602f908201527f416363657373436f6e74726f6c3a2073656e646572206d75737420626520616e60408201526e0818591b5a5b881d1bc819dc985b9d608a1b606082015260800190565b6020808252602b908201527f447574636841756374696f6e3a205061796d656e742063757272656e6379206960408201526a073206e6f742045524332360ac1b606082015260800190565b6020808252600c908201526b155b985d5d1a1bdc9a5e995960a21b604082015260600190565b60208082526032908201527f447574636841756374696f6e3a206d696e696d756d207072696365206d75737460408201527102062652067726561746572207468616e20360741b606082015260800190565b60208082526033908201527f447574636841756374696f6e3a2054686520636f6d6d6974746564204554482060408201527265786365656473207468652062616c616e636560681b606082015260800190565b60208082526027908201527f447574636841756374696f6e3a2061756374696f6e20616c72656164792066696040820152661b985b1a5e995960ca1b606082015260800190565b60208082526041908201527f447574636841756374696f6e3a20656e74657220616e20756e69782074696d6560408201527f7374616d7020696e207365636f6e64732c206e6f74206d696c697365636f6e646060820152607360f81b608082015260a00190565b60208082526027908201527f447574636841756374696f6e3a2061756374696f6e20616c726561647920636f6040820152661b5b5a5d1d195960ca1b606082015260800190565b60208082526052908201527f4e6f2061677265656d656e742070726f76696465642c20706c6561736520726560408201527f766965772074686520736d61727420636f6e7472616374206265666f726520696060820152711b9d195c9858dd1a5b99c81dda5d1a081a5d60721b608082015260a00190565b602080825260119082015270105d58dd1a5bdb88199a5b985b1a5e9959607a1b604082015260600190565b6020808252602f908201527f447574636841756374696f6e3a2073746172742074696d65206973206265666f60408201526e72652063757272656e742074696d6560881b606082015260800190565b6020808252600c908201526b23a2aa1021a922a0a6a4a2a960a11b604082015260600190565b602080825260159082015274111bd8dd5b595b9d081cda1bdd5b1908195e1a5cdd605a1b604082015260600190565b60208082526034908201527f447574636841756374696f6e3a20746f74616c20746f6b656e73206d7573742060408201527362652067726561746572207468616e207a65726f60601b606082015260800190565b6020808252601c908201527f426f72696e674d6174683a2075696e74313238204f766572666c6f7700000000604082015260600190565b60208082526030908201527f416363657373436f6e74726f6c3a2073656e646572206d75737420626520616e60408201526f2061646d696e20746f207265766f6b6560801b606082015260800190565b6020808252600f908201526e139bdd081a5b9a5d1a585b1a5e9959608a1b604082015260600190565b60208082526018908201527f426f72696e674d6174683a20416464204f766572666c6f770000000000000000604082015260600190565b60208082526018908201527f5a65726f206e616d65206973206e6f7420616c6c6f7765640000000000000000604082015260600190565b6020808252600f908201526e125b98dbdc9c9958dd081a5b9c1d5d608a1b604082015260600190565b60208082526023908201527f447574636841756374696f6e3a206f7574736964652061756374696f6e20686f60408201526275727360e81b606082015260800190565b6020808252601b908201527f426f72696e674d6174683a2075696e743634204f766572666c6f770000000000604082015260600190565b60208082526031908201527f447574636841756374696f6e3a207061796d656e742063757272656e6379206960408201527073206e6f7420455448206164647265737360781b606082015260800190565b60208082526025908201527f447574636841756374696f6e3a2073656e646572206d75737420626520616e2060408201526430b236b4b760d91b606082015260800190565b60208082526035908201527f447574636841756374696f6e3a20656e642074696d65206d757374206265206f6040820152746c646572207468616e20737461727420707269636560581b606082015260800190565b6020808252601b908201527f447574636841756374696f6e3a206e6f742066696e616c697a65640000000000604082015260600190565b60208082526023908201527f5472616e7366657248656c7065723a204554485f5452414e534645525f46414960408201526213115160ea1b606082015260800190565b602080825260139082015272496e646578206f7574206f6620626f756e647360681b604082015260600190565b6020808252601a908201527f53686f756c64206e6f74206265206120656d7074792064617461000000000000604082015260600190565b6020808252602a908201527f447574636841756374696f6e3a2061756374696f6e20686173206e6f742066696040820152691b9a5cda1959081e595d60b21b606082015260800190565b6020808252602d908201527f447574636841756374696f6e3a20546f6b656e20646f6573206e6f742068617660408201526c6520313820646563696d616c7360981b606082015260800190565b6020808252601f908201527f5265656e7472616e637947756172643a207265656e7472616e742063616c6c00604082015260600190565b60208082526031908201527f447574636841756374696f6e3a2061756374696f6e2063616e6e6f74206861766040820152701948185b1c9958591e481cdd185c9d1959607a1b606082015260800190565b60208082526018908201527f426f72696e674d6174683a204d756c204f766572666c6f770000000000000000604082015260600190565b6020808252603b908201527f447574636841756374696f6e3a207374617274207072696365206d757374206260408201527f6520686967686572207468616e206d696e696d756d2070726963650000000000606082015260800190565b60208082526027908201527f447574636841756374696f6e3a2061646d696e20697320746865207a65726f206040820152666164647265737360c81b606082015260800190565b6020808252602f908201527f416363657373436f6e74726f6c3a2063616e206f6e6c792072656e6f756e636560408201526e103937b632b9903337b91039b2b63360891b606082015260800190565b602080825260149082015273426f72696e674d6174683a20446976207a65726f60601b604082015260600190565b6001600160801b0393909316835290151560208301521515604082015260600190565b6001600160801b0392831681529116602082015260400190565b918252602082015260400190565b6001600160401b0393841681529190921660208201526001600160801b03909116604082015260600190565b6000808335601e198436030181126152e9578283fd5b8301803591506001600160401b03821115615302578283fd5b6020019150368190038213156120dc57600080fd5b60009081526020902090565b60005b8381101561533e578181015183820152602001615326565b8381111561122e5750506000910152565b6001600160a01b038116811461136b57600080fd5b801515811461136b57600080fd5b60ff8116811461136b57600080fdfe9d49f397ae9ef1a834b569acb967799a367061e305932181a44f5773da873bfd97667070c54ef182b0f5858b034beac1b6f3089aa2d3188bb1e8929f4fa9b9299f2df0fed2c77648de5860a4cc508cd0818c85b8b8a1ab4ceeef8d981c8956a64920756e6465727374616e6420746861742049276d20696e746572616374696e672077697468206120736d61727420636f6e74726163742e204920756e6465727374616e64207468617420746f6b656e7320636f6d6d697474656420617265207375626a65637420746f2074686520746f6b656e2069737375657220616e64206c6f63616c206c617773207768657265206170706c696361626c652e204920726576696577656420636f6465206f662074686520736d61727420636f6e747261637420616e6420756e6465727374616e642069742066756c6c792e204920616772656520746f206e6f7420686f6c6420646576656c6f70657273206f72206f746865722070656f706c65206173736f6369617465642077697468207468652070726f6a656374206c6961626c6520666f7220616e79206c6f73736573206f72206d6973756e6465727374616e64696e6773a26469706673582212200c3bafee914df92876b602806a50abaa7bda671da1ab2dc45724b85818843d6d64736f6c634300060c0033",
  "devdoc": {
    "kind": "dev",
    "methods": {
      "addAdminRole(address)": {
        "details": "The sender must have the admin role.",
        "params": {
          "_address": "EOA or contract receiving the new role."
        }
      },
      "addMinterRole(address)": {
        "details": "The sender must have the admin role",
        "params": {
          "_address": "EOA or contract receiving the new role"
        }
      },
      "addOperatorRole(address)": {
        "details": "The sender must have the admin role",
        "params": {
          "_address": "EOA or contract receiving the new role"
        }
      },
      "addSmartContractRole(address)": {
        "details": "The sender must have the admin role",
        "params": {
          "_address": "EOA or contract receiving the new role"
        }
      },
      "auctionEnded()": {
        "returns": {
          "_0": "True if auction is successful or time has ended."
        }
      },
      "auctionSuccessful()": {
        "returns": {
          "_0": "True if tokenPrice is bigger or equal clearingPrice."
        }
      },
      "batch(bytes[],bool)": {
        "params": {
          "calls": "An array of inputs for each call.",
          "revertOnFail": "If True then reverts after a failed call and stops doing further calls."
        },
        "returns": {
          "results": "An array with the returned data of each function call, mapped one-to-one to `calls`.",
          "successes": "An array indicating the success of a call, mapped one-to-one to `calls`."
        }
      },
      "calculateCommitment(uint256)": {
        "params": {
          "_commitment": "Commitment user would like to make."
        },
        "returns": {
          "committed": "Amount allowed to commit."
        }
      },
      "cancelAuction()": {
        "details": "Admin can cancel the auction before it starts"
      },
      "clearingPrice()": {
        "returns": {
          "_0": "The bigger from tokenPrice and priceFunction."
        }
      },
      "commitEth(address,bool)": {
        "params": {
          "_beneficiary": "Auction participant ETH address."
        }
      },
      "commitTokens(uint256,bool)": {
        "params": {
          "_amount": "Amount of tokens to commit."
        }
      },
      "commitTokensFrom(address,uint256,bool)": {
        "details": "Users must approve contract prior to committing tokens to auction.",
        "params": {
          "_amount": "Amount of approved ERC20 tokens.",
          "_from": "User ERC20 address."
        }
      },
      "finalize()": {
        "details": "Transfer contract funds to initialized wallet."
      },
      "finalizeTimeExpired()": {
        "returns": {
          "_0": "Returns true if 7 days have passed since the end of the auction"
        }
      },
      "finalized()": {
        "returns": {
          "_0": "Returns true if market has been finalized"
        }
      },
      "getAllDocuments()": {
        "returns": {
          "_0": "string List of all documents names present in the contract."
        }
      },
      "getAuctionInitData(address,address,uint256,uint256,uint256,address,uint256,uint256,address,address,address)": {
        "params": {
          "_admin": "Address that can finalize auction.",
          "_endTime": "Auction end time.",
          "_funder": "The address that funds the token for DutchAuction.",
          "_minimumPrice": "The minimum auction price.",
          "_paymentCurrency": "The currency the DutchAuction accepts for payment. Can be ETH or token address.",
          "_pointList": "Address that will manage auction approvals.",
          "_startPrice": "Starting price of the auction.",
          "_startTime": "Auction start time.",
          "_token": "Address of the token being sold.",
          "_totalTokens": "The total number of tokens to sell in auction.",
          "_wallet": "Address where collected funds will be forwarded to."
        },
        "returns": {
          "_data": "All the data in bytes format."
        }
      },
      "getDocument(string)": {
        "params": {
          "_name": "Name of the document"
        },
        "returns": {
          "_0": "string The data associated with the document.",
          "_1": "uint256 the timestamp at which the document was last modified."
        }
      },
      "getDocumentCount()": {
        "returns": {
          "_0": "uint256 Count of the document names present in the contract."
        }
      },
      "getDocumentName(uint256)": {
        "returns": {
          "_0": "string Name of the document name."
        }
      },
      "getRoleAdmin(bytes32)": {
        "details": "Returns the admin role that controls `role`. See {grantRole} and {revokeRole}. To change a role's admin, use {_setRoleAdmin}."
      },
      "getRoleMember(bytes32,uint256)": {
        "details": "Returns one of the accounts that have `role`. `index` must be a value between 0 and {getRoleMemberCount}, non-inclusive. Role bearers are not sorted in any particular way, and their ordering may change at any point. WARNING: When using {getRoleMember} and {getRoleMemberCount}, make sure you perform all queries on the same block. See the following https://forum.openzeppelin.com/t/iterating-over-elements-on-enumerableset-in-openzeppelin-contracts/2296[forum post] for more information."
      },
      "getRoleMemberCount(bytes32)": {
        "details": "Returns the number of accounts that have `role`. Can be used together with {getRoleMember} to enumerate all bearers of a role."
      },
      "grantRole(bytes32,address)": {
        "details": "Grants `role` to `account`. If `account` had not been already granted `role`, emits a {RoleGranted} event. Requirements: - the caller must have ``role``'s admin role."
      },
      "hasAdminRole(address)": {
        "params": {
          "_address": "EOA or contract being checked."
        },
        "returns": {
          "_0": "bool True if the account has the role or false if it does not."
        }
      },
      "hasMinterRole(address)": {
        "params": {
          "_address": "EOA or contract being checked"
        },
        "returns": {
          "_0": "bool True if the account has the role or false if it does not"
        }
      },
      "hasOperatorRole(address)": {
        "params": {
          "_address": "EOA or contract being checked"
        },
        "returns": {
          "_0": "bool True if the account has the role or false if it does not"
        }
      },
      "hasRole(bytes32,address)": {
        "details": "Returns `true` if `account` has been granted `role`."
      },
      "hasSmartContractRole(address)": {
        "params": {
          "_address": "EOA or contract being checked"
        },
        "returns": {
          "_0": "bool True if the account has the role or false if it does not"
        }
      },
      "init(bytes)": {
        "params": {
          "_data": "Encoded data for initialization."
        }
      },
      "initAccessControls(address)": {
        "params": {
          "_admin": "Admins address."
        }
      },
      "initAuction(address,address,uint256,uint256,uint256,address,uint256,uint256,address,address,address,address)": {
        "details": "Init function.",
        "params": {
          "_admin": "Address that can finalize auction.",
          "_endTime": "Auction end time.",
          "_funder": "The address that funds the token for DutchAuction.",
          "_minimumPrice": "The minimum auction price.",
          "_paymentCurrency": "The currency the DutchAuction accepts for payment. Can be ETH or token address.",
          "_pointList": "Address that will manage auction approvals.",
          "_startPrice": "Starting price of the auction.",
          "_startTime": "Auction start time.",
          "_token": "Address of the token being sold.",
          "_totalTokens": "The total number of tokens to sell in auction.",
          "_wallet": "Address where collected funds will be forwarded to."
        }
      },
      "isOpen()": {
        "returns": {
          "_0": "True if current time is greater than startTime and less than endTime."
        }
      },
      "marketParticipationAgreement()": {
        "details": "Attribution to the awesome delta.financial contracts"
      },
      "priceDrop()": {
        "returns": {
          "_0": "Value calculated from auction start and end price difference divided the auction duration."
        }
      },
      "priceFunction()": {
        "returns": {
          "_0": "Fixed start price or minimum price if outside of auction time, otherwise calculated current price."
        }
      },
      "removeAdminRole(address)": {
        "details": "The sender must have the admin role.",
        "params": {
          "_address": "EOA or contract affected."
        }
      },
      "removeMinterRole(address)": {
        "details": "The sender must have the admin role",
        "params": {
          "_address": "EOA or contract affected"
        }
      },
      "removeOperatorRole(address)": {
        "details": "The sender must have the admin role",
        "params": {
          "_address": "EOA or contract affected"
        }
      },
      "removeSmartContractRole(address)": {
        "details": "The sender must have the admin role",
        "params": {
          "_address": "EOA or contract affected"
        }
      },
      "renounceRole(bytes32,address)": {
        "details": "Revokes `role` from the calling account. Roles are often managed via {grantRole} and {revokeRole}: this function's purpose is to provide a mechanism for accounts to lose their privileges if they are compromised (such as when a trusted device is misplaced). If the calling account had been granted `role`, emits a {RoleRevoked} event. Requirements: - the caller must be `account`."
      },
      "revokeRole(bytes32,address)": {
        "details": "Revokes `role` from `account`. If `account` had been granted `role`, emits a {RoleRevoked} event. Requirements: - the caller must have ``role``'s admin role."
      },
      "setAuctionPrice(uint256,uint256)": {
        "params": {
          "_minimumPrice": "Auction minimum price.",
          "_startPrice": "Auction start price."
        }
      },
      "setAuctionTime(uint256,uint256)": {
        "params": {
          "_endTime": "Auction end time.",
          "_startTime": "Auction start time."
        }
      },
      "setAuctionWallet(address)": {
        "params": {
          "_wallet": "Auction wallet is where funds will be sent."
        }
      },
      "tokenPrice()": {
        "returns": {
          "_0": "Average token price."
        }
      },
      "tokensClaimable(address)": {
        "params": {
          "_user": "Auction participant address."
        },
        "returns": {
          "claimerCommitment": "User commitments reduced by already claimed tokens."
        }
      },
      "totalTokensCommitted()": {
        "returns": {
          "_0": "Number of tokens committed."
        }
      },
      "withdrawTokens(address)": {
        "details": "Withdraw tokens only after auction ends.",
        "params": {
          "beneficiary": "Whose tokens will be withdrawn."
        }
      }
    },
    "stateVariables": {
      "ETH_ADDRESS": {
        "details": "The placeholder ETH address."
      },
      "marketTemplate": {
        "details": "For different marketplace types, this must be incremented."
      }
    },
    "version": 1
  },
  "userdoc": {
    "events": {
      "AddedCommitment(address,uint256)": {
        "notice": "Event for adding a commitment."
      },
      "AuctionCancelled()": {
        "notice": "Event for cancellation of the auction."
      },
      "AuctionDeployed(address,address,uint256,address,address,address)": {
        "notice": "Event for all auction data. Emmited on deployment."
      },
      "AuctionFinalized()": {
        "notice": "Event for finalization of the auction."
      },
      "AuctionPointListUpdated(address,bool)": {
        "notice": "Event for updating the point list."
      },
      "AuctionPriceUpdated(uint256,uint256)": {
        "notice": "Event for updating auction prices. Needs to be before auction starts."
      },
      "AuctionTimeUpdated(uint256,uint256)": {
        "notice": "Event for updating auction times.  Needs to be before auction starts."
      },
      "AuctionWalletUpdated(address)": {
        "notice": "Event for updating auction wallet. Needs to be before auction starts."
      },
      "TokensWithdrawn(address,address,uint256)": {
        "notice": "Event for token withdrawals."
      }
    },
    "kind": "user",
    "methods": {
      "MINTER_ROLE()": {
        "notice": "Role definitions"
      },
      "addAdminRole(address)": {
        "notice": "Grants the admin role to an address."
      },
      "addMinterRole(address)": {
        "notice": "Grants the minter role to an address"
      },
      "addOperatorRole(address)": {
        "notice": "Grants the operator role to an address"
      },
      "addSmartContractRole(address)": {
        "notice": "Grants the smart contract role to an address"
      },
      "auctionEnded()": {
        "notice": "Checks if the auction has ended."
      },
      "auctionSuccessful()": {
        "notice": "Successful if tokens sold equals totalTokens."
      },
      "auctionToken()": {
        "notice": "The token being sold."
      },
      "batch(bytes[],bool)": {
        "notice": "Allows batched call to self (this contract)."
      },
      "calculateCommitment(uint256)": {
        "notice": "Calculates the amount able to be committed during an auction."
      },
      "cancelAuction()": {
        "notice": "Cancel Auction"
      },
      "claimed(address)": {
        "notice": "Amount of tokens to claim per address."
      },
      "clearingPrice()": {
        "notice": "The current clearing price of the Dutch auction."
      },
      "commitEth(address,bool)": {
        "notice": "Checks the amount of ETH to commit and adds the commitment. Refunds the buyer if commit is too high."
      },
      "commitTokens(uint256,bool)": {
        "notice": "Buy Tokens by commiting approved ERC20 tokens to this contract address."
      },
      "commitTokensFrom(address,uint256,bool)": {
        "notice": "Checks how much is user able to commit and processes that commitment."
      },
      "commitments(address)": {
        "notice": "The committed amount of accounts."
      },
      "finalize()": {
        "notice": "Auction finishes successfully above the reserve."
      },
      "getAllDocuments()": {
        "notice": "Used to retrieve a full list of documents attached to the smart contract."
      },
      "getAuctionInitData(address,address,uint256,uint256,uint256,address,uint256,uint256,address,address,address)": {
        "notice": "Collects data to initialize the auction and encodes them."
      },
      "getDocument(string)": {
        "notice": "Used to return the details of a document with a known name (`string`)."
      },
      "getDocumentCount()": {
        "notice": "Used to retrieve the total documents in the smart contract."
      },
      "getDocumentName(uint256)": {
        "notice": "Used to retrieve the document name from index in the smart contract."
      },
      "hasAdminRole(address)": {
        "notice": "Used to check whether an address has the admin role."
      },
      "hasMinterRole(address)": {
        "notice": "Used to check whether an address has the minter role"
      },
      "hasOperatorRole(address)": {
        "notice": "Used to check whether an address has the operator role"
      },
      "hasSmartContractRole(address)": {
        "notice": "Used to check whether an address has the smart contract role"
      },
      "init(bytes)": {
        "notice": "Decodes and hands auction data to the initAuction function."
      },
      "initAccessControls(address)": {
        "notice": "Initializes access controls."
      },
      "initAuction(address,address,uint256,uint256,uint256,address,uint256,uint256,address,address,address,address)": {
        "notice": "Initializes main contract variables and transfers funds for the auction."
      },
      "isOpen()": {
        "notice": "Checks if the auction is open."
      },
      "marketTemplate()": {
        "notice": "MISOMarket template id for the factory contract."
      },
      "paymentCurrency()": {
        "notice": "The currency the auction accepts for payment. Can be ETH or token address."
      },
      "permitToken(address,address,address,uint256,uint256,uint8,bytes32,bytes32)": {
        "notice": "Call wrapper that performs `ERC20.permit` on `token`. Lookup `IERC20.permit`."
      },
      "pointList()": {
        "notice": "Address that manages auction approvals."
      },
      "priceDrop()": {
        "notice": "Calculates the pricedrop factor."
      },
      "priceFunction()": {
        "notice": "Returns auction price in any time."
      },
      "removeAdminRole(address)": {
        "notice": "Removes the admin role from an address."
      },
      "removeMinterRole(address)": {
        "notice": "Removes the minter role from an address"
      },
      "removeOperatorRole(address)": {
        "notice": "Removes the operator role from an address"
      },
      "removeSmartContractRole(address)": {
        "notice": "Removes the smart contract role from an address"
      },
      "setAuctionPrice(uint256,uint256)": {
        "notice": "Admin can set start and min price through this function."
      },
      "setAuctionTime(uint256,uint256)": {
        "notice": "Admin can set start and end time through this function."
      },
      "setAuctionWallet(address)": {
        "notice": "Admin can set the auction wallet through this function."
      },
      "tokenPrice()": {
        "notice": "Calculates the average price of each token from all commitments."
      },
      "tokensClaimable(address)": {
        "notice": "How many tokens the user is able to claim."
      },
      "totalTokensCommitted()": {
        "notice": "Calculates total amount of tokens committed at current auction price."
      },
      "wallet()": {
        "notice": "Where the auction funds will get paid."
      },
      "withdrawTokens()": {
        "notice": "Withdraws bought tokens, or returns commitment if the sale is unsuccessful."
      },
      "withdrawTokens(address)": {
        "notice": "Withdraws bought tokens, or returns commitment if the sale is unsuccessful."
      }
    },
    "notice": "Attribution to delta.financialAttribution to dutchswap.com",
    "version": 1
  },
  "storageLayout": {
    "storage": [
      {
        "astId": 3349,
        "contract": "contracts/Auctions/DutchAuction.sol:DutchAuction",
        "label": "_roles",
        "offset": 0,
        "slot": "0",
        "type": "t_mapping(t_bytes32,t_struct(RoleData)3345_storage)"
      },
      {
        "astId": 468,
        "contract": "contracts/Auctions/DutchAuction.sol:DutchAuction",
        "label": "initAccess",
        "offset": 0,
        "slot": "1",
        "type": "t_bool"
      },
      {
        "astId": 6211,
        "contract": "contracts/Auctions/DutchAuction.sol:DutchAuction",
        "label": "_documents",
        "offset": 0,
        "slot": "2",
        "type": "t_mapping(t_string_memory_ptr,t_struct(Document)6207_storage)"
      },
      {
        "astId": 6215,
        "contract": "contracts/Auctions/DutchAuction.sol:DutchAuction",
        "label": "_docIndexes",
        "offset": 0,
        "slot": "3",
        "type": "t_mapping(t_string_memory_ptr,t_uint32)"
      },
      {
        "astId": 6218,
        "contract": "contracts/Auctions/DutchAuction.sol:DutchAuction",
        "label": "_docNames",
        "offset": 0,
        "slot": "4",
        "type": "t_array(t_string_storage)dyn_storage"
      },
      {
        "astId": 5358,
        "contract": "contracts/Auctions/DutchAuction.sol:DutchAuction",
        "label": "_status",
        "offset": 0,
        "slot": "5",
        "type": "t_uint256"
      },
      {
        "astId": 595,
        "contract": "contracts/Auctions/DutchAuction.sol:DutchAuction",
        "label": "fee",
        "offset": 0,
        "slot": "6",
        "type": "t_uint256"
      },
      {
        "astId": 600,
        "contract": "contracts/Auctions/DutchAuction.sol:DutchAuction",
        "label": "feeWallet",
        "offset": 0,
        "slot": "7",
        "type": "t_address_payable"
      },
      {
        "astId": 602,
        "contract": "contracts/Auctions/DutchAuction.sol:DutchAuction",
        "label": "gatekeeper",
        "offset": 0,
        "slot": "8",
        "type": "t_contract(IGatekeeper)7378"
      },
      {
        "astId": 611,
        "contract": "contracts/Auctions/DutchAuction.sol:DutchAuction",
        "label": "marketInfo",
        "offset": 0,
        "slot": "9",
        "type": "t_struct(MarketInfo)609_storage"
      },
      {
        "astId": 618,
        "contract": "contracts/Auctions/DutchAuction.sol:DutchAuction",
        "label": "marketPrice",
        "offset": 0,
        "slot": "10",
        "type": "t_struct(MarketPrice)616_storage"
      },
      {
        "astId": 627,
        "contract": "contracts/Auctions/DutchAuction.sol:DutchAuction",
        "label": "marketStatus",
        "offset": 0,
        "slot": "11",
        "type": "t_struct(MarketStatus)625_storage"
      },
      {
        "astId": 630,
        "contract": "contracts/Auctions/DutchAuction.sol:DutchAuction",
        "label": "auctionToken",
        "offset": 0,
        "slot": "12",
        "type": "t_address"
      },
      {
        "astId": 633,
        "contract": "contracts/Auctions/DutchAuction.sol:DutchAuction",
        "label": "paymentCurrency",
        "offset": 0,
        "slot": "13",
        "type": "t_address"
      },
      {
        "astId": 636,
        "contract": "contracts/Auctions/DutchAuction.sol:DutchAuction",
        "label": "wallet",
        "offset": 0,
        "slot": "14",
        "type": "t_address_payable"
      },
      {
        "astId": 639,
        "contract": "contracts/Auctions/DutchAuction.sol:DutchAuction",
        "label": "pointList",
        "offset": 0,
        "slot": "15",
        "type": "t_address"
      },
      {
        "astId": 644,
        "contract": "contracts/Auctions/DutchAuction.sol:DutchAuction",
        "label": "commitments",
        "offset": 0,
        "slot": "16",
        "type": "t_mapping(t_address,t_uint256)"
      },
      {
        "astId": 649,
        "contract": "contracts/Auctions/DutchAuction.sol:DutchAuction",
        "label": "claimed",
        "offset": 0,
        "slot": "17",
        "type": "t_mapping(t_address,t_uint256)"
      }
    ],
    "types": {
      "t_address": {
        "encoding": "inplace",
        "label": "address",
        "numberOfBytes": "20"
      },
      "t_address_payable": {
        "encoding": "inplace",
        "label": "address payable",
        "numberOfBytes": "20"
      },
      "t_array(t_bytes32)dyn_storage": {
        "base": "t_bytes32",
        "encoding": "dynamic_array",
        "label": "bytes32[]",
        "numberOfBytes": "32"
      },
      "t_array(t_string_storage)dyn_storage": {
        "base": "t_string_storage",
        "encoding": "dynamic_array",
        "label": "string[]",
        "numberOfBytes": "32"
      },
      "t_bool": {
        "encoding": "inplace",
        "label": "bool",
        "numberOfBytes": "1"
      },
      "t_bytes32": {
        "encoding": "inplace",
        "label": "bytes32",
        "numberOfBytes": "32"
      },
      "t_contract(IGatekeeper)7378": {
        "encoding": "inplace",
        "label": "contract IGatekeeper",
        "numberOfBytes": "20"
      },
      "t_mapping(t_address,t_uint256)": {
        "encoding": "mapping",
        "key": "t_address",
        "label": "mapping(address => uint256)",
        "numberOfBytes": "32",
        "value": "t_uint256"
      },
      "t_mapping(t_bytes32,t_struct(RoleData)3345_storage)": {
        "encoding": "mapping",
        "key": "t_bytes32",
        "label": "mapping(bytes32 => struct AccessControl.RoleData)",
        "numberOfBytes": "32",
        "value": "t_struct(RoleData)3345_storage"
      },
      "t_mapping(t_bytes32,t_uint256)": {
        "encoding": "mapping",
        "key": "t_bytes32",
        "label": "mapping(bytes32 => uint256)",
        "numberOfBytes": "32",
        "value": "t_uint256"
      },
      "t_mapping(t_string_memory_ptr,t_struct(Document)6207_storage)": {
        "encoding": "mapping",
        "key": "t_string_memory_ptr",
        "label": "mapping(string => struct Documents.Document)",
        "numberOfBytes": "32",
        "value": "t_struct(Document)6207_storage"
      },
      "t_mapping(t_string_memory_ptr,t_uint32)": {
        "encoding": "mapping",
        "key": "t_string_memory_ptr",
        "label": "mapping(string => uint32)",
        "numberOfBytes": "32",
        "value": "t_uint32"
      },
      "t_string_memory_ptr": {
        "encoding": "bytes",
        "label": "string",
        "numberOfBytes": "32"
      },
      "t_string_storage": {
        "encoding": "bytes",
        "label": "string",
        "numberOfBytes": "32"
      },
      "t_struct(AddressSet)5039_storage": {
        "encoding": "inplace",
        "label": "struct EnumerableSet.AddressSet",
        "members": [
          {
            "astId": 5038,
            "contract": "contracts/Auctions/DutchAuction.sol:DutchAuction",
            "label": "_inner",
            "offset": 0,
            "slot": "0",
            "type": "t_struct(Set)4774_storage"
          }
        ],
        "numberOfBytes": "64"
      },
      "t_struct(Document)6207_storage": {
        "encoding": "inplace",
        "label": "struct Documents.Document",
        "members": [
          {
            "astId": 6202,
            "contract": "contracts/Auctions/DutchAuction.sol:DutchAuction",
            "label": "docIndex",
            "offset": 0,
            "slot": "0",
            "type": "t_uint32"
          },
          {
            "astId": 6204,
            "contract": "contracts/Auctions/DutchAuction.sol:DutchAuction",
            "label": "lastModified",
            "offset": 4,
            "slot": "0",
            "type": "t_uint64"
          },
          {
            "astId": 6206,
            "contract": "contracts/Auctions/DutchAuction.sol:DutchAuction",
            "label": "data",
            "offset": 0,
            "slot": "1",
            "type": "t_string_storage"
          }
        ],
        "numberOfBytes": "64"
      },
      "t_struct(MarketInfo)609_storage": {
        "encoding": "inplace",
        "label": "struct DutchAuction.MarketInfo",
        "members": [
          {
            "astId": 604,
            "contract": "contracts/Auctions/DutchAuction.sol:DutchAuction",
            "label": "startTime",
            "offset": 0,
            "slot": "0",
            "type": "t_uint64"
          },
          {
            "astId": 606,
            "contract": "contracts/Auctions/DutchAuction.sol:DutchAuction",
            "label": "endTime",
            "offset": 8,
            "slot": "0",
            "type": "t_uint64"
          },
          {
            "astId": 608,
            "contract": "contracts/Auctions/DutchAuction.sol:DutchAuction",
            "label": "totalTokens",
            "offset": 16,
            "slot": "0",
            "type": "t_uint128"
          }
        ],
        "numberOfBytes": "32"
      },
      "t_struct(MarketPrice)616_storage": {
        "encoding": "inplace",
        "label": "struct DutchAuction.MarketPrice",
        "members": [
          {
            "astId": 613,
            "contract": "contracts/Auctions/DutchAuction.sol:DutchAuction",
            "label": "startPrice",
            "offset": 0,
            "slot": "0",
            "type": "t_uint128"
          },
          {
            "astId": 615,
            "contract": "contracts/Auctions/DutchAuction.sol:DutchAuction",
            "label": "minimumPrice",
            "offset": 16,
            "slot": "0",
            "type": "t_uint128"
          }
        ],
        "numberOfBytes": "32"
      },
      "t_struct(MarketStatus)625_storage": {
        "encoding": "inplace",
        "label": "struct DutchAuction.MarketStatus",
        "members": [
          {
            "astId": 620,
            "contract": "contracts/Auctions/DutchAuction.sol:DutchAuction",
            "label": "commitmentsTotal",
            "offset": 0,
            "slot": "0",
            "type": "t_uint128"
          },
          {
            "astId": 622,
            "contract": "contracts/Auctions/DutchAuction.sol:DutchAuction",
            "label": "finalized",
            "offset": 16,
            "slot": "0",
            "type": "t_bool"
          },
          {
            "astId": 624,
            "contract": "contracts/Auctions/DutchAuction.sol:DutchAuction",
            "label": "usePointList",
            "offset": 17,
            "slot": "0",
            "type": "t_bool"
          }
        ],
        "numberOfBytes": "32"
      },
      "t_struct(RoleData)3345_storage": {
        "encoding": "inplace",
        "label": "struct AccessControl.RoleData",
        "members": [
          {
            "astId": 3342,
            "contract": "contracts/Auctions/DutchAuction.sol:DutchAuction",
            "label": "members",
            "offset": 0,
            "slot": "0",
            "type": "t_struct(AddressSet)5039_storage"
          },
          {
            "astId": 3344,
            "contract": "contracts/Auctions/DutchAuction.sol:DutchAuction",
            "label": "adminRole",
            "offset": 0,
            "slot": "2",
            "type": "t_bytes32"
          }
        ],
        "numberOfBytes": "96"
      },
      "t_struct(Set)4774_storage": {
        "encoding": "inplace",
        "label": "struct EnumerableSet.Set",
        "members": [
          {
            "astId": 4769,
            "contract": "contracts/Auctions/DutchAuction.sol:DutchAuction",
            "label": "_values",
            "offset": 0,
            "slot": "0",
            "type": "t_array(t_bytes32)dyn_storage"
          },
          {
            "astId": 4773,
            "contract": "contracts/Auctions/DutchAuction.sol:DutchAuction",
            "label": "_indexes",
            "offset": 0,
            "slot": "1",
            "type": "t_mapping(t_bytes32,t_uint256)"
          }
        ],
        "numberOfBytes": "64"
      },
      "t_uint128": {
        "encoding": "inplace",
        "label": "uint128",
        "numberOfBytes": "16"
      },
      "t_uint256": {
        "encoding": "inplace",
        "label": "uint256",
        "numberOfBytes": "32"
      },
      "t_uint32": {
        "encoding": "inplace",
        "label": "uint32",
        "numberOfBytes": "4"
      },
      "t_uint64": {
        "encoding": "inplace",
        "label": "uint64",
        "numberOfBytes": "8"
      }
    }
  }
}