{
  "address": "0x8F88148cB7af5c79eaE36e3483eE711398FC69AF",
  "abi": [
    {
      "anonymous": false,
      "inputs": [
        {
          "indexed": false,
          "internalType": "address",
          "name": "addr",
          "type": "address"
        },
        {
          "indexed": false,
          "internalType": "uint256",
          "name": "commitment",
          "type": "uint256"
        }
      ],
      "name": "AddedCommitment",
      "type": "event"
    },
    {
      "anonymous": false,
      "inputs": [],
      "name": "AuctionCancelled",
      "type": "event"
    },
    {
      "anonymous": false,
      "inputs": [
        {
          "indexed": false,
          "internalType": "address",
          "name": "funder",
          "type": "address"
        },
        {
          "indexed": false,
          "internalType": "address",
          "name": "token",
          "type": "address"
        },
        {
          "indexed": false,
          "internalType": "uint256",
          "name": "totalTokens",
          "type": "uint256"
        },
        {
          "indexed": false,
          "internalType": "address",
          "name": "paymentCurrency",
          "type": "address"
        },
        {
          "indexed": false,
          "internalType": "address",
          "name": "admin",
          "type": "address"
        },
        {
          "indexed": false,
          "internalType": "address",
          "name": "wallet",
          "type": "address"
        }
      ],
      "name": "AuctionDeployed",
      "type": "event"
    },
    {
      "anonymous": false,
      "inputs": [],
      "name": "AuctionFinalized",
      "type": "event"
    },
    {
      "anonymous": false,
      "inputs": [
        {
          "indexed": false,
          "internalType": "address",
          "name": "pointList",
          "type": "address"
        },
        {
          "indexed": false,
          "internalType": "bool",
          "name": "enabled",
          "type": "bool"
        }
      ],
      "name": "AuctionPointListUpdated",
      "type": "event"
    },
    {
      "anonymous": false,
      "inputs": [
        {
          "indexed": false,
          "internalType": "uint256",
          "name": "startPrice",
          "type": "uint256"
        },
        {
          "indexed": false,
          "internalType": "uint256",
          "name": "minimumPrice",
          "type": "uint256"
        }
      ],
      "name": "AuctionPriceUpdated",
      "type": "event"
    },
    {
      "anonymous": false,
      "inputs": [
        {
          "indexed": false,
          "internalType": "uint256",
          "name": "startTime",
          "type": "uint256"
        },
        {
          "indexed": false,
          "internalType": "uint256",
          "name": "endTime",
          "type": "uint256"
        }
      ],
      "name": "AuctionTimeUpdated",
      "type": "event"
    },
    {
      "anonymous": false,
      "inputs": [
        {
          "indexed": false,
          "internalType": "address",
          "name": "wallet",
          "type": "address"
        }
      ],
      "name": "AuctionWalletUpdated",
      "type": "event"
    },
    {
      "anonymous": false,
      "inputs": [
        {
          "indexed": true,
          "internalType": "string",
          "name": "_name",
          "type": "string"
        },
        {
          "indexed": false,
          "internalType": "string",
          "name": "_data",
          "type": "string"
        }
      ],
      "name": "DocumentRemoved",
      "type": "event"
    },
    {
      "anonymous": false,
      "inputs": [
        {
          "indexed": true,
          "internalType": "string",
          "name": "_name",
          "type": "string"
        },
        {
          "indexed": false,
          "internalType": "string",
          "name": "_data",
          "type": "string"
        }
      ],
      "name": "DocumentUpdated",
      "type": "event"
    },
    {
      "anonymous": false,
      "inputs": [
        {
          "indexed": true,
          "internalType": "bytes32",
          "name": "role",
          "type": "bytes32"
        },
        {
          "indexed": true,
          "internalType": "bytes32",
          "name": "previousAdminRole",
          "type": "bytes32"
        },
        {
          "indexed": true,
          "internalType": "bytes32",
          "name": "newAdminRole",
          "type": "bytes32"
        }
      ],
      "name": "RoleAdminChanged",
      "type": "event"
    },
    {
      "anonymous": false,
      "inputs": [
        {
          "indexed": true,
          "internalType": "bytes32",
          "name": "role",
          "type": "bytes32"
        },
        {
          "indexed": true,
          "internalType": "address",
          "name": "account",
          "type": "address"
        },
        {
          "indexed": true,
          "internalType": "address",
          "name": "sender",
          "type": "address"
        }
      ],
      "name": "RoleGranted",
      "type": "event"
    },
    {
      "anonymous": false,
      "inputs": [
        {
          "indexed": true,
          "internalType": "bytes32",
          "name": "role",
          "type": "bytes32"
        },
        {
          "indexed": true,
          "internalType": "address",
          "name": "account",
          "type": "address"
        },
        {
          "indexed": true,
          "internalType": "address",
          "name": "sender",
          "type": "address"
        }
      ],
      "name": "RoleRevoked",
      "type": "event"
    },
    {
      "anonymous": false,
      "inputs": [
        {
          "indexed": false,
          "internalType": "address",
          "name": "token",
          "type": "address"
        },
        {
          "indexed": false,
          "internalType": "address",
          "name": "to",
          "type": "address"
        },
        {
          "indexed": false,
          "internalType": "uint256",
          "name": "amount",
          "type": "uint256"
        }
      ],
      "name": "TokensWithdrawn",
      "type": "event"
    },
    {
      "inputs": [],
      "name": "DEFAULT_ADMIN_ROLE",
      "outputs": [
        {
          "internalType": "bytes32",
          "name": "",
          "type": "bytes32"
        }
      ],
      "stateMutability": "view",
      "type": "function"
    },
    {
      "inputs": [],
      "name": "MINTER_ROLE",
      "outputs": [
        {
          "internalType": "bytes32",
          "name": "",
          "type": "bytes32"
        }
      ],
      "stateMutability": "view",
      "type": "function"
    },
    {
      "inputs": [],
      "name": "OPERATOR_ROLE",
      "outputs": [
        {
          "internalType": "bytes32",
          "name": "",
          "type": "bytes32"
        }
      ],
      "stateMutability": "view",
      "type": "function"
    },
    {
      "inputs": [],
      "name": "SMART_CONTRACT_ROLE",
      "outputs": [
        {
          "internalType": "bytes32",
          "name": "",
          "type": "bytes32"
        }
      ],
      "stateMutability": "view",
      "type": "function"
    },
    {
      "inputs": [],
      "name": "USER_ROLE",
      "outputs": [
        {
          "internalType": "bytes32",
          "name": "",
          "type": "bytes32"
        }
      ],
      "stateMutability": "view",
      "type": "function"
    },
    {
      "inputs": [
        {
          "internalType": "address",
          "name": "_address",
          "type": "address"
        }
      ],
      "name": "addAdminRole",
      "outputs": [],
      "stateMutability": "nonpayable",
      "type": "function"
    },
    {
      "inputs": [
        {
          "internalType": "address",
          "name": "_address",
          "type": "address"
        }
      ],
      "name": "addMinterRole",
      "outputs": [],
      "stateMutability": "nonpayable",
      "type": "function"
    },
    {
      "inputs": [
        {
          "internalType": "address",
          "name": "_address",
          "type": "address"
        }
      ],
      "name": "addOperatorRole",
      "outputs": [],
      "stateMutability": "nonpayable",
      "type": "function"
    },
    {
      "inputs": [
        {
          "internalType": "address",
          "name": "_address",
          "type": "address"
        }
      ],
      "name": "addSmartContractRole",
      "outputs": [],
      "stateMutability": "nonpayable",
      "type": "function"
    },
    {
      "inputs": [
        {
          "internalType": "address",
          "name": "_address",
          "type": "address"
        }
      ],
      "name": "addUserRole",
      "outputs": [],
      "stateMutability": "nonpayable",
      "type": "function"
    },
    {
      "inputs": [],
      "name": "auctionEnded",
      "outputs": [
        {
          "internalType": "bool",
          "name": "",
          "type": "bool"
        }
      ],
      "stateMutability": "view",
      "type": "function"
    },
    {
      "inputs": [],
      "name": "auctionSuccessful",
      "outputs": [
        {
          "internalType": "bool",
          "name": "",
          "type": "bool"
        }
      ],
      "stateMutability": "view",
      "type": "function"
    },
    {
      "inputs": [],
      "name": "auctionToken",
      "outputs": [
        {
          "internalType": "address",
          "name": "",
          "type": "address"
        }
      ],
      "stateMutability": "view",
      "type": "function"
    },
    {
      "inputs": [
        {
          "internalType": "bytes[]",
          "name": "calls",
          "type": "bytes[]"
        },
        {
          "internalType": "bool",
          "name": "revertOnFail",
          "type": "bool"
        }
      ],
      "name": "batch",
      "outputs": [
        {
          "internalType": "bool[]",
          "name": "successes",
          "type": "bool[]"
        },
        {
          "internalType": "bytes[]",
          "name": "results",
          "type": "bytes[]"
        }
      ],
      "stateMutability": "payable",
      "type": "function"
    },
    {
      "inputs": [
        {
          "internalType": "uint256",
          "name": "_commitment",
          "type": "uint256"
        }
      ],
      "name": "calculateCommitment",
      "outputs": [
        {
          "internalType": "uint256",
          "name": "committed",
          "type": "uint256"
        }
      ],
      "stateMutability": "view",
      "type": "function"
    },
    {
      "inputs": [],
      "name": "cancelAuction",
      "outputs": [],
      "stateMutability": "nonpayable",
      "type": "function"
    },
    {
      "inputs": [
        {
          "internalType": "address",
          "name": "",
          "type": "address"
        }
      ],
      "name": "claimed",
      "outputs": [
        {
          "internalType": "uint256",
          "name": "",
          "type": "uint256"
        }
      ],
      "stateMutability": "view",
      "type": "function"
    },
    {
      "inputs": [],
      "name": "clearingPrice",
      "outputs": [
        {
          "internalType": "uint256",
          "name": "",
          "type": "uint256"
        }
      ],
      "stateMutability": "view",
      "type": "function"
    },
    {
      "inputs": [
        {
          "internalType": "address payable",
          "name": "_beneficiary",
          "type": "address"
        },
        {
          "internalType": "bool",
          "name": "readAndAgreedToMarketParticipationAgreement",
          "type": "bool"
        }
      ],
      "name": "commitEth",
      "outputs": [],
      "stateMutability": "payable",
      "type": "function"
    },
    {
      "inputs": [
        {
          "internalType": "uint256",
          "name": "_amount",
          "type": "uint256"
        },
        {
          "internalType": "bool",
          "name": "readAndAgreedToMarketParticipationAgreement",
          "type": "bool"
        }
      ],
      "name": "commitTokens",
      "outputs": [],
      "stateMutability": "nonpayable",
      "type": "function"
    },
    {
      "inputs": [
        {
          "internalType": "address",
          "name": "_from",
          "type": "address"
        },
        {
          "internalType": "uint256",
          "name": "_amount",
          "type": "uint256"
        },
        {
          "internalType": "bool",
          "name": "readAndAgreedToMarketParticipationAgreement",
          "type": "bool"
        }
      ],
      "name": "commitTokensFrom",
      "outputs": [],
      "stateMutability": "nonpayable",
      "type": "function"
    },
    {
      "inputs": [
        {
          "internalType": "address",
          "name": "",
          "type": "address"
        }
      ],
      "name": "commitments",
      "outputs": [
        {
          "internalType": "uint256",
          "name": "",
          "type": "uint256"
        }
      ],
      "stateMutability": "view",
      "type": "function"
    },
    {
      "inputs": [
        {
          "internalType": "bool",
          "name": "_status",
          "type": "bool"
        }
      ],
      "name": "enableList",
      "outputs": [],
      "stateMutability": "nonpayable",
      "type": "function"
    },
    {
      "inputs": [],
      "name": "fee",
      "outputs": [
        {
          "internalType": "uint256",
          "name": "",
          "type": "uint256"
        }
      ],
      "stateMutability": "view",
      "type": "function"
    },
    {
      "inputs": [],
      "name": "feeDenominator",
      "outputs": [
        {
          "internalType": "uint256",
          "name": "",
          "type": "uint256"
        }
      ],
      "stateMutability": "view",
      "type": "function"
    },
    {
      "inputs": [],
      "name": "feeWallet",
      "outputs": [
        {
          "internalType": "address payable",
          "name": "",
          "type": "address"
        }
      ],
      "stateMutability": "view",
      "type": "function"
    },
    {
      "inputs": [],
      "name": "finalize",
      "outputs": [],
      "stateMutability": "nonpayable",
      "type": "function"
    },
    {
      "inputs": [],
      "name": "finalizeTimeExpired",
      "outputs": [
        {
          "internalType": "bool",
          "name": "",
          "type": "bool"
        }
      ],
      "stateMutability": "view",
      "type": "function"
    },
    {
      "inputs": [],
      "name": "finalized",
      "outputs": [
        {
          "internalType": "bool",
          "name": "",
          "type": "bool"
        }
      ],
      "stateMutability": "view",
      "type": "function"
    },
    {
      "inputs": [],
      "name": "getAllDocuments",
      "outputs": [
        {
          "internalType": "string[]",
          "name": "",
          "type": "string[]"
        }
      ],
      "stateMutability": "view",
      "type": "function"
    },
    {
      "inputs": [
        {
          "internalType": "address",
          "name": "_funder",
          "type": "address"
        },
        {
          "internalType": "address",
          "name": "_token",
          "type": "address"
        },
        {
          "internalType": "uint256",
          "name": "_totalTokens",
          "type": "uint256"
        },
        {
          "internalType": "uint256",
          "name": "_startTime",
          "type": "uint256"
        },
        {
          "internalType": "uint256",
          "name": "_endTime",
          "type": "uint256"
        },
        {
          "internalType": "address",
          "name": "_paymentCurrency",
          "type": "address"
        },
        {
          "internalType": "uint256",
          "name": "_startPrice",
          "type": "uint256"
        },
        {
          "internalType": "uint256",
          "name": "_minimumPrice",
          "type": "uint256"
        },
        {
          "internalType": "address",
          "name": "_admin",
          "type": "address"
        },
        {
          "internalType": "address",
          "name": "_pointList",
          "type": "address"
        },
        {
          "internalType": "address payable",
          "name": "_wallet",
          "type": "address"
        }
      ],
      "name": "getAuctionInitData",
      "outputs": [
        {
          "internalType": "bytes",
          "name": "_data",
          "type": "bytes"
        }
      ],
      "stateMutability": "pure",
      "type": "function"
    },
    {
      "inputs": [],
      "name": "getBaseInformation",
      "outputs": [
        {
          "internalType": "address",
          "name": "",
          "type": "address"
        },
        {
          "internalType": "uint64",
          "name": "",
          "type": "uint64"
        },
        {
          "internalType": "uint64",
          "name": "",
          "type": "uint64"
        },
        {
          "internalType": "bool",
          "name": "",
          "type": "bool"
        }
      ],
      "stateMutability": "view",
      "type": "function"
    },
    {
      "inputs": [
        {
          "internalType": "string",
          "name": "_name",
          "type": "string"
        }
      ],
      "name": "getDocument",
      "outputs": [
        {
          "internalType": "string",
          "name": "",
          "type": "string"
        },
        {
          "internalType": "uint256",
          "name": "",
          "type": "uint256"
        }
      ],
      "stateMutability": "view",
      "type": "function"
    },
    {
      "inputs": [],
      "name": "getDocumentCount",
      "outputs": [
        {
          "internalType": "uint256",
          "name": "",
          "type": "uint256"
        }
      ],
      "stateMutability": "view",
      "type": "function"
    },
    {
      "inputs": [
        {
          "internalType": "uint256",
          "name": "_index",
          "type": "uint256"
        }
      ],
      "name": "getDocumentName",
      "outputs": [
        {
          "internalType": "string",
          "name": "",
          "type": "string"
        }
      ],
      "stateMutability": "view",
      "type": "function"
    },
    {
      "inputs": [
        {
          "internalType": "bytes32",
          "name": "role",
          "type": "bytes32"
        }
      ],
      "name": "getRoleAdmin",
      "outputs": [
        {
          "internalType": "bytes32",
          "name": "",
          "type": "bytes32"
        }
      ],
      "stateMutability": "view",
      "type": "function"
    },
    {
      "inputs": [
        {
          "internalType": "bytes32",
          "name": "role",
          "type": "bytes32"
        },
        {
          "internalType": "uint256",
          "name": "index",
          "type": "uint256"
        }
      ],
      "name": "getRoleMember",
      "outputs": [
        {
          "internalType": "address",
          "name": "",
          "type": "address"
        }
      ],
      "stateMutability": "view",
      "type": "function"
    },
    {
      "inputs": [
        {
          "internalType": "bytes32",
          "name": "role",
          "type": "bytes32"
        }
      ],
      "name": "getRoleMemberCount",
      "outputs": [
        {
          "internalType": "uint256",
          "name": "",
          "type": "uint256"
        }
      ],
      "stateMutability": "view",
      "type": "function"
    },
    {
      "inputs": [],
      "name": "getTotalTokens",
      "outputs": [
        {
          "internalType": "uint256",
          "name": "",
          "type": "uint256"
        }
      ],
      "stateMutability": "view",
      "type": "function"
    },
    {
      "inputs": [
        {
          "internalType": "bytes32",
          "name": "role",
          "type": "bytes32"
        },
        {
          "internalType": "address",
          "name": "account",
          "type": "address"
        }
      ],
      "name": "grantRole",
      "outputs": [],
      "stateMutability": "nonpayable",
      "type": "function"
    },
    {
      "inputs": [
        {
          "internalType": "address",
          "name": "_address",
          "type": "address"
        }
      ],
      "name": "hasAdminRole",
      "outputs": [
        {
          "internalType": "bool",
          "name": "",
          "type": "bool"
        }
      ],
      "stateMutability": "view",
      "type": "function"
    },
    {
      "inputs": [
        {
          "internalType": "address",
          "name": "_address",
          "type": "address"
        }
      ],
      "name": "hasMinterRole",
      "outputs": [
        {
          "internalType": "bool",
          "name": "",
          "type": "bool"
        }
      ],
      "stateMutability": "view",
      "type": "function"
    },
    {
      "inputs": [
        {
          "internalType": "address",
          "name": "_address",
          "type": "address"
        }
      ],
      "name": "hasOperatorRole",
      "outputs": [
        {
          "internalType": "bool",
          "name": "",
          "type": "bool"
        }
      ],
      "stateMutability": "view",
      "type": "function"
    },
    {
      "inputs": [
        {
          "internalType": "bytes32",
          "name": "role",
          "type": "bytes32"
        },
        {
          "internalType": "address",
          "name": "account",
          "type": "address"
        }
      ],
      "name": "hasRole",
      "outputs": [
        {
          "internalType": "bool",
          "name": "",
          "type": "bool"
        }
      ],
      "stateMutability": "view",
      "type": "function"
    },
    {
      "inputs": [
        {
          "internalType": "address",
          "name": "_address",
          "type": "address"
        }
      ],
      "name": "hasSmartContractRole",
      "outputs": [
        {
          "internalType": "bool",
          "name": "",
          "type": "bool"
        }
      ],
      "stateMutability": "view",
      "type": "function"
    },
    {
      "inputs": [
        {
          "internalType": "address",
          "name": "_address",
          "type": "address"
        }
      ],
      "name": "hasUserRole",
      "outputs": [
        {
          "internalType": "bool",
          "name": "",
          "type": "bool"
        }
      ],
      "stateMutability": "view",
      "type": "function"
    },
    {
      "inputs": [
        {
          "internalType": "bytes",
          "name": "_data",
          "type": "bytes"
        }
      ],
      "name": "init",
      "outputs": [],
      "stateMutability": "payable",
      "type": "function"
    },
    {
      "inputs": [
        {
          "internalType": "address",
          "name": "_admin",
          "type": "address"
        }
      ],
      "name": "initAccessControls",
      "outputs": [],
      "stateMutability": "nonpayable",
      "type": "function"
    },
    {
      "inputs": [
        {
          "internalType": "address",
          "name": "_funder",
          "type": "address"
        },
        {
          "internalType": "address",
          "name": "_token",
          "type": "address"
        },
        {
          "internalType": "uint256",
          "name": "_totalTokens",
          "type": "uint256"
        },
        {
          "internalType": "uint256",
          "name": "_startTime",
          "type": "uint256"
        },
        {
          "internalType": "uint256",
          "name": "_endTime",
          "type": "uint256"
        },
        {
          "internalType": "address",
          "name": "_paymentCurrency",
          "type": "address"
        },
        {
          "internalType": "uint256",
          "name": "_startPrice",
          "type": "uint256"
        },
        {
          "internalType": "uint256",
          "name": "_minimumPrice",
          "type": "uint256"
        },
        {
          "internalType": "address",
          "name": "_admin",
          "type": "address"
        },
        {
          "internalType": "address",
          "name": "_pointList",
          "type": "address"
        },
        {
          "internalType": "address payable",
          "name": "_wallet",
          "type": "address"
        }
      ],
      "name": "initAuction",
      "outputs": [],
      "stateMutability": "nonpayable",
      "type": "function"
    },
    {
      "inputs": [
        {
          "internalType": "bytes",
          "name": "_data",
          "type": "bytes"
        }
      ],
      "name": "initMarket",
      "outputs": [],
      "stateMutability": "nonpayable",
      "type": "function"
    },
    {
      "inputs": [],
      "name": "isOpen",
      "outputs": [
        {
          "internalType": "bool",
          "name": "",
          "type": "bool"
        }
      ],
      "stateMutability": "view",
      "type": "function"
    },
    {
      "inputs": [],
      "name": "marketInfo",
      "outputs": [
        {
          "internalType": "uint64",
          "name": "startTime",
          "type": "uint64"
        },
        {
          "internalType": "uint64",
          "name": "endTime",
          "type": "uint64"
        },
        {
          "internalType": "uint128",
          "name": "totalTokens",
          "type": "uint128"
        }
      ],
      "stateMutability": "view",
      "type": "function"
    },
    {
      "inputs": [],
      "name": "marketParticipationAgreement",
      "outputs": [
        {
          "internalType": "string",
          "name": "",
          "type": "string"
        }
      ],
      "stateMutability": "pure",
      "type": "function"
    },
    {
      "inputs": [],
      "name": "marketPrice",
      "outputs": [
        {
          "internalType": "uint128",
          "name": "startPrice",
          "type": "uint128"
        },
        {
          "internalType": "uint128",
          "name": "minimumPrice",
          "type": "uint128"
        }
      ],
      "stateMutability": "view",
      "type": "function"
    },
    {
      "inputs": [],
      "name": "marketStatus",
      "outputs": [
        {
          "internalType": "uint128",
          "name": "commitmentsTotal",
          "type": "uint128"
        },
        {
          "internalType": "bool",
          "name": "finalized",
          "type": "bool"
        },
        {
          "internalType": "bool",
          "name": "usePointList",
          "type": "bool"
        }
      ],
      "stateMutability": "view",
      "type": "function"
    },
    {
      "inputs": [],
      "name": "marketTemplate",
      "outputs": [
        {
          "internalType": "uint256",
          "name": "",
          "type": "uint256"
        }
      ],
      "stateMutability": "view",
      "type": "function"
    },
    {
      "inputs": [],
      "name": "paymentCurrency",
      "outputs": [
        {
          "internalType": "address",
          "name": "",
          "type": "address"
        }
      ],
      "stateMutability": "view",
      "type": "function"
    },
    {
      "inputs": [
        {
          "internalType": "contract IERC20",
          "name": "token",
          "type": "address"
        },
        {
          "internalType": "address",
          "name": "from",
          "type": "address"
        },
        {
          "internalType": "address",
          "name": "to",
          "type": "address"
        },
        {
          "internalType": "uint256",
          "name": "amount",
          "type": "uint256"
        },
        {
          "internalType": "uint256",
          "name": "deadline",
          "type": "uint256"
        },
        {
          "internalType": "uint8",
          "name": "v",
          "type": "uint8"
        },
        {
          "internalType": "bytes32",
          "name": "r",
          "type": "bytes32"
        },
        {
          "internalType": "bytes32",
          "name": "s",
          "type": "bytes32"
        }
      ],
      "name": "permitToken",
      "outputs": [],
      "stateMutability": "nonpayable",
      "type": "function"
    },
    {
      "inputs": [],
      "name": "pointList",
      "outputs": [
        {
          "internalType": "address",
          "name": "",
          "type": "address"
        }
      ],
      "stateMutability": "view",
      "type": "function"
    },
    {
      "inputs": [],
      "name": "priceDrop",
      "outputs": [
        {
          "internalType": "uint256",
          "name": "",
          "type": "uint256"
        }
      ],
      "stateMutability": "view",
      "type": "function"
    },
    {
      "inputs": [],
      "name": "priceFunction",
      "outputs": [
        {
          "internalType": "uint256",
          "name": "",
          "type": "uint256"
        }
      ],
      "stateMutability": "view",
      "type": "function"
    },
    {
      "inputs": [
        {
          "internalType": "address",
          "name": "_address",
          "type": "address"
        }
      ],
      "name": "removeAdminRole",
      "outputs": [],
      "stateMutability": "nonpayable",
      "type": "function"
    },
    {
      "inputs": [
        {
          "internalType": "string",
          "name": "_name",
          "type": "string"
        }
      ],
      "name": "removeDocument",
      "outputs": [],
      "stateMutability": "nonpayable",
      "type": "function"
    },
    {
      "inputs": [
        {
          "internalType": "address",
          "name": "_address",
          "type": "address"
        }
      ],
      "name": "removeMinterRole",
      "outputs": [],
      "stateMutability": "nonpayable",
      "type": "function"
    },
    {
      "inputs": [
        {
          "internalType": "address",
          "name": "_address",
          "type": "address"
        }
      ],
      "name": "removeOperatorRole",
      "outputs": [],
      "stateMutability": "nonpayable",
      "type": "function"
    },
    {
      "inputs": [
        {
          "internalType": "address",
          "name": "_address",
          "type": "address"
        }
      ],
      "name": "removeSmartContractRole",
      "outputs": [],
      "stateMutability": "nonpayable",
      "type": "function"
    },
    {
      "inputs": [
        {
          "internalType": "bytes32",
          "name": "role",
          "type": "bytes32"
        },
        {
          "internalType": "address",
          "name": "account",
          "type": "address"
        }
      ],
      "name": "renounceRole",
      "outputs": [],
      "stateMutability": "nonpayable",
      "type": "function"
    },
    {
      "inputs": [
        {
          "internalType": "bytes32",
          "name": "role",
          "type": "bytes32"
        },
        {
          "internalType": "address",
          "name": "account",
          "type": "address"
        }
      ],
      "name": "revokeRole",
      "outputs": [],
      "stateMutability": "nonpayable",
      "type": "function"
    },
    {
      "inputs": [
        {
          "internalType": "uint256",
          "name": "_startPrice",
          "type": "uint256"
        },
        {
          "internalType": "uint256",
          "name": "_minimumPrice",
          "type": "uint256"
        }
      ],
      "name": "setAuctionPrice",
      "outputs": [],
      "stateMutability": "nonpayable",
      "type": "function"
    },
    {
      "inputs": [
        {
          "internalType": "uint256",
          "name": "_startTime",
          "type": "uint256"
        },
        {
          "internalType": "uint256",
          "name": "_endTime",
          "type": "uint256"
        }
      ],
      "name": "setAuctionTime",
      "outputs": [],
      "stateMutability": "nonpayable",
      "type": "function"
    },
    {
      "inputs": [
        {
          "internalType": "address payable",
          "name": "_wallet",
          "type": "address"
        }
      ],
      "name": "setAuctionWallet",
      "outputs": [],
      "stateMutability": "nonpayable",
      "type": "function"
    },
    {
      "inputs": [
        {
          "internalType": "string",
          "name": "_name",
          "type": "string"
        },
        {
          "internalType": "string",
          "name": "_data",
          "type": "string"
        }
      ],
      "name": "setDocument",
      "outputs": [],
      "stateMutability": "nonpayable",
      "type": "function"
    },
    {
      "inputs": [
        {
          "internalType": "string[]",
          "name": "_name",
          "type": "string[]"
        },
        {
          "internalType": "string[]",
          "name": "_data",
          "type": "string[]"
        }
      ],
      "name": "setDocuments",
      "outputs": [],
      "stateMutability": "nonpayable",
      "type": "function"
    },
    {
      "inputs": [
        {
          "internalType": "uint256",
          "name": "_fee",
          "type": "uint256"
        },
        {
          "internalType": "address payable",
          "name": "_feeWallet",
          "type": "address"
        }
      ],
      "name": "setFeeInfo",
      "outputs": [],
      "stateMutability": "nonpayable",
      "type": "function"
    },
    {
      "inputs": [
        {
          "internalType": "address",
          "name": "_list",
          "type": "address"
        }
      ],
      "name": "setList",
      "outputs": [],
      "stateMutability": "nonpayable",
      "type": "function"
    },
    {
      "inputs": [],
      "name": "tokenPrice",
      "outputs": [
        {
          "internalType": "uint256",
          "name": "",
          "type": "uint256"
        }
      ],
      "stateMutability": "view",
      "type": "function"
    },
    {
      "inputs": [
        {
          "internalType": "address",
          "name": "_user",
          "type": "address"
        }
      ],
      "name": "tokensClaimable",
      "outputs": [
        {
          "internalType": "uint256",
          "name": "claimerCommitment",
          "type": "uint256"
        }
      ],
      "stateMutability": "view",
      "type": "function"
    },
    {
      "inputs": [],
      "name": "totalTokensCommitted",
      "outputs": [
        {
          "internalType": "uint256",
          "name": "",
          "type": "uint256"
        }
      ],
      "stateMutability": "view",
      "type": "function"
    },
    {
      "inputs": [],
      "name": "wallet",
      "outputs": [
        {
          "internalType": "address payable",
          "name": "",
          "type": "address"
        }
      ],
      "stateMutability": "view",
      "type": "function"
    },
    {
      "inputs": [
        {
          "internalType": "address payable",
          "name": "beneficiary",
          "type": "address"
        }
      ],
      "name": "withdrawTokens",
      "outputs": [],
      "stateMutability": "nonpayable",
      "type": "function"
    },
    {
      "inputs": [],
      "name": "withdrawTokens",
      "outputs": [],
      "stateMutability": "nonpayable",
      "type": "function"
    },
    {
      "stateMutability": "payable",
      "type": "receive"
    }
  ],
  "transactionHash": "0x53d297ca0ad1a948def9306dc22e0b5e95d52818b4b01bfe3cc073a1b0c6eb1f",
  "args": [],
  "numDeployments": 1,
  "solcInputHash": "876e5ea5578ebff10a749ad7db4e9a6d",
  "bytecode": "0x6080604052600060065534801561001557600080fd5b50600160055561531d8061002a6000396000f3fe6080604052600436106104825760003560e01c80638a845fc011610255578063c6b547e611610144578063dccfe310116100c1578063e8fcf72311610085578063e8fcf72314610d27578063f04899d314610d47578063f08b82e614610d5c578063f25f4b5614610d71578063f5b541a614610d86578063fc4e3e0a14610d9b57610491565b8063dccfe31014610c8e578063ddca3f4314610cae578063dde51f6d14610cc3578063e0e081d714610ce3578063e6594abd14610d0757610491565b8063d539139311610108578063d539139314610c04578063d547741f14610c19578063d69d3e6214610c39578063d7568b6e14610c59578063dc97e08214610c6e57610491565b8063c6b547e614610b63578063c884ef8314610b83578063c92bce8714610ba3578063ca15c87314610bc3578063d2423b5114610be357610491565b80639c64d0ae116101d2578063b1f1621811610196578063b1f1621814610ace578063b3f05b9714610aee578063b7928b1d14610b03578063b88374c514610b23578063c395fcb314610b4357610491565b80639c64d0ae14610a425780639fa5f50b14610a62578063a217fddf14610a84578063a9d87ee614610a99578063adbf377614610aae57610491565b806391d148541161021957806391d14854146109ad5780639478941c146109cd578063963c78dd146109ed57806399fdb32014610a0d5780639a87222c14610a2257610491565b80638a845fc01461092e5780638d8f2adb1461094e5780638fa8b790146109635780639010d07c14610978578063919e93b51461099857610491565b806347535d7b116103715780636ae260c1116102ee5780637ff9b596116102b25780637ff9b596146108af57806381353c8e146108c457806384720f16146108e4578063857d260814610904578063864333741461091957610491565b80636ae260c1146107ff57806373973fcb1461081f57806374cf9fc51461083f5780637c516e94146108615780637ccb6a641461088157610491565b80634ddf47d4116103355780634ddf47d414610777578063521eb2731461078a57806354f1e1261461079f57806356cf15ad146107bf5780636595171c146107df57610491565b806347535d7b146106ed57806349df728c146107025780634b3e6abb146107225780634bb278f3146107425780634dc80e151461075757610491565b806329762960116103ff57806336d0054b116103c357806336d0054b1461065e5780633d15cc6d146106735780633d1c2273146106955780633f16431a146106aa57806345a15388146106ca57610491565b806329762960146105d15780632f2ff15d146105e4578063314148e21461060457806332a0f2d71461062957806336568abe1461063e57610491565b8063180b0d7e11610446578063180b0d7e146105475780631b3e460e1461055c578063212f8a8114610571578063248a9ca31461059157806324e4025b146105b157610491565b8063031bee0014610496578063099db017146104c3578063113b0ab2146104f05780631311916114610510578063170264551461053257610491565b366104915761048f610dbb565b005b600080fd5b3480156104a257600080fd5b506104ab610ddc565b6040516104ba9392919061505c565b60405180910390f35b3480156104cf57600080fd5b506104e36104de366004613b81565b610e09565b6040516104ba9190614383565b3480156104fc57600080fd5b506104e361050b366004613b81565b610e2b565b34801561051c57600080fd5b50610525610e45565b6040516104ba919061438e565b34801561053e57600080fd5b506104e3610e69565b34801561055357600080fd5b50610525610e88565b34801561056857600080fd5b50610525610e8e565b34801561057d57600080fd5b5061048f61058c366004613cb3565b610e93565b34801561059d57600080fd5b506105256105ac366004613ddd565b610f46565b3480156105bd57600080fd5b5061048f6105cc366004613e19565b610f5b565b61048f6105df366004613c5a565b611062565b3480156105f057600080fd5b5061048f6105ff366004613df5565b611149565b34801561061057600080fd5b50610619611191565b6040516104ba9493929190614257565b34801561063557600080fd5b506105256111c9565b34801561064a57600080fd5b5061048f610659366004613df5565b6111f8565b34801561066a57600080fd5b506104e361123a565b34801561067f57600080fd5b50610688611253565b6040516104ba9190614111565b3480156106a157600080fd5b50610525611262565b3480156106b657600080fd5b5061048f6106c5366004613b81565b611268565b3480156106d657600080fd5b506106df611283565b6040516104ba929190615034565b3480156106f957600080fd5b506104e361129d565b34801561070e57600080fd5b5061048f61071d366004613b81565b6112d2565b34801561072e57600080fd5b5061048f61073d366004613da5565b61141c565b34801561074e57600080fd5b5061048f611499565b34801561076357600080fd5b50610525610772366004613b81565b6116aa565b61048f610785366004613e3a565b61118d565b34801561079657600080fd5b506106886117f7565b3480156107ab57600080fd5b5061048f6107ba366004613b81565b611806565b3480156107cb57600080fd5b5061048f6107da366004613b81565b61181e565b3480156107eb57600080fd5b5061048f6107fa366004613b81565b611848565b34801561080b57600080fd5b5061048f61081a366004613e19565b611853565b34801561082b57600080fd5b5061052561083a366004613ddd565b6119a6565b34801561084b57600080fd5b50610854611a20565b6040516104ba9190614397565b34801561086d57600080fd5b5061048f61087c366004613e79565b611a43565b34801561088d57600080fd5b506108a161089c366004613e3a565b611ab7565b6040516104ba9291906143d9565b3480156108bb57600080fd5b50610525611ba4565b3480156108d057600080fd5b5061048f6108df366004613e3a565b611bd7565b3480156108f057600080fd5b506108546108ff366004613c92565b611c27565b34801561091057600080fd5b50610525611c6e565b34801561092557600080fd5b506104e3611c80565b34801561093a57600080fd5b5061048f610949366004613b81565b611ca9565b34801561095a57600080fd5b5061048f611cc1565b34801561096f57600080fd5b5061048f611ccc565b34801561098457600080fd5b50610688610993366004613e19565b611dcb565b3480156109a457600080fd5b50610525611dec565b3480156109b957600080fd5b506104e36109c8366004613df5565b611e17565b3480156109d957600080fd5b5061048f6109e8366004613b81565b611e2f565b3480156109f957600080fd5b5061048f610a08366004613df5565b611e47565b348015610a1957600080fd5b50610688611ebd565b348015610a2e57600080fd5b5061048f610a3d366004613b81565b611ecc565b348015610a4e57600080fd5b5061048f610a5d366004613efb565b611f4f565b348015610a6e57600080fd5b50610a77611f6d565b6040516104ba9190614323565b348015610a9057600080fd5b50610525612045565b348015610aa557600080fd5b5061052561204a565b348015610aba57600080fd5b5061048f610ac9366004613b81565b6120ab565b348015610ada57600080fd5b5061048f610ae9366004613c92565b6120c3565b348015610afa57600080fd5b506104e3612509565b348015610b0f57600080fd5b5061048f610b1e366004613b81565b612519565b348015610b2f57600080fd5b506104e3610b3e366004613b81565b612531565b348015610b4f57600080fd5b506104e3610b5e366004613b81565b61255d565b348015610b6f57600080fd5b50610854610b7e366004613ddd565b612569565b348015610b8f57600080fd5b50610525610b9e366004613b81565b612634565b348015610baf57600080fd5b5061048f610bbe366004613d3d565b612646565b348015610bcf57600080fd5b50610525610bde366004613ddd565b6126b8565b610bf6610bf1366004613cf4565b6126cf565b6040516104ba929190614289565b348015610c1057600080fd5b5061052561285f565b348015610c2557600080fd5b5061048f610c34366004613df5565b612871565b348015610c4557600080fd5b5061048f610c54366004613b81565b6128ab565b348015610c6557600080fd5b506105256128c6565b348015610c7a57600080fd5b5061048f610c89366004614009565b61299e565b348015610c9a57600080fd5b5061048f610ca9366004613b81565b6129a9565b348015610cba57600080fd5b506105256129b4565b348015610ccf57600080fd5b5061048f610cde366004613e3a565b6129ba565b348015610cef57600080fd5b50610cf86129d6565b6040516104ba93929190615011565b348015610d1357600080fd5b5061048f610d22366004613b81565b6129fb565b348015610d3357600080fd5b50610525610d42366004613b81565b612a5e565b348015610d5357600080fd5b50610688612a70565b348015610d6857600080fd5b50610525612a7f565b348015610d7d57600080fd5b50610688612a95565b348015610d9257600080fd5b50610525612aa4565b348015610da757600080fd5b506104e3610db6366004613b81565b612ab6565b60405162461bcd60e51b8152600401610dd39061489b565b60405180910390fd5b6008546001600160401b0380821691600160401b810490911690600160801b90046001600160801b031683565b6000610e2360008051602061517783398151915283611e17565b90505b919050565b6000610e2360008051602061513783398151915283611e17565b7f14823911f2da1b49f045a0929a60b8c1f2a7fc8c06c7284ca3e8ab4e193a08c881565b60085442600160401b9091046001600160401b031662093a8001105b90565b61271081565b600181565b60026005541415610eb65760405162461bcd60e51b8152600401610dd390614e31565b6002600555600c546001600160a01b031673eeeeeeeeeeeeeeeeeeeeeeeeeeeeeeeeeeeeeeee1415610efa5760405162461bcd60e51b8152600401610dd390614485565b80610f0757610f07610dbb565b6000610f12836119a6565b90508015610f3b57600c54610f31906001600160a01b03163383612ad0565b610f3b8482612bad565b505060016005555050565b60009081526020819052604090206002015490565b610f643361255d565b610f6d57600080fd5b808211610f8c5760405162461bcd60e51b8152600401610dd390614ef0565b60008111610fac5760405162461bcd60e51b8152600401610dd390614701565b600a546001600160801b031615610fd55760405162461bcd60e51b8152600401610dd390614e68565b610fde82612d50565b600980546001600160801b0319166001600160801b039290921691909117905561100781612d50565b600980546001600160801b03928316600160801b0292169190911790556040517f622a57040c34e45abc5fadeb22e4c3c687cf48a096c86694cd21a7be9e7851ee90611056908490849061504e565b60405180910390a15050565b600c546001600160a01b031673eeeeeeeeeeeeeeeeeeeeeeeeeeeeeeeeeeeeeeee146110a05760405162461bcd60e51b8152600401610dd390614bd1565b806110ad576110ad610dbb565b60006110b8346119a6565b905060006110c63483612d7d565b905081156110d8576110d88483612bad565b8015611116576040516001600160a01b0385169082156108fc029083906000818181858888f19350505050158015611114573d6000803e3d6000fd5b505b600a54476001600160801b0390911611156111435760405162461bcd60e51b8152600401610dd390614753565b50505050565b600082815260208190526040902060020154611167906109c8612da0565b6111835760405162461bcd60e51b8152600401610dd390614641565b61118d8282612da4565b5050565b600b54600854600a546001600160a01b03909216926001600160401b0380831693600160401b9093041691600160801b900460ff1690565b6000806111d4611ba4565b905060006111e061204a565b90508082116111ef57806111f1565b815b9250505090565b611200612da0565b6001600160a01b0316816001600160a01b0316146112305760405162461bcd60e51b8152600401610dd390614f94565b61118d8282612e0d565b60006112446111c9565b61124c611ba4565b1015905090565b600c546001600160a01b031681565b60045490565b61128060008051602061513783398151915282611149565b50565b6009546001600160801b0380821691600160801b90041682565b6008546000906001600160401b031642108015906112cd5750600854600160401b90046001600160401b03164211155b905090565b600260055414156112f55760405162461bcd60e51b8152600401610dd390614e31565b600260055561130261123a565b156113b257600a54600160801b900460ff166113305760405162461bcd60e51b8152600401610dd390614cbc565b600061133b826116aa565b90506000811161135d5760405162461bcd60e51b8152600401610dd390614555565b6001600160a01b0382166000908152601060205260409020546113809082612e76565b6001600160a01b03808416600090815260106020526040902091909155600b546113ac91168383612e99565b50611414565b600854600160401b90046001600160401b031642116113e35760405162461bcd60e51b8152600401610dd390614d9a565b6001600160a01b038082166000908152600f602052604081208054919055600c54909161141291168383612e99565b505b506001600555565b6114253361255d565b61142e57600080fd5b600a805460ff60881b1916600160881b83151581029190911791829055600e546040517f2df0f5b650a168c74b406dcccc513b8e68da86ce7bcb0654ee83b2ac47be5b3f9361148e936001600160a01b039093169260ff91041690614223565b60405180910390a150565b600260055414156114bc5760405162461bcd60e51b8152600401610dd390614e31565b60026005556114ca3361255d565b806114d957506114d933610e2b565b806114ee5750600d546001600160a01b031633145b806114fc57506114fc610e69565b6115185760405162461bcd60e51b8152600401610dd390614c22565b600854600160801b90046001600160801b03166115475760405162461bcd60e51b8152600401610dd390614a97565b600a8054600160801b900460ff16156115725760405162461bcd60e51b8152600401610dd3906147a6565b61157a61123a565b1561160757600c54600d5482546115a7926001600160a01b039081169216906001600160801b0316612e99565b60065415611602576008546006546000916115e091612710916115da9190600160801b90046001600160801b0316612f18565b90612f4f565b600b54600754919250611600916001600160a01b03918216911683612e99565b505b611668565b600854600160401b90046001600160401b031642116116385760405162461bcd60e51b8152600401610dd390614d9a565b600b54600d54600854611668926001600160a01b03908116921690600160801b90046001600160801b0316612e99565b805460ff60801b1916600160801b1781556040517f32bebcfd2d04dbae321298091d96d2cb1d07279f59718cd83bd98245b8b82b5a90600090a1506001600555565b6001600160a01b0381166000908152600f60205260408120546116cf57506000610e26565b600b546040516370a0823160e01b81526000916001600160a01b0316906370a0823190611700903090600401614111565b60206040518083038186803b15801561171857600080fd5b505afa15801561172c573d6000803e3d6000fd5b505050506040513d601f19601f820116820180604052508101906117509190613ff1565b600a546008546001600160a01b0386166000908152600f6020526040902054929350611793926001600160801b03928316926115da92600160801b900416612f18565b915060006117b26127106115da60065486612f1890919063ffffffff16565b6001600160a01b0385166000908152601060205260409020549091506117e2906117dc8584612d7d565b90612d7d565b9250818311156117f0578192505b5050919050565b600d546001600160a01b031681565b61128060008051602061517783398151915282612871565b6112807f14823911f2da1b49f045a0929a60b8c1f2a7fc8c06c7284ca3e8ab4e193a08c882611149565b611280600082611149565b61185c3361255d565b61186557600080fd5b6402540be40082106118895760405162461bcd60e51b8152600401610dd3906147ed565b6402540be40081106118ad5760405162461bcd60e51b8152600401610dd3906147ed565b428210156118cd5760405162461bcd60e51b8152600401610dd39061493e565b8181116118ec5760405162461bcd60e51b8152600401610dd3906144d2565b600a546001600160801b0316156119155760405162461bcd60e51b8152600401610dd390614e68565b61191e82612f81565b6008805467ffffffffffffffff19166001600160401b039290921691909117905561194881612f81565b600880546001600160401b0392909216600160401b0267ffffffffffffffff60401b199092169190911790556040517f5725d1e4352d6944889e54837ffaefde55cdc0b55796b831365d61cd4c87fdb890611056908490849061504e565b6000806119d9670de0b6b3a76400006115da6119c06111c9565b600854600160801b90046001600160801b031690612f18565b600a5490915081906119f4906001600160801b031685612e76565b1115611a1957600a54611a119082906001600160801b0316612d7d565b915050610e26565b5090919050565b606060405180610180016040528061015181526020016151976101519139905090565b60405163d505accf60e01b81526001600160a01b0389169063d505accf90611a7b908a908a908a908a908a908a908a906004016141e2565b600060405180830381600087803b158015611a9557600080fd5b505af1158015611aa9573d6000803e3d6000fd5b505050505050505050505050565b6060600060028484604051611acd929190614075565b908152602001604051809103902060010160028585604051611af0929190614075565b908152604080516020928190038301812054845460026101006001831615026000190190911604601f810185900485028301850190935282825264010000000090046001600160401b03169290918491830182828015611b915780601f10611b6657610100808354040283529160200191611b91565b820191906000526020600020905b815481529060010190602001808311611b7457829003601f168201915b50505050509150915091505b9250929050565b600854600a546000916112cd916001600160801b03600160801b9092048216916115da9116670de0b6b3a7640000612f18565b600080808080808080808080611bef8c8e018e613ba4565b9a509a509a509a509a509a509a509a509a509a509a50611c188b8b8b8b8b8b8b8b8b8b8b6120c3565b50505050505050505050505050565b60608b8b8b8b8b8b8b8b8b8b8b604051602001611c4e9b9a99989796959493929190614183565b60405160208183030381529060405290509b9a5050505050505050505050565b60008051602061513783398151915281565b6000611c8a61123a565b806112cd575050600854600160401b90046001600160401b0316421190565b61128060008051602061513783398151915282612871565b611cca336112d2565b565b60026005541415611cef5760405162461bcd60e51b8152600401610dd390614e31565b6002600555611cfd3361255d565b611d0657600080fd5b600a8054600160801b900460ff1615611d315760405162461bcd60e51b8152600401610dd3906147a6565b80546001600160801b031615611d595760405162461bcd60e51b8152600401610dd390614854565b600b54600d54600854611d89926001600160a01b03908116921690600160801b90046001600160801b0316612e99565b805460ff60801b1916600160801b1781556040517fa5fb31e47bd1eca58bf14a3312d5e6aeafdc4ee787c8ed348c15c2b092324d9390600090a1506001600555565b6000828152602081905260408120611de39083612faa565b90505b92915050565b60006112cd611df96111c9565b600a546115da906001600160801b0316670de0b6b3a7640000612f18565b6000828152602081905260408120611de39083612fb6565b61128060008051602061515783398151915282612871565b611e503361255d565b611e6c5760405162461bcd60e51b8152600401610dd3906146db565b600a54600160801b900460ff1615611e965760405162461bcd60e51b8152600401610dd390614913565b600691909155600780546001600160a01b0319166001600160a01b03909216919091179055565b600b546001600160a01b031681565b611ed53361255d565b611ede57600080fd5b6001600160a01b038116611f045760405162461bcd60e51b8152600401610dd39061458a565b600d80546001600160a01b0319166001600160a01b0383161790556040517f34ae2bad9265f0212d4cf341708b8250949164bb54f9d0e4f442024f83bb2f909061148e908390614111565b611f583361255d565b611f6157600080fd5b61114384848484612fcb565b60606004805480602002602001604051908101604052809291908181526020016000905b8282101561203c5760008481526020908190208301805460408051601f60026000196101006001871615020190941693909304928301859004850281018501909152818152928301828280156120285780601f10611ffd57610100808354040283529160200191612028565b820191906000526020600020905b81548152906001019060200180831161200b57829003601f168201915b505050505081526020019060010190611f91565b50505050905090565b600081565b6008546000906001600160401b0316421161207157506009546001600160801b0316610e85565b600854600160401b90046001600160401b031642106120a35750600954600160801b90046001600160801b0316610e85565b6112cd61321d565b61128060008051602061517783398151915282611149565b6402540be40087106120e75760405162461bcd60e51b8152600401610dd3906147ed565b428810156121075760405162461bcd60e51b8152600401610dd39061493e565b8787116121265760405162461bcd60e51b8152600401610dd390614c67565b600089116121465760405162461bcd60e51b8152600401610dd3906149bc565b8385116121655760405162461bcd60e51b8152600401610dd390614ef0565b600084116121855760405162461bcd60e51b8152600401610dd390614701565b6001600160a01b0383166121ab5760405162461bcd60e51b8152600401610dd390614f4d565b6001600160a01b0381166121d15760405162461bcd60e51b8152600401610dd39061458a565b896001600160a01b031663313ce5676040518163ffffffff1660e01b815260040160206040518083038186803b15801561220a57600080fd5b505afa15801561221e573d6000803e3d6000fd5b505050506040513d601f19601f82011682018060405250810190612242919061402d565b60ff166012146122645760405162461bcd60e51b8152600401610dd390614de4565b6001600160a01b03861673eeeeeeeeeeeeeeeeeeeeeeeeeeeeeeeeeeeeeeee1461231b576000866001600160a01b031663313ce5676040518163ffffffff1660e01b815260040160206040518083038186803b1580156122c357600080fd5b505afa1580156122d7573d6000803e3d6000fd5b505050506040513d601f19601f820116820180604052508101906122fb919061402d565b60ff161161231b5760405162461bcd60e51b8152600401610dd390614690565b61232488612f81565b6008805467ffffffffffffffff19166001600160401b039290921691909117905561234e87612f81565b600880546001600160401b0392909216600160401b0267ffffffffffffffff60401b1990921691909117905561238389612d50565b600880546001600160801b03928316600160801b0292169190911790556123a985612d50565b600980546001600160801b0319166001600160801b03929092169190911790556123d284612d50565b600980546001600160801b03928316600160801b029216919091179055600b80546001600160a01b03808d166001600160a01b031992831617909255600c8054898416908316179055600d805492841692909116919091179055612435836129fb565b61243e8261333f565b6124498a8c8b612ad0565b7f7824ca06acdd8331a93fac9d8f97849b46c2d30748d7320b0d3a8173320b1f3a8b8b8b89878660405161248296959493929190614149565b60405180910390a17f5725d1e4352d6944889e54837ffaefde55cdc0b55796b831365d61cd4c87fdb888886040516124bb92919061504e565b60405180910390a17f622a57040c34e45abc5fadeb22e4c3c687cf48a096c86694cd21a7be9e7851ee85856040516124f492919061504e565b60405180910390a15050505050505050505050565b600a54600160801b900460ff1690565b61128060008051602061515783398151915282611149565b6000610e237f14823911f2da1b49f045a0929a60b8c1f2a7fc8c06c7284ca3e8ab4e193a08c883611e17565b6000610e238183611e17565b600454606090821061258d5760405162461bcd60e51b8152600401610dd390614d36565b6004828154811061259a57fe5b600091825260209182902001805460408051601f60026000196101006001871615020190941693909304928301859004850281018501909152818152928301828280156126285780601f106125fd57610100808354040283529160200191612628565b820191906000526020600020905b81548152906001019060200180831161260b57829003601f168201915b50505050509050919050565b60106020526000908152604090205481565b61264f3361255d565b61265857600080fd5b8260005b818110156126b0576126a886868381811061267357fe5b90506020028101906126859190615088565b86868581811061269157fe5b90506020028101906126a39190615088565b612fcb565b60010161265c565b505050505050565b6000818152602081905260408120610e23906133cb565b606080836001600160401b03811180156126e857600080fd5b50604051908082528060200260200182016040528015612712578160200160208202803683370190505b509150836001600160401b038111801561272b57600080fd5b5060405190808252806020026020018201604052801561275f57816020015b606081526020019060019003908161274a5790505b50905060005b8481101561285657600060603088888581811061277e57fe5b90506020028101906127909190615088565b60405161279e929190614075565b600060405180830381855af49150503d80600081146127d9576040519150601f19603f3d011682016040523d82523d6000602084013e6127de565b606091505b509150915081806127ed575085155b6127f6826133d6565b906128145760405162461bcd60e51b8152600401610dd39190614397565b508185848151811061282257fe5b6020026020010190151590811515815250508084848151811061284157fe5b60209081029190910101525050600101612765565b50935093915050565b60008051602061517783398151915281565b60008281526020819052604090206002015461288f906109c8612da0565b6112305760405162461bcd60e51b8152600401610dd390614a47565b6128b43361255d565b6128bd57600080fd5b6112808161333f565b60006128d0613918565b50604080516060810182526008546001600160401b038082168352600160401b8204166020830152600160801b90046001600160801b031691810191909152612917613938565b50604080518082019091526009546001600160801b03808216808452600160801b909204166020830181905260009161294f91613436565b6001600160801b031690506000612980846000015185602001516001600160401b031661346590919063ffffffff16565b6001600160401b0316905080828161299457fe5b0494505050505090565b61118d338383610e93565b611280600082612871565b60065481565b6129c33361255d565b6129cc57600080fd5b61118d8282613494565b600a546001600160801b0381169060ff600160801b8204811691600160881b90041683565b60015460ff1615612a1e5760405162461bcd60e51b8152600401610dd3906145d2565b6001600160a01b038116612a445760405162461bcd60e51b8152600401610dd390614b2e565b612a4f600082611183565b506001805460ff191681179055565b600f6020526000908152604090205481565b600e546001600160a01b031681565b600854600160801b90046001600160801b031690565b6007546001600160a01b031681565b60008051602061515783398151915281565b6000610e2360008051602061515783398151915283611e17565b60006060846001600160a01b03166323b872dd853086604051602401612af893929190614125565b6040516020818303038152906040529060e01b6020820180516001600160e01b038381831617835250505050604051612b319190614085565b6000604051808303816000865af19150503d8060008114612b6e576040519150601f19603f3d011682016040523d82523d6000602084013e612b73565b606091505b5091509150818015612b9d575080511580612b9d575080806020019051810190612b9d9190613dc1565b612ba657600080fd5b5050505050565b6008546001600160401b03164210801590612bda5750600854600160401b90046001600160401b03164211155b612bf65760405162461bcd60e51b8152600401610dd390614b57565b6001600160a01b0382166000908152600f6020526040812054600a9190612c1d9084612e76565b8254909150600160881b900460ff1615612cbc57600e54604051631cd53d5560e01b81526001600160a01b0390911690631cd53d5590612c63908790859060040161423e565b60206040518083038186803b158015612c7b57600080fd5b505afa158015612c8f573d6000803e3d6000fd5b505050506040513d601f19601f82011682018060405250810190612cb39190613dc1565b612cbc57600080fd5b6001600160a01b0384166000908152600f602052604090208190558154612cf590612cf0906001600160801b031685612e76565b612d50565b82546001600160801b0319166001600160801b03919091161782556040517f077511a636ba1f10551cc7b89c13ff66a6ac9344e8a917527817a9690b15af7a90612d42908690869061423e565b60405180910390a150505050565b60006001600160801b03821115612d795760405162461bcd60e51b8152600401610dd390614a10565b5090565b80820382811115611de65760405162461bcd60e51b8152600401610dd390614526565b3390565b6000828152602081905260409020612dbc90826136c5565b1561118d57612dc9612da0565b6001600160a01b0316816001600160a01b0316837f2f8788117e7eff1d82e926ec794901d17c78024a50270940304540a733656f0d60405160405180910390a45050565b6000828152602081905260409020612e2590826136da565b1561118d57612e32612da0565b6001600160a01b0316816001600160a01b0316837ff6391f5c32d9c69d2a47ea670b442974b53935d1edc7fd64eb21e047a839171b60405160405180910390a45050565b81810181811015611de65760405162461bcd60e51b8152600401610dd390614ac0565b6001600160a01b03831673eeeeeeeeeeeeeeeeeeeeeeeeeeeeeeeeeeeeeeee1415612ecd57612ec882826136ef565b612ed8565b612ed8838383613781565b7f6337ed398c0e8467698c581374fdce4db14922df487b5a39483079f5f59b60a4838383604051612f0b93929190614125565b60405180910390a1505050565b6000811580612f3357505080820282828281612f3057fe5b04145b611de65760405162461bcd60e51b8152600401610dd390614eb9565b6000808211612f705760405162461bcd60e51b8152600401610dd390614fe3565b818381612f7957fe5b049392505050565b60006001600160401b03821115612d795760405162461bcd60e51b8152600401610dd390614b9a565b6000611de383836137a7565b6000611de3836001600160a01b0384166137ec565b82612fe85760405162461bcd60e51b8152600401610dd390614af7565b806130055760405162461bcd60e51b8152600401610dd390614d63565b60006001600160401b031660028585604051613022929190614075565b908152604051908190036020019020546001600160401b036401000000009091041614156130c85760048054600181018255600091909152613087907f8a35acfbc15ff81a39ae7d344fd709f28e8600b4aa8c65c6b64bfe7fe36bd19b01858561394f565b5060045460405160029061309e9087908790614075565b908152604051908190036020019020805463ffffffff9290921663ffffffff199092169190911790555b6040518060600160405280600286866040516130e5929190614075565b90815260408051602092819003830190205463ffffffff168352426001600160401b0316838301528051601f8601839004830281018301825285815292019190859085908190840183828082843760009201919091525050509152506040516002906131549087908790614075565b9081526040805191829003602090810190922083518154858501516001600160401b0316640100000000026bffffffffffffffff000000001963ffffffff90931663ffffffff19909216919091179190911617815590830151805191926131c3926001850192909101906139c9565b50506040516131d6915085908590614075565b60405180910390207fbaa206e5ea800eb88bce099f453fee53295b793b9d5d1cfc4ce4b6db06a34f53838360405161320f9291906143aa565b60405180910390a250505050565b6000613227613918565b50604080516060810182526008546001600160401b038082168352600160401b8204166020830152600160801b90046001600160801b03169181019190915261326e613938565b50604080518082019091526009546001600160801b038082168352600160801b909104166020808301919091528251908301516000916132b7916001600160401b031690613465565b6001600160401b03166133166132e7846020015185600001516001600160801b031661343690919063ffffffff16565b6001600160801b031661331086600001516001600160401b031642612d7d90919063ffffffff16565b90612f18565b8161331d57fe5b83519190049150613337906001600160801b031682612d7d565b935050505090565b6001600160a01b0381161561337f57600e80546001600160a01b0383166001600160a01b0319909116179055600a805460ff60881b1916600160881b1790555b600e54600a546040517f2df0f5b650a168c74b406dcccc513b8e68da86ce7bcb0654ee83b2ac47be5b3f9261148e926001600160a01b0390911691600160881b90910460ff1690614223565b6000610e2382613804565b606060448251101561341c575060408051808201909152601d81527f5472616e73616374696f6e2072657665727465642073696c656e746c790000006020820152610e26565b60048201915081806020019051810190610e239190613f57565b8082036001600160801b038084169082161115611de65760405162461bcd60e51b8152600401610dd390614526565b8082036001600160401b038084169082161115611de65760405162461bcd60e51b8152600401610dd390614526565b60006001600160401b0316600283836040516134b1929190614075565b908152604051908190036020019020546001600160401b036401000000009091041614156134f15760405162461bcd60e51b8152600401610dd39061498d565b6000600160028484604051613507929190614075565b9081526040519081900360200190205460045463ffffffff9182169290920392508216600019909101146135e85760048054600019810190811061354757fe5b9060005260206000200160048263ffffffff168154811061356457fe5b90600052602060002001908054600181600116156101000203166002900461358d929190613a37565b5080600101600260048363ffffffff16815481106135a757fe5b906000526020600020016040516135be91906140a1565b908152604051908190036020019020805463ffffffff9290921663ffffffff199092169190911790555b60048054806135f357fe5b60019003818190600052602060002001600061360f9190613aac565b90558282604051613621929190614075565b60405180910390207f4b5338540b4d1c0f6dd0308a25f633b7ff60472f894d711cff9dd64e35c613b26002858560405161365c929190614075565b908152602001604051809103902060010160405161367a91906143fb565b60405180910390a260028383604051613694929190614075565b90815260405190819003602001902080546bffffffffffffffffffffffff191681556000612ba66001830182613aac565b6000611de3836001600160a01b038416613808565b6000611de3836001600160a01b038416613852565b604080516000808252602082019092526001600160a01b0384169083906040516137199190614085565b60006040518083038185875af1925050503d8060008114613756576040519150601f19603f3d011682016040523d82523d6000602084013e61375b565b606091505b505090508061377c5760405162461bcd60e51b8152600401610dd390614cf3565b505050565b60006060846001600160a01b031663a9059cbb8585604051602401612af892919061423e565b815460009082106137ca5760405162461bcd60e51b8152600401610dd3906145ff565b8260000182815481106137d957fe5b9060005260206000200154905092915050565b60009081526001919091016020526040902054151590565b5490565b600061381483836137ec565b61384a57508154600181810184556000848152602080822090930184905584548482528286019093526040902091909155611de6565b506000611de6565b6000818152600183016020526040812054801561390e578354600019808301919081019060009087908390811061388557fe5b90600052602060002001549050808760000184815481106138a257fe5b6000918252602080832090910192909255828152600189810190925260409020908401905586548790806138d257fe5b60019003818190600052602060002001600090559055866001016000878152602001908152602001600020600090556001945050505050611de6565b6000915050611de6565b604080516060810182526000808252602082018190529181019190915290565b604080518082019091526000808252602082015290565b828054600181600116156101000203166002900490600052602060002090601f016020900481019282601f106139905782800160ff198235161785556139bd565b828001600101855582156139bd579182015b828111156139bd5782358255916020019190600101906139a2565b50612d79929150613aec565b828054600181600116156101000203166002900490600052602060002090601f016020900481019282601f10613a0a57805160ff19168380011785556139bd565b828001600101855582156139bd579182015b828111156139bd578251825591602001919060010190613a1c565b828054600181600116156101000203166002900490600052602060002090601f016020900481019282601f10613a7057805485556139bd565b828001600101855582156139bd57600052602060002091601f016020900482015b828111156139bd578254825591600101919060010190613a91565b50805460018160011615610100020316600290046000825580601f10613ad25750611280565b601f01602090049060005260206000209081019061128091905b5b80821115612d795760008155600101613aed565b60008083601f840112613b12578182fd5b5081356001600160401b03811115613b28578182fd5b6020830191508360208083028501011115611b9d57600080fd5b60008083601f840112613b53578182fd5b5081356001600160401b03811115613b69578182fd5b602083019150836020828501011115611b9d57600080fd5b600060208284031215613b92578081fd5b8135613b9d81615104565b9392505050565b60008060008060008060008060008060006101608c8e031215613bc5578687fd5b8b35613bd081615104565b9a5060208c0135613be081615104565b995060408c0135985060608c0135975060808c0135965060a08c0135613c0581615104565b955060c08c0135945060e08c013593506101008c0135613c2481615104565b92506101208c0135613c3581615104565b91506101408c0135613c4681615104565b809150509295989b509295989b9093969950565b60008060408385031215613c6c578182fd5b8235613c7781615104565b91506020830135613c8781615119565b809150509250929050565b60008060008060008060008060008060006101608c8e031215613bc5578081fd5b600080600060608486031215613cc7578283fd5b8335613cd281615104565b9250602084013591506040840135613ce981615119565b809150509250925092565b600080600060408486031215613d08578081fd5b83356001600160401b03811115613d1d578182fd5b613d2986828701613b01565b9094509250506020840135613ce981615119565b60008060008060408587031215613d52578182fd5b84356001600160401b0380821115613d68578384fd5b613d7488838901613b01565b90965094506020870135915080821115613d8c578384fd5b50613d9987828801613b01565b95989497509550505050565b600060208284031215613db6578081fd5b8135613b9d81615119565b600060208284031215613dd2578081fd5b8151613b9d81615119565b600060208284031215613dee578081fd5b5035919050565b60008060408385031215613e07578182fd5b823591506020830135613c8781615104565b60008060408385031215613e2b578182fd5b50508035926020909101359150565b60008060208385031215613e4c578182fd5b82356001600160401b03811115613e61578283fd5b613e6d85828601613b42565b90969095509350505050565b600080600080600080600080610100898b031215613e95578182fd5b8835613ea081615104565b97506020890135613eb081615104565b96506040890135613ec081615104565b9550606089013594506080890135935060a0890135613ede81615127565b979a969950949793969295929450505060c08201359160e0013590565b60008060008060408587031215613f10578182fd5b84356001600160401b0380821115613f26578384fd5b613f3288838901613b42565b90965094506020870135915080821115613f4a578384fd5b50613d9987828801613b42565b600060208284031215613f68578081fd5b81516001600160401b0380821115613f7e578283fd5b818401915084601f830112613f91578283fd5b815181811115613f9f578384fd5b604051601f8201601f191681016020018381118282101715613fbf578586fd5b604052818152838201602001871015613fd6578485fd5b613fe78260208301602087016150d8565b9695505050505050565b600060208284031215614002578081fd5b5051919050565b6000806040838503121561401b578182fd5b823591506020830135613c8781615119565b60006020828403121561403e578081fd5b8151613b9d81615127565b600081518084526140618160208601602086016150d8565b601f01601f19169290920160200192915050565b6000828483379101908152919050565b600082516140978184602087016150d8565b9190910192915050565b60008083546001808216600081146140c057600181146140d757614106565b60ff198316865260028304607f1686019350614106565b600283048786526020808720875b838110156140fe5781548a8201529085019082016140e5565b505050860193505b509195945050505050565b6001600160a01b0391909116815260200190565b6001600160a01b039384168152919092166020820152604081019190915260600190565b6001600160a01b0396871681529486166020860152604085019390935290841660608401528316608083015290911660a082015260c00190565b6001600160a01b039b8c168152998b1660208b015260408a01989098526060890196909652608088019490945291871660a087015260c086015260e0850152841661010084015283166101208301529091166101408201526101600190565b6001600160a01b0397881681529590961660208601526040850193909352606084019190915260ff16608083015260a082015260c081019190915260e00190565b6001600160a01b039290921682521515602082015260400190565b6001600160a01b03929092168252602082015260400190565b6001600160a01b039490941684526001600160401b039283166020850152911660408301521515606082015260800190565b604080825283519082018190526000906020906060840190828701845b828110156142c45781511515845292840192908401906001016142a6565b505050838103828501528085516142db818461438e565b91508192508381028201848801865b83811015614314578583038552614302838351614049565b948701949250908601906001016142ea565b50909998505050505050505050565b6000602080830181845280855180835260408601915060408482028701019250838701855b8281101561437657603f19888603018452614364858351614049565b94509285019290850190600101614348565b5092979650505050505050565b901515815260200190565b90815260200190565b600060208252611de36020830184614049565b60006020825282602083015282846040840137818301604090810191909152601f909201601f19160101919050565b6000604082526143ec6040830185614049565b90508260208301529392505050565b60006020808301818452828554600180821660008114614422576001811461444057614478565b60028304607f16855260ff1983166040890152606088019350614478565b600283048086526144508a6150cc565b885b8281101561446e5781548b820160400152908401908801614452565b8a01604001955050505b5091979650505050505050565b6020808252602d908201527f447574636841756374696f6e3a205061796d656e742063757272656e6379206960408201526c39903737ba1030903a37b5b2b760991b606082015260800190565b60208082526034908201527f447574636841756374696f6e3a20656e642074696d65206d757374206265206f6040820152736c646572207468616e2073746172742074696d6560601b606082015260800190565b602080825260159082015274426f72696e674d6174683a20556e646572666c6f7760581b604082015260600190565b6020808252818101527f447574636841756374696f6e3a204e6f20746f6b656e7320746f20636c61696d604082015260600190565b60208082526028908201527f447574636841756374696f6e3a2077616c6c657420697320746865207a65726f604082015267206164647265737360c01b606082015260800190565b602080825260139082015272105b1c9958591e481a5b9a5d1a585b1a5cd959606a1b604082015260600190565b60208082526022908201527f456e756d657261626c655365743a20696e646578206f7574206f6620626f756e604082015261647360f01b606082015260800190565b6020808252602f908201527f416363657373436f6e74726f6c3a2073656e646572206d75737420626520616e60408201526e0818591b5a5b881d1bc819dc985b9d608a1b606082015260800190565b6020808252602b908201527f447574636841756374696f6e3a205061796d656e742063757272656e6379206960408201526a073206e6f742045524332360ac1b606082015260800190565b6020808252600c908201526b155b985d5d1a1bdc9a5e995960a21b604082015260600190565b60208082526032908201527f447574636841756374696f6e3a206d696e696d756d207072696365206d75737460408201527102062652067726561746572207468616e20360741b606082015260800190565b60208082526033908201527f447574636841756374696f6e3a2054686520636f6d6d6974746564204554482060408201527265786365656473207468652062616c616e636560681b606082015260800190565b60208082526027908201527f447574636841756374696f6e3a2061756374696f6e20616c72656164792066696040820152661b985b1a5e995960ca1b606082015260800190565b60208082526041908201527f447574636841756374696f6e3a20656e74657220616e20756e69782074696d6560408201527f7374616d7020696e207365636f6e64732c206e6f74206d696c697365636f6e646060820152607360f81b608082015260a00190565b60208082526027908201527f447574636841756374696f6e3a2061756374696f6e20616c726561647920636f6040820152661b5b5a5d1d195960ca1b606082015260800190565b60208082526052908201527f4e6f2061677265656d656e742070726f76696465642c20706c6561736520726560408201527f766965772074686520736d61727420636f6e7472616374206265666f726520696060820152711b9d195c9858dd1a5b99c81dda5d1a081a5d60721b608082015260a00190565b602080825260119082015270105d58dd1a5bdb88199a5b985b1a5e9959607a1b604082015260600190565b6020808252602f908201527f447574636841756374696f6e3a2073746172742074696d65206973206265666f60408201526e72652063757272656e742074696d6560881b606082015260800190565b602080825260159082015274111bd8dd5b595b9d081cda1bdd5b1908195e1a5cdd605a1b604082015260600190565b60208082526034908201527f447574636841756374696f6e3a20746f74616c20746f6b656e73206d7573742060408201527362652067726561746572207468616e207a65726f60601b606082015260800190565b6020808252601c908201527f426f72696e674d6174683a2075696e74313238204f766572666c6f7700000000604082015260600190565b60208082526030908201527f416363657373436f6e74726f6c3a2073656e646572206d75737420626520616e60408201526f2061646d696e20746f207265766f6b6560801b606082015260800190565b6020808252600f908201526e139bdd081a5b9a5d1a585b1a5e9959608a1b604082015260600190565b60208082526018908201527f426f72696e674d6174683a20416464204f766572666c6f770000000000000000604082015260600190565b60208082526018908201527f5a65726f206e616d65206973206e6f7420616c6c6f7765640000000000000000604082015260600190565b6020808252600f908201526e125b98dbdc9c9958dd081a5b9c1d5d608a1b604082015260600190565b60208082526023908201527f447574636841756374696f6e3a206f7574736964652061756374696f6e20686f60408201526275727360e81b606082015260800190565b6020808252601b908201527f426f72696e674d6174683a2075696e743634204f766572666c6f770000000000604082015260600190565b60208082526031908201527f447574636841756374696f6e3a207061796d656e742063757272656e6379206960408201527073206e6f7420455448206164647265737360781b606082015260800190565b60208082526025908201527f447574636841756374696f6e3a2073656e646572206d75737420626520616e2060408201526430b236b4b760d91b606082015260800190565b60208082526035908201527f447574636841756374696f6e3a20656e642074696d65206d757374206265206f6040820152746c646572207468616e20737461727420707269636560581b606082015260800190565b6020808252601b908201527f447574636841756374696f6e3a206e6f742066696e616c697a65640000000000604082015260600190565b60208082526023908201527f5472616e7366657248656c7065723a204554485f5452414e534645525f46414960408201526213115160ea1b606082015260800190565b602080825260139082015272496e646578206f7574206f6620626f756e647360681b604082015260600190565b6020808252601a908201527f53686f756c64206e6f74206265206120656d7074792064617461000000000000604082015260600190565b6020808252602a908201527f447574636841756374696f6e3a2061756374696f6e20686173206e6f742066696040820152691b9a5cda1959081e595d60b21b606082015260800190565b6020808252602d908201527f447574636841756374696f6e3a20546f6b656e20646f6573206e6f742068617660408201526c6520313820646563696d616c7360981b606082015260800190565b6020808252601f908201527f5265656e7472616e637947756172643a207265656e7472616e742063616c6c00604082015260600190565b60208082526031908201527f447574636841756374696f6e3a2061756374696f6e2063616e6e6f74206861766040820152701948185b1c9958591e481cdd185c9d1959607a1b606082015260800190565b60208082526018908201527f426f72696e674d6174683a204d756c204f766572666c6f770000000000000000604082015260600190565b6020808252603b908201527f447574636841756374696f6e3a207374617274207072696365206d757374206260408201527f6520686967686572207468616e206d696e696d756d2070726963650000000000606082015260800190565b60208082526027908201527f447574636841756374696f6e3a2061646d696e20697320746865207a65726f206040820152666164647265737360c81b606082015260800190565b6020808252602f908201527f416363657373436f6e74726f6c3a2063616e206f6e6c792072656e6f756e636560408201526e103937b632b9903337b91039b2b63360891b606082015260800190565b602080825260149082015273426f72696e674d6174683a20446976207a65726f60601b604082015260600190565b6001600160801b0393909316835290151560208301521515604082015260600190565b6001600160801b0392831681529116602082015260400190565b918252602082015260400190565b6001600160401b0393841681529190921660208201526001600160801b03909116604082015260600190565b6000808335601e1984360301811261509e578283fd5b8301803591506001600160401b038211156150b7578283fd5b602001915036819003821315611b9d57600080fd5b60009081526020902090565b60005b838110156150f35781810151838201526020016150db565b838111156111435750506000910152565b6001600160a01b038116811461128057600080fd5b801515811461128057600080fd5b60ff8116811461128057600080fdfe9d49f397ae9ef1a834b569acb967799a367061e305932181a44f5773da873bfd97667070c54ef182b0f5858b034beac1b6f3089aa2d3188bb1e8929f4fa9b9299f2df0fed2c77648de5860a4cc508cd0818c85b8b8a1ab4ceeef8d981c8956a64920756e6465727374616e6420746861742049276d20696e746572616374696e672077697468206120736d61727420636f6e74726163742e204920756e6465727374616e64207468617420746f6b656e7320636f6d6d697474656420617265207375626a65637420746f2074686520746f6b656e2069737375657220616e64206c6f63616c206c617773207768657265206170706c696361626c652e204920726576696577656420636f6465206f662074686520736d61727420636f6e747261637420616e6420756e6465727374616e642069742066756c6c792e204920616772656520746f206e6f7420686f6c6420646576656c6f70657273206f72206f746865722070656f706c65206173736f6369617465642077697468207468652070726f6a656374206c6961626c6520666f7220616e79206c6f73736573206f72206d6973756e6465727374616e64696e6773a26469706673582212201d0ae3e1a50ba15b6a744e87be808ae2cfaf3a620e8481536d1c4d3060d9ae8964736f6c634300060c0033",
  "devdoc": {
    "kind": "dev",
    "methods": {
      "addAdminRole(address)": {
        "details": "The sender must have the admin role.",
        "params": {
          "_address": "EOA or contract receiving the new role."
        }
      },
      "addMinterRole(address)": {
        "details": "The sender must have the admin role",
        "params": {
          "_address": "EOA or contract receiving the new role"
        }
      },
      "addOperatorRole(address)": {
        "details": "The sender must have the admin role",
        "params": {
          "_address": "EOA or contract receiving the new role"
        }
      },
      "addSmartContractRole(address)": {
        "details": "The sender must have the admin role",
        "params": {
          "_address": "EOA or contract receiving the new role"
        }
      },
      "auctionEnded()": {
        "returns": {
          "_0": "True if auction is successful or time has ended."
        }
      },
      "auctionSuccessful()": {
        "returns": {
          "_0": "True if tokenPrice is bigger or equal clearingPrice."
        }
      },
      "batch(bytes[],bool)": {
        "params": {
          "calls": "An array of inputs for each call.",
          "revertOnFail": "If True then reverts after a failed call and stops doing further calls."
        },
        "returns": {
          "results": "An array with the returned data of each function call, mapped one-to-one to `calls`.",
          "successes": "An array indicating the success of a call, mapped one-to-one to `calls`."
        }
      },
      "calculateCommitment(uint256)": {
        "params": {
          "_commitment": "Commitment user would like to make."
        },
        "returns": {
          "committed": "Amount allowed to commit."
        }
      },
      "cancelAuction()": {
        "details": "Admin can cancel the auction before it starts"
      },
      "clearingPrice()": {
        "returns": {
          "_0": "The bigger from tokenPrice and priceFunction."
        }
      },
      "commitEth(address,bool)": {
        "params": {
          "_beneficiary": "Auction participant ETH address."
        }
      },
      "commitTokens(uint256,bool)": {
        "params": {
          "_amount": "Amount of tokens to commit."
        }
      },
      "commitTokensFrom(address,uint256,bool)": {
        "details": "Users must approve contract prior to committing tokens to auction.",
        "params": {
          "_amount": "Amount of approved ERC20 tokens.",
          "_from": "User ERC20 address."
        }
      },
      "finalize()": {
        "details": "Transfer contract funds to initialized wallet."
      },
      "finalizeTimeExpired()": {
        "returns": {
          "_0": "Returns true if 7 days have passed since the end of the auction"
        }
      },
      "finalized()": {
        "returns": {
          "_0": "Returns true if market has been finalized"
        }
      },
      "getAllDocuments()": {
        "returns": {
          "_0": "string List of all documents names present in the contract."
        }
      },
      "getAuctionInitData(address,address,uint256,uint256,uint256,address,uint256,uint256,address,address,address)": {
        "params": {
          "_admin": "Address that can finalize auction.",
          "_endTime": "Auction end time.",
          "_funder": "The address that funds the token for DutchAuction.",
          "_minimumPrice": "The minimum auction price.",
          "_paymentCurrency": "The currency the DutchAuction accepts for payment. Can be ETH or token address.",
          "_pointList": "Address that will manage auction approvals.",
          "_startPrice": "Starting price of the auction.",
          "_startTime": "Auction start time.",
          "_token": "Address of the token being sold.",
          "_totalTokens": "The total number of tokens to sell in auction.",
          "_wallet": "Address where collected funds will be forwarded to."
        },
        "returns": {
          "_data": "All the data in bytes format."
        }
      },
      "getDocument(string)": {
        "params": {
          "_name": "Name of the document"
        },
        "returns": {
          "_0": "string The data associated with the document.",
          "_1": "uint256 the timestamp at which the document was last modified."
        }
      },
      "getDocumentCount()": {
        "returns": {
          "_0": "uint256 Count of the document names present in the contract."
        }
      },
      "getDocumentName(uint256)": {
        "returns": {
          "_0": "string Name of the document name."
        }
      },
      "getRoleAdmin(bytes32)": {
        "details": "Returns the admin role that controls `role`. See {grantRole} and {revokeRole}. To change a role's admin, use {_setRoleAdmin}."
      },
      "getRoleMember(bytes32,uint256)": {
        "details": "Returns one of the accounts that have `role`. `index` must be a value between 0 and {getRoleMemberCount}, non-inclusive. Role bearers are not sorted in any particular way, and their ordering may change at any point. WARNING: When using {getRoleMember} and {getRoleMemberCount}, make sure you perform all queries on the same block. See the following https://forum.openzeppelin.com/t/iterating-over-elements-on-enumerableset-in-openzeppelin-contracts/2296[forum post] for more information."
      },
      "getRoleMemberCount(bytes32)": {
        "details": "Returns the number of accounts that have `role`. Can be used together with {getRoleMember} to enumerate all bearers of a role."
      },
      "grantRole(bytes32,address)": {
        "details": "Grants `role` to `account`. If `account` had not been already granted `role`, emits a {RoleGranted} event. Requirements: - the caller must have ``role``'s admin role."
      },
      "hasAdminRole(address)": {
        "params": {
          "_address": "EOA or contract being checked."
        },
        "returns": {
          "_0": "bool True if the account has the role or false if it does not."
        }
      },
      "hasMinterRole(address)": {
        "params": {
          "_address": "EOA or contract being checked"
        },
        "returns": {
          "_0": "bool True if the account has the role or false if it does not"
        }
      },
      "hasOperatorRole(address)": {
        "params": {
          "_address": "EOA or contract being checked"
        },
        "returns": {
          "_0": "bool True if the account has the role or false if it does not"
        }
      },
      "hasRole(bytes32,address)": {
        "details": "Returns `true` if `account` has been granted `role`."
      },
      "hasSmartContractRole(address)": {
        "params": {
          "_address": "EOA or contract being checked"
        },
        "returns": {
          "_0": "bool True if the account has the role or false if it does not"
        }
      },
      "init(bytes)": {
        "params": {
          "_data": "Encoded data for initialization."
        }
      },
      "initAccessControls(address)": {
        "params": {
          "_admin": "Admins address."
        }
      },
      "initAuction(address,address,uint256,uint256,uint256,address,uint256,uint256,address,address,address)": {
        "details": "Init function.",
        "params": {
          "_admin": "Address that can finalize auction.",
          "_endTime": "Auction end time.",
          "_funder": "The address that funds the token for DutchAuction.",
          "_minimumPrice": "The minimum auction price.",
          "_paymentCurrency": "The currency the DutchAuction accepts for payment. Can be ETH or token address.",
          "_pointList": "Address that will manage auction approvals.",
          "_startPrice": "Starting price of the auction.",
          "_startTime": "Auction start time.",
          "_token": "Address of the token being sold.",
          "_totalTokens": "The total number of tokens to sell in auction.",
          "_wallet": "Address where collected funds will be forwarded to."
        }
      },
      "isOpen()": {
        "returns": {
          "_0": "True if current time is greater than startTime and less than endTime."
        }
      },
      "marketParticipationAgreement()": {
        "details": "Attribution to the awesome delta.financial contracts"
      },
      "priceDrop()": {
        "returns": {
          "_0": "Value calculated from auction start and end price difference divided the auction duration."
        }
      },
      "priceFunction()": {
        "returns": {
          "_0": "Fixed start price or minimum price if outside of auction time, otherwise calculated current price."
        }
      },
      "removeAdminRole(address)": {
        "details": "The sender must have the admin role.",
        "params": {
          "_address": "EOA or contract affected."
        }
      },
      "removeMinterRole(address)": {
        "details": "The sender must have the admin role",
        "params": {
          "_address": "EOA or contract affected"
        }
      },
      "removeOperatorRole(address)": {
        "details": "The sender must have the admin role",
        "params": {
          "_address": "EOA or contract affected"
        }
      },
      "removeSmartContractRole(address)": {
        "details": "The sender must have the admin role",
        "params": {
          "_address": "EOA or contract affected"
        }
      },
      "renounceRole(bytes32,address)": {
        "details": "Revokes `role` from the calling account. Roles are often managed via {grantRole} and {revokeRole}: this function's purpose is to provide a mechanism for accounts to lose their privileges if they are compromised (such as when a trusted device is misplaced). If the calling account had been granted `role`, emits a {RoleRevoked} event. Requirements: - the caller must be `account`."
      },
      "revokeRole(bytes32,address)": {
        "details": "Revokes `role` from `account`. If `account` had been granted `role`, emits a {RoleRevoked} event. Requirements: - the caller must have ``role``'s admin role."
      },
      "setAuctionPrice(uint256,uint256)": {
        "params": {
          "_minimumPrice": "Auction minimum price.",
          "_startPrice": "Auction start price."
        }
      },
      "setAuctionTime(uint256,uint256)": {
        "params": {
          "_endTime": "Auction end time.",
          "_startTime": "Auction start time."
        }
      },
      "setAuctionWallet(address)": {
        "params": {
          "_wallet": "Auction wallet is where funds will be sent."
        }
      },
      "tokenPrice()": {
        "returns": {
          "_0": "Average token price."
        }
      },
      "tokensClaimable(address)": {
        "params": {
          "_user": "Auction participant address."
        },
        "returns": {
          "claimerCommitment": "User commitments reduced by already claimed tokens."
        }
      },
      "totalTokensCommitted()": {
        "returns": {
          "_0": "Number of tokens committed."
        }
      },
      "withdrawTokens(address)": {
        "details": "Withdraw tokens only after auction ends.",
        "params": {
          "beneficiary": "Whose tokens will be withdrawn."
        }
      }
    },
    "stateVariables": {
      "ETH_ADDRESS": {
        "details": "The placeholder ETH address."
      },
      "marketTemplate": {
        "details": "For different marketplace types, this must be incremented."
      }
    },
    "version": 1
  },
  "userdoc": {
    "events": {
      "AddedCommitment(address,uint256)": {
        "notice": "Event for adding a commitment."
      },
      "AuctionCancelled()": {
        "notice": "Event for cancellation of the auction."
      },
      "AuctionDeployed(address,address,uint256,address,address,address)": {
        "notice": "Event for all auction data. Emmited on deployment."
      },
      "AuctionFinalized()": {
        "notice": "Event for finalization of the auction."
      },
      "AuctionPointListUpdated(address,bool)": {
        "notice": "Event for updating the point list."
      },
      "AuctionPriceUpdated(uint256,uint256)": {
        "notice": "Event for updating auction prices. Needs to be before auction starts."
      },
      "AuctionTimeUpdated(uint256,uint256)": {
        "notice": "Event for updating auction times.  Needs to be before auction starts."
      },
      "AuctionWalletUpdated(address)": {
        "notice": "Event for updating auction wallet. Needs to be before auction starts."
      },
      "TokensWithdrawn(address,address,uint256)": {
        "notice": "Event for token withdrawals."
      }
    },
    "kind": "user",
    "methods": {
      "MINTER_ROLE()": {
        "notice": "Role definitions"
      },
      "addAdminRole(address)": {
        "notice": "Grants the admin role to an address."
      },
      "addMinterRole(address)": {
        "notice": "Grants the minter role to an address"
      },
      "addOperatorRole(address)": {
        "notice": "Grants the operator role to an address"
      },
      "addSmartContractRole(address)": {
        "notice": "Grants the smart contract role to an address"
      },
      "auctionEnded()": {
        "notice": "Checks if the auction has ended."
      },
      "auctionSuccessful()": {
        "notice": "Successful if tokens sold equals totalTokens."
      },
      "auctionToken()": {
        "notice": "The token being sold."
      },
      "batch(bytes[],bool)": {
        "notice": "Allows batched call to self (this contract)."
      },
      "calculateCommitment(uint256)": {
        "notice": "Calculates the amount able to be committed during an auction."
      },
      "cancelAuction()": {
        "notice": "Cancel Auction"
      },
      "claimed(address)": {
        "notice": "Amount of tokens to claim per address."
      },
      "clearingPrice()": {
        "notice": "The current clearing price of the Dutch auction."
      },
      "commitEth(address,bool)": {
        "notice": "Checks the amount of ETH to commit and adds the commitment. Refunds the buyer if commit is too high."
      },
      "commitTokens(uint256,bool)": {
        "notice": "Buy Tokens by commiting approved ERC20 tokens to this contract address."
      },
      "commitTokensFrom(address,uint256,bool)": {
        "notice": "Checks how much is user able to commit and processes that commitment."
      },
      "commitments(address)": {
        "notice": "The committed amount of accounts."
      },
      "finalize()": {
        "notice": "Auction finishes successfully above the reserve."
      },
      "getAllDocuments()": {
        "notice": "Used to retrieve a full list of documents attached to the smart contract."
      },
      "getAuctionInitData(address,address,uint256,uint256,uint256,address,uint256,uint256,address,address,address)": {
        "notice": "Collects data to initialize the auction and encodes them."
      },
      "getDocument(string)": {
        "notice": "Used to return the details of a document with a known name (`string`)."
      },
      "getDocumentCount()": {
        "notice": "Used to retrieve the total documents in the smart contract."
      },
      "getDocumentName(uint256)": {
        "notice": "Used to retrieve the document name from index in the smart contract."
      },
      "hasAdminRole(address)": {
        "notice": "Used to check whether an address has the admin role."
      },
      "hasMinterRole(address)": {
        "notice": "Used to check whether an address has the minter role"
      },
      "hasOperatorRole(address)": {
        "notice": "Used to check whether an address has the operator role"
      },
      "hasSmartContractRole(address)": {
        "notice": "Used to check whether an address has the smart contract role"
      },
      "init(bytes)": {
        "notice": "Decodes and hands auction data to the initAuction function."
      },
      "initAccessControls(address)": {
        "notice": "Initializes access controls."
      },
      "initAuction(address,address,uint256,uint256,uint256,address,uint256,uint256,address,address,address)": {
        "notice": "Initializes main contract variables and transfers funds for the auction."
      },
      "isOpen()": {
        "notice": "Checks if the auction is open."
      },
      "marketTemplate()": {
        "notice": "MISOMarket template id for the factory contract."
      },
      "paymentCurrency()": {
        "notice": "The currency the auction accepts for payment. Can be ETH or token address."
      },
      "permitToken(address,address,address,uint256,uint256,uint8,bytes32,bytes32)": {
        "notice": "Call wrapper that performs `ERC20.permit` on `token`. Lookup `IERC20.permit`."
      },
      "pointList()": {
        "notice": "Address that manages auction approvals."
      },
      "priceDrop()": {
        "notice": "Calculates the pricedrop factor."
      },
      "priceFunction()": {
        "notice": "Returns auction price in any time."
      },
      "removeAdminRole(address)": {
        "notice": "Removes the admin role from an address."
      },
      "removeMinterRole(address)": {
        "notice": "Removes the minter role from an address"
      },
      "removeOperatorRole(address)": {
        "notice": "Removes the operator role from an address"
      },
      "removeSmartContractRole(address)": {
        "notice": "Removes the smart contract role from an address"
      },
      "setAuctionPrice(uint256,uint256)": {
        "notice": "Admin can set start and min price through this function."
      },
      "setAuctionTime(uint256,uint256)": {
        "notice": "Admin can set start and end time through this function."
      },
      "setAuctionWallet(address)": {
        "notice": "Admin can set the auction wallet through this function."
      },
      "tokenPrice()": {
        "notice": "Calculates the average price of each token from all commitments."
      },
      "tokensClaimable(address)": {
        "notice": "How many tokens the user is able to claim."
      },
      "totalTokensCommitted()": {
        "notice": "Calculates total amount of tokens committed at current auction price."
      },
      "wallet()": {
        "notice": "Where the auction funds will get paid."
      },
      "withdrawTokens()": {
        "notice": "Withdraws bought tokens, or returns commitment if the sale is unsuccessful."
      },
      "withdrawTokens(address)": {
        "notice": "Withdraws bought tokens, or returns commitment if the sale is unsuccessful."
      }
    },
    "notice": "Attribution to delta.financialAttribution to dutchswap.com",
    "version": 1
  },
  "storageLayout": {
    "storage": [
      {
        "astId": 3230,
        "contract": "contracts/Auctions/DutchAuction.sol:DutchAuction",
        "label": "_roles",
        "offset": 0,
        "slot": "0",
        "type": "t_mapping(t_bytes32,t_struct(RoleData)3226_storage)"
      },
      {
        "astId": 468,
        "contract": "contracts/Auctions/DutchAuction.sol:DutchAuction",
        "label": "initAccess",
        "offset": 0,
        "slot": "1",
        "type": "t_bool"
      },
      {
        "astId": 6092,
        "contract": "contracts/Auctions/DutchAuction.sol:DutchAuction",
        "label": "_documents",
        "offset": 0,
        "slot": "2",
        "type": "t_mapping(t_string_memory_ptr,t_struct(Document)6088_storage)"
      },
      {
        "astId": 6096,
        "contract": "contracts/Auctions/DutchAuction.sol:DutchAuction",
        "label": "_docIndexes",
        "offset": 0,
        "slot": "3",
        "type": "t_mapping(t_string_memory_ptr,t_uint32)"
      },
      {
        "astId": 6099,
        "contract": "contracts/Auctions/DutchAuction.sol:DutchAuction",
        "label": "_docNames",
        "offset": 0,
        "slot": "4",
        "type": "t_array(t_string_storage)dyn_storage"
      },
      {
        "astId": 5239,
        "contract": "contracts/Auctions/DutchAuction.sol:DutchAuction",
        "label": "_status",
        "offset": 0,
        "slot": "5",
        "type": "t_uint256"
      },
      {
        "astId": 593,
        "contract": "contracts/Auctions/DutchAuction.sol:DutchAuction",
        "label": "fee",
        "offset": 0,
        "slot": "6",
        "type": "t_uint256"
      },
      {
        "astId": 598,
        "contract": "contracts/Auctions/DutchAuction.sol:DutchAuction",
        "label": "feeWallet",
        "offset": 0,
        "slot": "7",
        "type": "t_address_payable"
      },
      {
        "astId": 607,
        "contract": "contracts/Auctions/DutchAuction.sol:DutchAuction",
        "label": "marketInfo",
        "offset": 0,
        "slot": "8",
        "type": "t_struct(MarketInfo)605_storage"
      },
      {
        "astId": 614,
        "contract": "contracts/Auctions/DutchAuction.sol:DutchAuction",
        "label": "marketPrice",
        "offset": 0,
        "slot": "9",
        "type": "t_struct(MarketPrice)612_storage"
      },
      {
        "astId": 623,
        "contract": "contracts/Auctions/DutchAuction.sol:DutchAuction",
        "label": "marketStatus",
        "offset": 0,
        "slot": "10",
        "type": "t_struct(MarketStatus)621_storage"
      },
      {
        "astId": 626,
        "contract": "contracts/Auctions/DutchAuction.sol:DutchAuction",
        "label": "auctionToken",
        "offset": 0,
        "slot": "11",
        "type": "t_address"
      },
      {
        "astId": 629,
        "contract": "contracts/Auctions/DutchAuction.sol:DutchAuction",
        "label": "paymentCurrency",
        "offset": 0,
        "slot": "12",
        "type": "t_address"
      },
      {
        "astId": 632,
        "contract": "contracts/Auctions/DutchAuction.sol:DutchAuction",
        "label": "wallet",
        "offset": 0,
        "slot": "13",
        "type": "t_address_payable"
      },
      {
        "astId": 635,
        "contract": "contracts/Auctions/DutchAuction.sol:DutchAuction",
        "label": "pointList",
        "offset": 0,
        "slot": "14",
        "type": "t_address"
      },
      {
        "astId": 640,
        "contract": "contracts/Auctions/DutchAuction.sol:DutchAuction",
        "label": "commitments",
        "offset": 0,
        "slot": "15",
        "type": "t_mapping(t_address,t_uint256)"
      },
      {
        "astId": 645,
        "contract": "contracts/Auctions/DutchAuction.sol:DutchAuction",
        "label": "claimed",
        "offset": 0,
        "slot": "16",
        "type": "t_mapping(t_address,t_uint256)"
      }
    ],
    "types": {
      "t_address": {
        "encoding": "inplace",
        "label": "address",
        "numberOfBytes": "20"
      },
      "t_address_payable": {
        "encoding": "inplace",
        "label": "address payable",
        "numberOfBytes": "20"
      },
      "t_array(t_bytes32)dyn_storage": {
        "base": "t_bytes32",
        "encoding": "dynamic_array",
        "label": "bytes32[]",
        "numberOfBytes": "32"
      },
      "t_array(t_string_storage)dyn_storage": {
        "base": "t_string_storage",
        "encoding": "dynamic_array",
        "label": "string[]",
        "numberOfBytes": "32"
      },
      "t_bool": {
        "encoding": "inplace",
        "label": "bool",
        "numberOfBytes": "1"
      },
      "t_bytes32": {
        "encoding": "inplace",
        "label": "bytes32",
        "numberOfBytes": "32"
      },
      "t_mapping(t_address,t_uint256)": {
        "encoding": "mapping",
        "key": "t_address",
        "label": "mapping(address => uint256)",
        "numberOfBytes": "32",
        "value": "t_uint256"
      },
      "t_mapping(t_bytes32,t_struct(RoleData)3226_storage)": {
        "encoding": "mapping",
        "key": "t_bytes32",
        "label": "mapping(bytes32 => struct AccessControl.RoleData)",
        "numberOfBytes": "32",
        "value": "t_struct(RoleData)3226_storage"
      },
      "t_mapping(t_bytes32,t_uint256)": {
        "encoding": "mapping",
        "key": "t_bytes32",
        "label": "mapping(bytes32 => uint256)",
        "numberOfBytes": "32",
        "value": "t_uint256"
      },
      "t_mapping(t_string_memory_ptr,t_struct(Document)6088_storage)": {
        "encoding": "mapping",
        "key": "t_string_memory_ptr",
        "label": "mapping(string => struct Documents.Document)",
        "numberOfBytes": "32",
        "value": "t_struct(Document)6088_storage"
      },
      "t_mapping(t_string_memory_ptr,t_uint32)": {
        "encoding": "mapping",
        "key": "t_string_memory_ptr",
        "label": "mapping(string => uint32)",
        "numberOfBytes": "32",
        "value": "t_uint32"
      },
      "t_string_memory_ptr": {
        "encoding": "bytes",
        "label": "string",
        "numberOfBytes": "32"
      },
      "t_string_storage": {
        "encoding": "bytes",
        "label": "string",
        "numberOfBytes": "32"
      },
      "t_struct(AddressSet)4920_storage": {
        "encoding": "inplace",
        "label": "struct EnumerableSet.AddressSet",
        "members": [
          {
            "astId": 4919,
            "contract": "contracts/Auctions/DutchAuction.sol:DutchAuction",
            "label": "_inner",
            "offset": 0,
            "slot": "0",
            "type": "t_struct(Set)4655_storage"
          }
        ],
        "numberOfBytes": "64"
      },
      "t_struct(Document)6088_storage": {
        "encoding": "inplace",
        "label": "struct Documents.Document",
        "members": [
          {
            "astId": 6083,
            "contract": "contracts/Auctions/DutchAuction.sol:DutchAuction",
            "label": "docIndex",
            "offset": 0,
            "slot": "0",
            "type": "t_uint32"
          },
          {
            "astId": 6085,
            "contract": "contracts/Auctions/DutchAuction.sol:DutchAuction",
            "label": "lastModified",
            "offset": 4,
            "slot": "0",
            "type": "t_uint64"
          },
          {
            "astId": 6087,
            "contract": "contracts/Auctions/DutchAuction.sol:DutchAuction",
            "label": "data",
            "offset": 0,
            "slot": "1",
            "type": "t_string_storage"
          }
        ],
        "numberOfBytes": "64"
      },
      "t_struct(MarketInfo)605_storage": {
        "encoding": "inplace",
        "label": "struct DutchAuction.MarketInfo",
        "members": [
          {
            "astId": 600,
            "contract": "contracts/Auctions/DutchAuction.sol:DutchAuction",
            "label": "startTime",
            "offset": 0,
            "slot": "0",
            "type": "t_uint64"
          },
          {
            "astId": 602,
            "contract": "contracts/Auctions/DutchAuction.sol:DutchAuction",
            "label": "endTime",
            "offset": 8,
            "slot": "0",
            "type": "t_uint64"
          },
          {
            "astId": 604,
            "contract": "contracts/Auctions/DutchAuction.sol:DutchAuction",
            "label": "totalTokens",
            "offset": 16,
            "slot": "0",
            "type": "t_uint128"
          }
        ],
        "numberOfBytes": "32"
      },
      "t_struct(MarketPrice)612_storage": {
        "encoding": "inplace",
        "label": "struct DutchAuction.MarketPrice",
        "members": [
          {
            "astId": 609,
            "contract": "contracts/Auctions/DutchAuction.sol:DutchAuction",
            "label": "startPrice",
            "offset": 0,
            "slot": "0",
            "type": "t_uint128"
          },
          {
            "astId": 611,
            "contract": "contracts/Auctions/DutchAuction.sol:DutchAuction",
            "label": "minimumPrice",
            "offset": 16,
            "slot": "0",
            "type": "t_uint128"
          }
        ],
        "numberOfBytes": "32"
      },
      "t_struct(MarketStatus)621_storage": {
        "encoding": "inplace",
        "label": "struct DutchAuction.MarketStatus",
        "members": [
          {
            "astId": 616,
            "contract": "contracts/Auctions/DutchAuction.sol:DutchAuction",
            "label": "commitmentsTotal",
            "offset": 0,
            "slot": "0",
            "type": "t_uint128"
          },
          {
            "astId": 618,
            "contract": "contracts/Auctions/DutchAuction.sol:DutchAuction",
            "label": "finalized",
            "offset": 16,
            "slot": "0",
            "type": "t_bool"
          },
          {
            "astId": 620,
            "contract": "contracts/Auctions/DutchAuction.sol:DutchAuction",
            "label": "usePointList",
            "offset": 17,
            "slot": "0",
            "type": "t_bool"
          }
        ],
        "numberOfBytes": "32"
      },
      "t_struct(RoleData)3226_storage": {
        "encoding": "inplace",
        "label": "struct AccessControl.RoleData",
        "members": [
          {
            "astId": 3223,
            "contract": "contracts/Auctions/DutchAuction.sol:DutchAuction",
            "label": "members",
            "offset": 0,
            "slot": "0",
            "type": "t_struct(AddressSet)4920_storage"
          },
          {
            "astId": 3225,
            "contract": "contracts/Auctions/DutchAuction.sol:DutchAuction",
            "label": "adminRole",
            "offset": 0,
            "slot": "2",
            "type": "t_bytes32"
          }
        ],
        "numberOfBytes": "96"
      },
      "t_struct(Set)4655_storage": {
        "encoding": "inplace",
        "label": "struct EnumerableSet.Set",
        "members": [
          {
            "astId": 4650,
            "contract": "contracts/Auctions/DutchAuction.sol:DutchAuction",
            "label": "_values",
            "offset": 0,
            "slot": "0",
            "type": "t_array(t_bytes32)dyn_storage"
          },
          {
            "astId": 4654,
            "contract": "contracts/Auctions/DutchAuction.sol:DutchAuction",
            "label": "_indexes",
            "offset": 0,
            "slot": "1",
            "type": "t_mapping(t_bytes32,t_uint256)"
          }
        ],
        "numberOfBytes": "64"
      },
      "t_uint128": {
        "encoding": "inplace",
        "label": "uint128",
        "numberOfBytes": "16"
      },
      "t_uint256": {
        "encoding": "inplace",
        "label": "uint256",
        "numberOfBytes": "32"
      },
      "t_uint32": {
        "encoding": "inplace",
        "label": "uint32",
        "numberOfBytes": "4"
      },
      "t_uint64": {
        "encoding": "inplace",
        "label": "uint64",
        "numberOfBytes": "8"
      }
    }
  }
}