{
  "address": "0xD390a346542A83f7E5B4D5672638Be8F4c765B9f",
  "abi": [
    {
      "inputs": [],
      "stateMutability": "nonpayable",
      "type": "constructor"
    },
    {
      "anonymous": false,
      "inputs": [
        {
          "indexed": false,
          "internalType": "address",
          "name": "newAuction",
          "type": "address"
        },
        {
          "indexed": false,
          "internalType": "uint256",
          "name": "templateId",
          "type": "uint256"
        }
      ],
      "name": "AuctionTemplateAdded",
      "type": "event"
    },
    {
      "anonymous": false,
      "inputs": [
        {
          "indexed": false,
          "internalType": "address",
          "name": "auction",
          "type": "address"
        },
        {
          "indexed": false,
          "internalType": "uint256",
          "name": "templateId",
          "type": "uint256"
        }
      ],
      "name": "AuctionTemplateRemoved",
      "type": "event"
    },
    {
      "anonymous": false,
      "inputs": [
        {
          "indexed": true,
          "internalType": "address",
          "name": "owner",
          "type": "address"
        },
        {
          "indexed": true,
          "internalType": "address",
          "name": "addr",
          "type": "address"
        },
        {
          "indexed": false,
          "internalType": "address",
          "name": "marketTemplate",
          "type": "address"
        }
      ],
      "name": "MarketCreated",
      "type": "event"
    },
    {
      "anonymous": false,
      "inputs": [
        {
          "indexed": false,
          "internalType": "address",
          "name": "sender",
          "type": "address"
        }
      ],
      "name": "MisoInitMarket",
      "type": "event"
    },
    {
      "anonymous": false,
      "inputs": [
        {
          "indexed": false,
          "internalType": "address",
          "name": "token",
          "type": "address"
        },
        {
          "indexed": false,
          "internalType": "address",
          "name": "to",
          "type": "address"
        },
        {
          "indexed": false,
          "internalType": "uint256",
          "name": "amount",
          "type": "uint256"
        }
      ],
      "name": "TokensWithdrawn",
      "type": "event"
    },
    {
      "inputs": [],
      "name": "MARKET_MINTER_ROLE",
      "outputs": [
        {
          "internalType": "bytes32",
          "name": "",
          "type": "bytes32"
        }
      ],
      "stateMutability": "view",
      "type": "function"
    },
    {
      "inputs": [],
      "name": "accessControls",
      "outputs": [
        {
          "internalType": "contract MISOAccessControls",
          "name": "",
          "type": "address"
        }
      ],
      "stateMutability": "view",
      "type": "function"
    },
    {
      "inputs": [
        {
          "internalType": "address",
          "name": "_template",
          "type": "address"
        }
      ],
      "name": "addAuctionTemplate",
      "outputs": [],
      "stateMutability": "nonpayable",
      "type": "function"
    },
    {
      "inputs": [
        {
          "internalType": "address",
          "name": "",
          "type": "address"
        }
      ],
      "name": "auctionInfo",
      "outputs": [
        {
          "internalType": "bool",
          "name": "exists",
          "type": "bool"
        },
        {
          "internalType": "uint64",
          "name": "templateId",
          "type": "uint64"
        },
        {
          "internalType": "uint128",
          "name": "index",
          "type": "uint128"
        }
      ],
      "stateMutability": "view",
      "type": "function"
    },
    {
      "inputs": [],
      "name": "auctionTemplateId",
      "outputs": [
        {
          "internalType": "uint256",
          "name": "",
          "type": "uint256"
        }
      ],
      "stateMutability": "view",
      "type": "function"
    },
    {
      "inputs": [
        {
          "internalType": "uint256",
          "name": "",
          "type": "uint256"
        }
      ],
      "name": "auctions",
      "outputs": [
        {
          "internalType": "address",
          "name": "",
          "type": "address"
        }
      ],
      "stateMutability": "view",
      "type": "function"
    },
    {
      "inputs": [],
      "name": "auctionsLength",
      "outputs": [
        {
          "internalType": "uint256",
          "name": "",
          "type": "uint256"
        }
      ],
      "stateMutability": "view",
      "type": "function"
    },
    {
      "inputs": [],
      "name": "bentoBox",
      "outputs": [
        {
          "internalType": "contract IBentoBoxFactory",
          "name": "",
          "type": "address"
        }
      ],
      "stateMutability": "view",
      "type": "function"
    },
    {
      "inputs": [
        {
          "internalType": "uint256",
          "name": "_templateId",
          "type": "uint256"
        },
        {
          "internalType": "address",
          "name": "_token",
          "type": "address"
        },
        {
          "internalType": "uint256",
          "name": "_tokenSupply",
          "type": "uint256"
        },
        {
          "internalType": "address payable",
          "name": "_integratorFeeAccount",
          "type": "address"
        },
        {
          "internalType": "bytes",
          "name": "_data",
          "type": "bytes"
        }
      ],
      "name": "createMarket",
      "outputs": [
        {
          "internalType": "address",
          "name": "newMarket",
          "type": "address"
        }
      ],
      "stateMutability": "payable",
      "type": "function"
    },
    {
      "inputs": [
        {
          "internalType": "uint256",
          "name": "",
          "type": "uint256"
        }
      ],
      "name": "currentTemplateId",
      "outputs": [
        {
          "internalType": "uint256",
          "name": "",
          "type": "uint256"
        }
      ],
      "stateMutability": "view",
      "type": "function"
    },
    {
      "inputs": [
        {
          "internalType": "uint256",
          "name": "_templateId",
          "type": "uint256"
        },
        {
          "internalType": "address payable",
          "name": "_integratorFeeAccount",
          "type": "address"
        }
      ],
      "name": "deployMarket",
      "outputs": [
        {
          "internalType": "address",
          "name": "newMarket",
          "type": "address"
        }
      ],
      "stateMutability": "payable",
      "type": "function"
    },
    {
      "inputs": [
        {
          "internalType": "uint256",
          "name": "_templateId",
          "type": "uint256"
        }
      ],
      "name": "getAuctionTemplate",
      "outputs": [
        {
          "internalType": "address",
          "name": "",
          "type": "address"
        }
      ],
      "stateMutability": "view",
      "type": "function"
    },
    {
      "inputs": [
        {
          "internalType": "address",
          "name": "_auction",
          "type": "address"
        }
      ],
      "name": "getMarketTemplateId",
      "outputs": [
        {
          "internalType": "uint64",
          "name": "",
          "type": "uint64"
        }
      ],
      "stateMutability": "view",
      "type": "function"
    },
    {
      "inputs": [],
      "name": "getMarkets",
      "outputs": [
        {
          "internalType": "address[]",
          "name": "",
          "type": "address[]"
        }
      ],
      "stateMutability": "view",
      "type": "function"
    },
    {
      "inputs": [
        {
          "internalType": "address",
          "name": "_auctionTemplate",
          "type": "address"
        }
      ],
      "name": "getTemplateId",
      "outputs": [
        {
          "internalType": "uint256",
          "name": "",
          "type": "uint256"
        }
      ],
      "stateMutability": "view",
      "type": "function"
    },
    {
      "inputs": [
        {
          "internalType": "address",
          "name": "_address",
          "type": "address"
        }
      ],
      "name": "hasMarketMinterRole",
      "outputs": [
        {
          "internalType": "bool",
          "name": "",
          "type": "bool"
        }
      ],
      "stateMutability": "view",
      "type": "function"
    },
    {
      "inputs": [
        {
          "internalType": "address",
          "name": "_accessControls",
          "type": "address"
        },
        {
          "internalType": "address",
          "name": "_bentoBox",
          "type": "address"
        },
        {
          "internalType": "address[]",
          "name": "_templates",
          "type": "address[]"
        }
      ],
      "name": "initMISOMarket",
      "outputs": [],
      "stateMutability": "nonpayable",
      "type": "function"
    },
    {
      "inputs": [],
      "name": "locked",
      "outputs": [
        {
          "internalType": "bool",
          "name": "",
          "type": "bool"
        }
      ],
      "stateMutability": "view",
      "type": "function"
    },
    {
      "inputs": [],
      "name": "marketFees",
      "outputs": [
        {
          "internalType": "uint128",
          "name": "minimumFee",
          "type": "uint128"
        },
        {
          "internalType": "uint32",
          "name": "integratorFeePct",
          "type": "uint32"
        }
      ],
      "stateMutability": "view",
      "type": "function"
    },
    {
      "inputs": [],
      "name": "minimumFee",
      "outputs": [
        {
          "internalType": "uint128",
          "name": "",
          "type": "uint128"
        }
      ],
      "stateMutability": "view",
      "type": "function"
    },
    {
      "inputs": [],
      "name": "misoDiv",
      "outputs": [
        {
          "internalType": "address payable",
          "name": "",
          "type": "address"
        }
      ],
      "stateMutability": "view",
      "type": "function"
    },
    {
      "inputs": [],
      "name": "numberOfAuctions",
      "outputs": [
        {
          "internalType": "uint256",
          "name": "",
          "type": "uint256"
        }
      ],
      "stateMutability": "view",
      "type": "function"
    },
    {
      "inputs": [
        {
          "internalType": "uint256",
          "name": "_templateId",
          "type": "uint256"
        }
      ],
      "name": "removeAuctionTemplate",
      "outputs": [],
      "stateMutability": "nonpayable",
      "type": "function"
    },
    {
      "inputs": [
        {
          "internalType": "uint256",
          "name": "_templateType",
          "type": "uint256"
        },
        {
          "internalType": "uint256",
          "name": "_templateId",
          "type": "uint256"
        }
      ],
      "name": "setCurrentTemplateId",
      "outputs": [],
      "stateMutability": "nonpayable",
      "type": "function"
    },
    {
      "inputs": [
        {
          "internalType": "address payable",
          "name": "_divaddr",
          "type": "address"
        }
      ],
      "name": "setDividends",
      "outputs": [],
      "stateMutability": "nonpayable",
      "type": "function"
    },
    {
      "inputs": [
        {
          "internalType": "uint256",
          "name": "_amount",
          "type": "uint256"
        }
      ],
      "name": "setIntegratorFeePct",
      "outputs": [],
      "stateMutability": "nonpayable",
      "type": "function"
    },
    {
      "inputs": [
        {
          "internalType": "bool",
          "name": "_locked",
          "type": "bool"
        }
      ],
      "name": "setLocked",
      "outputs": [],
      "stateMutability": "nonpayable",
      "type": "function"
    },
    {
      "inputs": [
        {
          "internalType": "uint256",
          "name": "_amount",
          "type": "uint256"
        }
      ],
      "name": "setMinimumFee",
      "outputs": [],
      "stateMutability": "nonpayable",
      "type": "function"
    }
  ],
  "transactionHash": "0xf85147cb2443af431784825b6fa9c8c3a5a32f6108f9ab4ba208d3526c5ec849",
  "args": [],
  "numDeployments": 1,
  "solcInputHash": "c374b82a7239baaa546a1eb10269819a",
  "bytecode": "0x6080604052600060025534801561001557600080fd5b50612673806100256000396000f3fe6080604052600436106101b75760003560e01c80636c2eefe1116100ec578063b03434931161008a578063cf30901211610064578063cf3090121461071d578063d335ebda14610732578063d3cc6eb214610765578063ec2c90161461077a576101b7565b8063b03434931461068e578063b9551d14146106de578063c9907b0814610708576101b7565b80639e9188ea116100c65780639e9188ea146105555780639edbd90a14610588578063a5fd7565146105c5578063aa1bd2f6146105f8576101b7565b80636c2eefe1146104fb578063748365ef146105105780639e5940cc14610525576101b7565b8063390467b6116101595780634f5f2a45116101335780634f5f2a451461049257806350d9d472146104a7578063571a26a0146104bc5780636b2ace87146104e6576101b7565b8063390467b6146103f75780633f1f44b01461043e5780634b939ed714610468576101b7565b8063211e28b611610195578063211e28b61461027e578063274a2258146102aa57806328e58e4f146103735780632ed4f578146103bb576101b7565b80630448e51a146101bc578063182a7506146102215780631a7626e71461024d575b600080fd5b3480156101c857600080fd5b506101ef600480360360208110156101df57600080fd5b50356001600160a01b03166107df565b60408051931515845267ffffffffffffffff90921660208401526001600160801b031682820152519081900360600190f35b34801561022d57600080fd5b5061024b6004803603602081101561024457600080fd5b5035610816565b005b34801561025957600080fd5b506102626108fd565b604080516001600160801b039092168252519081900360200190f35b34801561028a57600080fd5b5061024b600480360360208110156102a157600080fd5b5035151561090c565b3480156102b657600080fd5b5061024b600480360360608110156102cd57600080fd5b6001600160a01b03823581169260208101359091169181019060608101604082013564010000000081111561030157600080fd5b82018360208201111561031357600080fd5b8035906020019184602083028401116401000000008311171561033557600080fd5b9190808060200260200160405190810160405280939291908181526020018383602002808284376000920191909152509295506109e7945050505050565b61039f6004803603604081101561038957600080fd5b50803590602001356001600160a01b0316610b3b565b604080516001600160a01b039092168252519081900360200190f35b3480156103c757600080fd5b506103e5600480360360208110156103de57600080fd5b503561102b565b60408051918252519081900360200190f35b34801561040357600080fd5b5061042a6004803603602081101561041a57600080fd5b50356001600160a01b031661103d565b604080519115158252519081900360200190f35b34801561044a57600080fd5b5061024b6004803603602081101561046157600080fd5b50356110e3565b34801561047457600080fd5b5061039f6004803603602081101561048b57600080fd5b5035611207565b34801561049e57600080fd5b506103e5611222565b3480156104b357600080fd5b506103e5611246565b3480156104c857600080fd5b5061039f600480360360208110156104df57600080fd5b503561124c565b3480156104f257600080fd5b5061039f611273565b34801561050757600080fd5b506103e5611282565b34801561051c57600080fd5b5061039f611288565b34801561053157600080fd5b5061024b6004803603604081101561054857600080fd5b5080359060200135611297565b34801561056157600080fd5b5061024b6004803603602081101561057857600080fd5b50356001600160a01b031661147c565b34801561059457600080fd5b5061059d611569565b604080516001600160801b03909316835263ffffffff90911660208301528051918290030190f35b3480156105d157600080fd5b5061024b600480360360208110156105e857600080fd5b50356001600160a01b0316611587565b61039f600480360360a081101561060e57600080fd5b8135916001600160a01b0360208201358116926040830135926060810135909216919081019060a08101608082013564010000000081111561064f57600080fd5b82018360208201111561066157600080fd5b8035906020019184600183028401116401000000008311171561068357600080fd5b5090925090506116c3565b34801561069a57600080fd5b506106c1600480360360208110156106b157600080fd5b50356001600160a01b0316611825565b6040805167ffffffffffffffff9092168252519081900360200190f35b3480156106ea57600080fd5b5061024b6004803603602081101561070157600080fd5b503561184f565b34801561071457600080fd5b5061039f611a97565b34801561072957600080fd5b5061042a611aab565b34801561073e57600080fd5b506103e56004803603602081101561075557600080fd5b50356001600160a01b0316611ab4565b34801561077157600080fd5b506103e5611acf565b34801561078657600080fd5b5061078f611ad5565b60408051602080825283518183015283519192839290830191858101910280838360005b838110156107cb5781810151838201526020016107b3565b505050509050019250505060405180910390f35b60086020526000908152604090205460ff811690610100810467ffffffffffffffff1690600160481b90046001600160801b031683565b6000546040805163c395fcb360e01b815233600482015290516001600160a01b039092169163c395fcb391602480820192602092909190829003018186803b15801561086157600080fd5b505afa158015610875573d6000803e3d6000fd5b505050506040513d602081101561088b57600080fd5b50516108c85760405162461bcd60e51b81526004018080602001828103825260238152602001806124066023913960400191505060405180910390fd5b6108d181611b37565b600980546fffffffffffffffffffffffffffffffff19166001600160801b039290921691909117905550565b6009546001600160801b031690565b6000546040805163c395fcb360e01b815233600482015290516001600160a01b039092169163c395fcb391602480820192602092909190829003018186803b15801561095757600080fd5b505afa15801561096b573d6000803e3d6000fd5b505050506040513d602081101561098157600080fd5b50516109d4576040805162461bcd60e51b815260206004820181905260248201527f4d49534f4d61726b65743a2053656e646572206d7573742062652061646d696e604482015290519081900360640190fd5b600a805460ff1916911515919091179055565b600054600160a01b900460ff16156109fe57600080fd5b6001600160a01b038316610a435760405162461bcd60e51b81526004018080602001828103825260348152602001806124c26034913960400191505060405180910390fd5b6001600160a01b038216610a885760405162461bcd60e51b815260040180806020018281038252602e81526020018061244a602e913960400191505060405180910390fd5b600080546001600160a01b038086166001600160a01b031992831617835560048054918616919092161790555b8151811015610ae257610ada828281518110610acd57fe5b6020026020010151611b99565b600101610ab5565b50600a805460ff191660011790556000805460ff60a01b1916600160a01b1790556040805133815290517f9728848f268715c9f5810670481aba9b347f34c21407e902d679356b7617b6b29181900360200190a1505050565b600a5460009060ff1615610c88576000546040805163c395fcb360e01b815233600482015290516001600160a01b039092169163c395fcb391602480820192602092909190829003018186803b158015610b9457600080fd5b505afa158015610ba8573d6000803e3d6000fd5b505050506040513d6020811015610bbe57600080fd5b505180610c3e57506000546040805163099db01760e01b815233600482015290516001600160a01b039092169163099db01791602480820192602092909190829003018186803b158015610c1157600080fd5b505afa158015610c25573d6000803e3d6000fd5b505050506040513d6020811015610c3b57600080fd5b50515b80610c4d5750610c4d3361103d565b610c885760405162461bcd60e51b815260040180806020018281038252602b8152602001806125dd602b913960400191505060405180910390fd5b610c906123c4565b506040805180820182526009546001600160801b038082168352600160801b90910463ffffffff16602080840191909152600087815260059091529290922054815191926001600160a01b039091169116341015610d1f5760405162461bcd60e51b815260040180806020018281038252602981526020018061258a6029913960400191505060405180910390fd5b6001600160a01b038116610d645760405162461bcd60e51b815260040180806020018281038252602a81526020018061251b602a913960400191505060405180910390fd5b6000346001600160a01b03861615801590610d925750600a546001600160a01b038781166101009092041614155b15610db5576103e8846020015163ffffffff16820281610dae57fe5b0491508190035b6004805460408051631f54245b60e01b81526001600160a01b0387811694820194909452600060448201819052606060248301526064820181905291519390921692631f54245b9260a4808201936020939283900390910190829087803b158015610e1f57600080fd5b505af1158015610e33573d6000803e3d6000fd5b505050506040513d6020811015610e4957600080fd5b505160408051606081019091526001815290955060208101610e6a89611d7e565b67ffffffffffffffff168152602001610e87600180549050611b37565b6001600160801b039081169091526001600160a01b038088166000818152600860209081526040808320875181548985015199840151909816600160481b0278ffffffffffffffffffffffffffffffff0000000000000000001967ffffffffffffffff909a166101000268ffffffffffffffff001992151560ff19909a169990991791909116979097179790971695909517909555600180548082018255918190527fb10e2d527612073b26eecdfd717e6a320cf44b4afac2b0732d9fcbe2b7fa0cf690910180546001600160a01b03191683179055600280549091019055825191871682529151919233927fe63e6130091e2155004c4b5ac35e8fb9be704d6637ff3068a8f710ba36c9f41a9281900390910190a38015610fe357600a546040516101009091046001600160a01b0316906108fc8315029083906000818181858888f19350505050158015610fe1573d6000803e3d6000fd5b505b8115611021576040516001600160a01b0387169083156108fc029084906000818181858888f1935050505015801561101f573d6000803e3d6000fd5b505b5050505092915050565b60076020526000908152604090205481565b6000805460408051632474521560e21b81527f185f85149db0f205130703941d0f9ccd8133e50df5d5080231c7704337aa2c3860048201526001600160a01b038581166024830152915191909216916391d14854916044808301926020929190829003018186803b1580156110b157600080fd5b505afa1580156110c5573d6000803e3d6000fd5b505050506040513d60208110156110db57600080fd5b505192915050565b6000546040805163c395fcb360e01b815233600482015290516001600160a01b039092169163c395fcb391602480820192602092909190829003018186803b15801561112e57600080fd5b505afa158015611142573d6000803e3d6000fd5b505050506040513d602081101561115857600080fd5b50516111955760405162461bcd60e51b81526004018080602001828103825260238152602001806124066023913960400191505060405180910390fd5b6103e88111156111d65760405162461bcd60e51b81526004018080602001828103825260258152602001806124f66025913960400191505060405180910390fd5b6111df81611ddd565b6009805463ffffffff92909216600160801b0263ffffffff60801b1990921691909117905550565b6000908152600560205260409020546001600160a01b031690565b7f185f85149db0f205130703941d0f9ccd8133e50df5d5080231c7704337aa2c3881565b60015490565b6001818154811061125957fe5b6000918252602090912001546001600160a01b0316905081565b6004546001600160a01b031681565b60035481565b6000546001600160a01b031681565b6000546040805163c395fcb360e01b815233600482015290516001600160a01b039092169163c395fcb391602480820192602092909190829003018186803b1580156112e257600080fd5b505afa1580156112f6573d6000803e3d6000fd5b505050506040513d602081101561130c57600080fd5b505161135f576040805162461bcd60e51b815260206004820181905260248201527f4d49534f4d61726b65743a2053656e646572206d7573742062652061646d696e604482015290519081900360640190fd5b6000818152600560205260409020546001600160a01b03166113b25760405162461bcd60e51b81526004018080602001828103825260218152602001806124296021913960400191505060405180910390fd5b600081815260056020908152604091829020548251630d9f230760e11b8152925185936001600160a01b0390921692631b3e460e9260048082019391829003018186803b15801561140257600080fd5b505afa158015611416573d6000803e3d6000fd5b505050506040513d602081101561142c57600080fd5b50511461146a5760405162461bcd60e51b81526004018080602001828103825260238152602001806125456023913960400191505060405180910390fd5b60009182526007602052604090912055565b6000546040805163c395fcb360e01b815233600482015290516001600160a01b039092169163c395fcb391602480820192602092909190829003018186803b1580156114c757600080fd5b505afa1580156114db573d6000803e3d6000fd5b505050506040513d60208110156114f157600080fd5b505161152e5760405162461bcd60e51b815260040180806020018281038252602a8152602001806123dc602a913960400191505060405180910390fd5b6001600160a01b03811661154157600080fd5b600a80546001600160a01b0390921661010002610100600160a81b0319909216919091179055565b6009546001600160801b03811690600160801b900463ffffffff1682565b6000546040805163c395fcb360e01b815233600482015290516001600160a01b039092169163c395fcb391602480820192602092909190829003018186803b1580156115d257600080fd5b505afa1580156115e6573d6000803e3d6000fd5b505050506040513d60208110156115fc57600080fd5b50518061167c575060005460408051637e271f0560e11b815233600482015290516001600160a01b039092169163fc4e3e0a91602480820192602092909190829003018186803b15801561164f57600080fd5b505afa158015611663573d6000803e3d6000fd5b505050506040513d602081101561167957600080fd5b50515b6116b75760405162461bcd60e51b81526004018080602001828103825260238152602001806124066023913960400191505060405180910390fd5b6116c081611b99565b50565b60006116cf8785610b3b565b905084156116f6576116e2863387611e38565b6116f66001600160a01b0387168287611f60565b60405163409a9e4760e11b8152602060048201908152602482018490526001600160a01b038316916381353c8e9186918691908190604401848480828437600081840152601f19601f8201169050808301925050509350505050600060405180830381600087803b15801561176a57600080fd5b505af115801561177e573d6000803e3d6000fd5b50505050600085111561181b576000866001600160a01b03166370a08231306040518263ffffffff1660e01b815260040180826001600160a01b0316815260200191505060206040518083038186803b1580156117da57600080fd5b505afa1580156117ee573d6000803e3d6000fd5b505050506040513d602081101561180457600080fd5b50519050801561181957611819873383612078565b505b9695505050505050565b6001600160a01b0316600090815260086020526040902054610100900467ffffffffffffffff1690565b6000546040805163c395fcb360e01b815233600482015290516001600160a01b039092169163c395fcb391602480820192602092909190829003018186803b15801561189a57600080fd5b505afa1580156118ae573d6000803e3d6000fd5b505050506040513d60208110156118c457600080fd5b505180611944575060005460408051637e271f0560e11b815233600482015290516001600160a01b039092169163fc4e3e0a91602480820192602092909190829003018186803b15801561191757600080fd5b505afa15801561192b573d6000803e3d6000fd5b505050506040513d602081101561194157600080fd5b50515b61197f5760405162461bcd60e51b81526004018080602001828103825260238152602001806124066023913960400191505060405180910390fd5b6000818152600560209081526040808320548151630d9f230760e11b815291516001600160a01b0390911693928492631b3e460e9260048083019392829003018186803b1580156119cf57600080fd5b505afa1580156119e3573d6000803e3d6000fd5b505050506040513d60208110156119f957600080fd5b5051600081815260076020526040902054909150831415611a24576000818152600760205260408120555b600083815260056020908152604080832080546001600160a01b03191690556001600160a01b0385168084526006835281842093909355805192835290820185905280517f9e451d330e5bb7320c38b55046b66305a869486110a27e84e383b9b2a329875b9281900390910190a1505050565b600a5461010090046001600160a01b031681565b600a5460ff1681565b6001600160a01b031660009081526006602052604090205490565b60025481565b60606001805480602002602001604051908101604052809291908181526020018280548015611b2d57602002820191906000526020600020905b81546001600160a01b03168152600190910190602001808311611b0f575b5050505050905090565b60006001600160801b03821115611b95576040805162461bcd60e51b815260206004820152601c60248201527f426f72696e674d6174683a2075696e74313238204f766572666c6f7700000000604482015290519081900360640190fd5b5090565b6001600160a01b038116611bf4576040805162461bcd60e51b815260206004820152601e60248201527f4d49534f4d61726b65743a20496e636f72726563742074656d706c6174650000604482015290519081900360640190fd5b6001600160a01b03811660009081526006602052604090205415611c495760405162461bcd60e51b81526004018080602001828103825260228152602001806125686022913960400191505060405180910390fd5b6000816001600160a01b0316631b3e460e6040518163ffffffff1660e01b815260040160206040518083038186803b158015611c8457600080fd5b505afa158015611c98573d6000803e3d6000fd5b505050506040513d6020811015611cae57600080fd5b5051905080611cee5760405162461bcd60e51b81526004018080602001828103825260248152602001806124786024913960400191505060405180910390fd5b60038054600101808255600090815260056020908152604080832080546001600160a01b0319166001600160a01b038816908117909155935484845260068352818420819055858452600783529281902083905580519384529083019190915280517f893e8595c407d2a22d29ff3ba939d15ec3966113ce988bd39c68e4b0035040079281900390910190a15050565b600067ffffffffffffffff821115611b95576040805162461bcd60e51b815260206004820152601b60248201527f426f72696e674d6174683a2075696e743634204f766572666c6f770000000000604482015290519081900360640190fd5b600063ffffffff821115611b95576040805162461bcd60e51b815260206004820152601b60248201527f426f72696e674d6174683a2075696e743332204f766572666c6f770000000000604482015290519081900360640190fd5b604080516001600160a01b038481166024830152306044830152606480830185905283518084039091018152608490920183526020820180516001600160e01b03166323b872dd60e01b178152925182516000946060949389169392918291908083835b60208310611ebb5780518252601f199092019160209182019101611e9c565b6001836020036101000a0380198251168184511680821785525050505050509050019150506000604051808303816000865af19150503d8060008114611f1d576040519150601f19603f3d011682016040523d82523d6000602084013e611f22565b606091505b5091509150818015611f50575080511580611f505750808060200190516020811015611f4d57600080fd5b50515b611f5957600080fd5b5050505050565b801580611fe6575060408051636eb1769f60e11b81523060048201526001600160a01b03848116602483015291519185169163dd62ed3e91604480820192602092909190829003018186803b158015611fb857600080fd5b505afa158015611fcc573d6000803e3d6000fd5b505050506040513d6020811015611fe257600080fd5b5051155b6120215760405162461bcd60e51b81526004018080602001828103825260368152602001806126086036913960400191505060405180910390fd5b604080516001600160a01b038416602482015260448082018490528251808303909101815260649091019091526020810180516001600160e01b031663095ea7b360e01b1790526120739084906120f4565b505050565b604080516001600160a01b038481166024830152604480830185905283518084039091018152606490920183526020820180516001600160e01b031663a9059cbb60e01b1781529251825160009460609493891693929182919080838360208310611ebb5780518252601f199092019160209182019101611e9c565b6060612149826040518060400160405280602081526020017f5361666545524332303a206c6f772d6c6576656c2063616c6c206661696c6564815250856001600160a01b03166121a59092919063ffffffff16565b8051909150156120735780806020019051602081101561216857600080fd5b50516120735760405162461bcd60e51b815260040180806020018281038252602a8152602001806125b3602a913960400191505060405180910390fd5b60606121b484846000856121be565b90505b9392505050565b6060824710156121ff5760405162461bcd60e51b815260040180806020018281038252602681526020018061249c6026913960400191505060405180910390fd5b6122088561231a565b612259576040805162461bcd60e51b815260206004820152601d60248201527f416464726573733a2063616c6c20746f206e6f6e2d636f6e7472616374000000604482015290519081900360640190fd5b60006060866001600160a01b031685876040518082805190602001908083835b602083106122985780518252601f199092019160209182019101612279565b6001836020036101000a03801982511681845116808217855250505050505090500191505060006040518083038185875af1925050503d80600081146122fa576040519150601f19603f3d011682016040523d82523d6000602084013e6122ff565b606091505b509150915061230f828286612320565b979650505050505050565b3b151590565b6060831561232f5750816121b7565b82511561233f5782518084602001fd5b8160405162461bcd60e51b81526004018080602001828103825283818151815260200191508051906020019080838360005b83811015612389578181015183820152602001612371565b50505050905090810190601f1680156123b65780820380516001836020036101000a031916815260200191505b509250505060405180910390fd5b60408051808201909152600080825260208201529056fe4d49534f4d61726b65742e7365744465763a2053656e646572206d757374206265206f70657261746f724d49534f4d61726b65743a2053656e646572206d757374206265206f70657261746f724d49534f4d61726b65743a20696e636f7272656374205f74656d706c6174654964696e69744d49534f4d61726b65743a2062656e746f426f782063616e6e6f742062652073657420746f207a65726f4d49534f4d61726b65743a20496e636f72726563742074656d706c61746520636f646520416464726573733a20696e73756666696369656e742062616c616e636520666f722063616c6c696e69744d49534f4d61726b65743a20616363657373436f6e74726f6c732063616e6e6f742062652073657420746f207a65726f4d49534f4d61726b65743a2050657263656e74616765206973206f7574206f6620313030304d49534f4d61726b65743a2041756374696f6e2074656d706c61746520646f65736e27742065786973744d49534f4d61726b65743a20696e636f7272656374205f74656d706c617465547970654d49534f4d61726b65743a2054656d706c61746520616c72656164792061646465644d49534f4d61726b65743a204661696c656420746f207472616e73666572206d696e696d756d4665655361666545524332303a204552433230206f7065726174696f6e20646964206e6f7420737563636565644d49534f4d61726b65743a2053656e646572206d757374206265206d696e746572206966206c6f636b65645361666545524332303a20617070726f76652066726f6d206e6f6e2d7a65726f20746f206e6f6e2d7a65726f20616c6c6f77616e6365a26469706673582212206eb0131e6c0cb5f4fcd2f811be1af8b64d392dbbcff60bd5709af991b028454a64736f6c634300060c0033",
  "devdoc": {
    "kind": "dev",
    "methods": {
      "addAuctionTemplate(address)": {
        "details": "Should have operator access.",
        "params": {
          "_template": "Auction template to create an auction."
        }
      },
      "createMarket(uint256,address,uint256,address,bytes)": {
        "details": "Initializes auction with the parameters passed.",
        "params": {
          "_data": "Data to be sent to template on Init.",
          "_integratorFeeAccount": "Address to send refferal bonus, if set.",
          "_templateId": "Id of the auction template to create.",
          "_token": "The token address to be sold.",
          "_tokenSupply": "Amount of tokens to be sold at market."
        },
        "returns": {
          "newMarket": "Market address."
        }
      },
      "deployMarket(uint256,address)": {
        "params": {
          "_integratorFeeAccount": "Address to pay the fee to.",
          "_templateId": "Id of the crowdsale template to create."
        },
        "returns": {
          "newMarket": "Market address."
        }
      },
      "getAuctionTemplate(uint256)": {
        "params": {
          "_templateId": "Auction template ID."
        },
        "returns": {
          "_0": "Address of the required template ID."
        }
      },
      "getTemplateId(address)": {
        "params": {
          "_auctionTemplate": "Auction template address."
        },
        "returns": {
          "_0": "ID of the required template address."
        }
      },
      "hasMarketMinterRole(address)": {
        "params": {
          "_address": "EOA or contract being checked"
        },
        "returns": {
          "_0": "bool True if the account has the role or false if it does not"
        }
      },
      "initMISOMarket(address,address,address[])": {
        "details": "Can only be initialized once.",
        "params": {
          "_accessControls": "Sets address to get the access controls from.",
          "_templates": "Initial array of MISOMarket templates."
        }
      },
      "numberOfAuctions()": {
        "returns": {
          "_0": "Auction count."
        }
      },
      "removeAuctionTemplate(uint256)": {
        "details": "Function to remove an auction template.Should have operator access.",
        "params": {
          "_templateId": "Refers to template that is to be deleted."
        }
      },
      "setCurrentTemplateId(uint256,uint256)": {
        "params": {
          "_templateId": "The ID of the current template for that type",
          "_templateType": "Type of template."
        }
      },
      "setDividends(address)": {
        "params": {
          "_divaddr": "Dividend address."
        }
      },
      "setIntegratorFeePct(uint256)": {
        "params": {
          "_amount": "Percentage amount."
        }
      },
      "setLocked(bool)": {
        "params": {
          "_locked": "bool."
        }
      },
      "setMinimumFee(uint256)": {
        "params": {
          "_amount": "Fee amount."
        }
      }
    },
    "version": 1
  },
  "userdoc": {
    "events": {
      "AuctionTemplateAdded(address,uint256)": {
        "notice": "Event emitted when template is added to factory."
      },
      "AuctionTemplateRemoved(address,uint256)": {
        "notice": "Event emitted when auction template is removed."
      },
      "MarketCreated(address,address,address)": {
        "notice": "Event emitted when auction is created using template id."
      },
      "MisoInitMarket(address)": {
        "notice": "Event emitted when first initializing the Market factory."
      },
      "TokensWithdrawn(address,address,uint256)": {
        "notice": "Event for token withdrawals."
      }
    },
    "kind": "user",
    "methods": {
      "accessControls()": {
        "notice": "Responsible for access rights to the contract."
      },
      "addAuctionTemplate(address)": {
        "notice": "Function to add an auction template to create through factory."
      },
      "auctionInfo(address)": {
        "notice": "Mapping from auction created through this contract to Auction struct."
      },
      "auctionTemplateId()": {
        "notice": "Template id to track respective auction template."
      },
      "auctions(uint256)": {
        "notice": "Auctions created using factory."
      },
      "createMarket(uint256,address,uint256,address,bytes)": {
        "notice": "Creates a new MISOMarket using _templateId."
      },
      "deployMarket(uint256,address)": {
        "notice": "Creates a new MISOMarket from template _templateId and transfers fees."
      },
      "getAuctionTemplate(uint256)": {
        "notice": "Get the address based on template ID."
      },
      "getTemplateId(address)": {
        "notice": "Get the ID based on template address."
      },
      "hasMarketMinterRole(address)": {
        "notice": "Used to check whether an address has the minter role"
      },
      "initMISOMarket(address,address,address[])": {
        "notice": "Initializes the market with a list of auction templates."
      },
      "locked()": {
        "notice": "Contract locked status. If locked, only minters can deploy"
      },
      "marketFees()": {
        "notice": "Minimum fee to create a farm through the factory."
      },
      "misoDiv()": {
        "notice": "Any donations if set are sent here."
      },
      "numberOfAuctions()": {
        "notice": "Get the total number of auctions in the factory."
      },
      "setCurrentTemplateId(uint256,uint256)": {
        "notice": "Sets the current template ID for any type."
      },
      "setDividends(address)": {
        "notice": "Sets dividend address."
      },
      "setIntegratorFeePct(uint256)": {
        "notice": "Sets integrator fee percentage."
      },
      "setLocked(bool)": {
        "notice": "Sets the factory to be locked or unlocked."
      },
      "setMinimumFee(uint256)": {
        "notice": "Sets the minimum fee."
      }
    },
    "version": 1
  },
  "storageLayout": {
    "storage": [
      {
        "astId": 2505,
        "contract": "contracts/MISOMarket.sol:MISOMarket",
        "label": "accessControls",
        "offset": 0,
        "slot": "0",
        "type": "t_contract(MISOAccessControls)170"
      },
      {
        "astId": 2513,
        "contract": "contracts/MISOMarket.sol:MISOMarket",
        "label": "initialised",
        "offset": 20,
        "slot": "0",
        "type": "t_bool"
      },
      {
        "astId": 2524,
        "contract": "contracts/MISOMarket.sol:MISOMarket",
        "label": "auctions",
        "offset": 0,
        "slot": "1",
        "type": "t_array(t_address)dyn_storage"
      },
      {
        "astId": 2527,
        "contract": "contracts/MISOMarket.sol:MISOMarket",
        "label": "auctionsLength",
        "offset": 0,
        "slot": "2",
        "type": "t_uint256"
      },
      {
        "astId": 2530,
        "contract": "contracts/MISOMarket.sol:MISOMarket",
        "label": "auctionTemplateId",
        "offset": 0,
        "slot": "3",
        "type": "t_uint256"
      },
      {
        "astId": 2532,
        "contract": "contracts/MISOMarket.sol:MISOMarket",
        "label": "bentoBox",
        "offset": 0,
        "slot": "4",
        "type": "t_contract(IBentoBoxFactory)7274"
      },
      {
        "astId": 2537,
        "contract": "contracts/MISOMarket.sol:MISOMarket",
        "label": "auctionTemplates",
        "offset": 0,
        "slot": "5",
        "type": "t_mapping(t_uint256,t_address)"
      },
      {
        "astId": 2542,
        "contract": "contracts/MISOMarket.sol:MISOMarket",
        "label": "auctionTemplateToId",
        "offset": 0,
        "slot": "6",
        "type": "t_mapping(t_address,t_uint256)"
      },
      {
        "astId": 2546,
        "contract": "contracts/MISOMarket.sol:MISOMarket",
        "label": "currentTemplateId",
        "offset": 0,
        "slot": "7",
        "type": "t_mapping(t_uint256,t_uint256)"
      },
      {
        "astId": 2551,
        "contract": "contracts/MISOMarket.sol:MISOMarket",
        "label": "auctionInfo",
        "offset": 0,
        "slot": "8",
        "type": "t_mapping(t_address,t_struct(Auction)2520_storage)"
      },
      {
        "astId": 2559,
        "contract": "contracts/MISOMarket.sol:MISOMarket",
        "label": "marketFees",
        "offset": 0,
        "slot": "9",
        "type": "t_struct(MarketFees)2556_storage"
      },
      {
        "astId": 2562,
        "contract": "contracts/MISOMarket.sol:MISOMarket",
        "label": "locked",
        "offset": 0,
        "slot": "10",
        "type": "t_bool"
      },
      {
        "astId": 2565,
        "contract": "contracts/MISOMarket.sol:MISOMarket",
        "label": "misoDiv",
        "offset": 1,
        "slot": "10",
        "type": "t_address_payable"
      }
    ],
    "types": {
      "t_address": {
        "encoding": "inplace",
        "label": "address",
        "numberOfBytes": "20"
      },
      "t_address_payable": {
        "encoding": "inplace",
        "label": "address payable",
        "numberOfBytes": "20"
      },
      "t_array(t_address)dyn_storage": {
        "base": "t_address",
        "encoding": "dynamic_array",
        "label": "address[]",
        "numberOfBytes": "32"
      },
      "t_bool": {
        "encoding": "inplace",
        "label": "bool",
        "numberOfBytes": "1"
      },
      "t_contract(IBentoBoxFactory)7274": {
        "encoding": "inplace",
        "label": "contract IBentoBoxFactory",
        "numberOfBytes": "20"
      },
      "t_contract(MISOAccessControls)170": {
        "encoding": "inplace",
        "label": "contract MISOAccessControls",
        "numberOfBytes": "20"
      },
      "t_mapping(t_address,t_struct(Auction)2520_storage)": {
        "encoding": "mapping",
        "key": "t_address",
        "label": "mapping(address => struct MISOMarket.Auction)",
        "numberOfBytes": "32",
        "value": "t_struct(Auction)2520_storage"
      },
      "t_mapping(t_address,t_uint256)": {
        "encoding": "mapping",
        "key": "t_address",
        "label": "mapping(address => uint256)",
        "numberOfBytes": "32",
        "value": "t_uint256"
      },
      "t_mapping(t_uint256,t_address)": {
        "encoding": "mapping",
        "key": "t_uint256",
        "label": "mapping(uint256 => address)",
        "numberOfBytes": "32",
        "value": "t_address"
      },
      "t_mapping(t_uint256,t_uint256)": {
        "encoding": "mapping",
        "key": "t_uint256",
        "label": "mapping(uint256 => uint256)",
        "numberOfBytes": "32",
        "value": "t_uint256"
      },
      "t_struct(Auction)2520_storage": {
        "encoding": "inplace",
        "label": "struct MISOMarket.Auction",
        "members": [
          {
            "astId": 2515,
            "contract": "contracts/MISOMarket.sol:MISOMarket",
            "label": "exists",
            "offset": 0,
            "slot": "0",
            "type": "t_bool"
          },
          {
            "astId": 2517,
            "contract": "contracts/MISOMarket.sol:MISOMarket",
            "label": "templateId",
            "offset": 1,
            "slot": "0",
            "type": "t_uint64"
          },
          {
            "astId": 2519,
            "contract": "contracts/MISOMarket.sol:MISOMarket",
            "label": "index",
            "offset": 9,
            "slot": "0",
            "type": "t_uint128"
          }
        ],
        "numberOfBytes": "32"
      },
      "t_struct(MarketFees)2556_storage": {
        "encoding": "inplace",
        "label": "struct MISOMarket.MarketFees",
        "members": [
          {
            "astId": 2553,
            "contract": "contracts/MISOMarket.sol:MISOMarket",
            "label": "minimumFee",
            "offset": 0,
            "slot": "0",
            "type": "t_uint128"
          },
          {
            "astId": 2555,
            "contract": "contracts/MISOMarket.sol:MISOMarket",
            "label": "integratorFeePct",
            "offset": 16,
            "slot": "0",
            "type": "t_uint32"
          }
        ],
        "numberOfBytes": "32"
      },
      "t_uint128": {
        "encoding": "inplace",
        "label": "uint128",
        "numberOfBytes": "16"
      },
      "t_uint256": {
        "encoding": "inplace",
        "label": "uint256",
        "numberOfBytes": "32"
      },
      "t_uint32": {
        "encoding": "inplace",
        "label": "uint32",
        "numberOfBytes": "4"
      },
      "t_uint64": {
        "encoding": "inplace",
        "label": "uint64",
        "numberOfBytes": "8"
      }
    }
  }
}